{
	"data": {
		"bytecode": {
			"linkReferences": {},
			"object": "60c06040523480156200001157600080fd5b50604051620047e9380380620047e9833981016040819052620000349162000070565b6001600160601b0319606092831b8116608052911b1660a052620000a8565b80516001600160a01b03811681146200006b57600080fd5b919050565b600080604083850312156200008457600080fd5b6200008f8362000053565b91506200009f6020840162000053565b90509250929050565b60805160601c60a05160601c6145a9620002406000396000818161019f015281816103ad0152818161057c015281816105cb015281816106a5015281816108f801528181610c8501528181610e2e015281816111f201528181611305015281816113bf01528181611470015281816115be0152818161164c0152818161191d015281816119e401528181611a9301528181611b4001528181611bb4015281816120e50152818161233b01528181612391015281816123c50152818161245a015281816125cf0152818161274f01526127dd01526000818161046c0152818161075101528181610823015281816109de01528181610a1501528181610b4401528181610d3101528181610e0c01528181610f7b0152818161151b0152818161167e015281816117f601528181611be601528181611e5901528181612093015281816120c3015281816122240152818161236f0152818161267a0152818161280f01528181613153015281816131a30152818161346e015281816135e5015281816139c401528181613a760152613afc01526145a96000f3fe60806040526004361061018f5760003560e01c80638803dbee116100d6578063c45a01551161007f578063e8e3370011610059578063e8e33700146104ce578063f305d71914610509578063fb3bdb411461051c57600080fd5b8063c45a01551461045a578063d06ca61f1461048e578063ded9382a146104ae57600080fd5b8063af2979eb116100b0578063af2979eb14610407578063b6f9de9514610427578063baa2abde1461043a57600080fd5b80638803dbee1461037b578063ad5c46481461039b578063ad615dec146103e757600080fd5b80634a25d94a11610138578063791ac94711610112578063791ac947146103285780637ff36ab51461034857806385f8c2591461035b57600080fd5b80634a25d94a146102c85780635b0d5984146102e85780635c11d7951461030857600080fd5b80631f00ca74116101695780631f00ca74146102685780632195995c1461028857806338ed1739146102a857600080fd5b806302751cec146101d3578063054d50d41461020d57806318cbafe51461023b57600080fd5b366101ce57336001600160a01b037f000000000000000000000000000000000000000000000000000000000000000016146101cc576101cc6144d5565b005b600080fd5b3480156101df57600080fd5b506101f36101ee366004613f91565b61052f565b604080519283526020830191909152015b60405180910390f35b34801561021957600080fd5b5061022d6102283660046142e1565b610645565b604051908152602001610204565b34801561024757600080fd5b5061025b61025636600461426e565b61065a565b6040516102049190614329565b34801561027457600080fd5b5061025b610283366004614172565b6109d7565b34801561029457600080fd5b506101f36102a3366004613e6b565b610a0b565b3480156102b457600080fd5b5061025b6102c336600461426e565b610afe565b3480156102d457600080fd5b5061025b6102e336600461426e565b610c3a565b3480156102f457600080fd5b5061022d610303366004613fef565b610e04565b34801561031457600080fd5b506101cc61032336600461426e565b610f0b565b34801561033457600080fd5b506101cc61034336600461426e565b6111a9565b61025b61035636600461410b565b61142d565b34801561036757600080fd5b5061022d6103763660046142e1565b6117a3565b34801561038757600080fd5b5061025b61039636600461426e565b6117b0565b3480156103a757600080fd5b506103cf7f000000000000000000000000000000000000000000000000000000000000000081565b6040516001600160a01b039091168152602001610204565b3480156103f357600080fd5b5061022d6104023660046142e1565b6118c9565b34801561041357600080fd5b5061022d610422366004613f91565b6118d6565b6101cc61043536600461410b565b611a52565b34801561044657600080fd5b506101f3610455366004613df9565b611e10565b34801561046657600080fd5b506103cf7f000000000000000000000000000000000000000000000000000000000000000081565b34801561049a57600080fd5b5061025b6104a9366004614172565b61208c565b3480156104ba57600080fd5b506101f36104c9366004613fef565b6120b9565b3480156104da57600080fd5b506104ee6104e9366004613f15565b6121c6565b60408051938452602084019290925290820152606001610204565b6104ee610517366004613f91565b6122f1565b61025b61052a36600461410b565b61258c565b60008082428110156105765760405162461bcd60e51b8152602060048201526016602482015260008051602061455483398151915260448201526064015b60405180910390fd5b6105a5897f00000000000000000000000000000000000000000000000000000000000000008a8a8a308a611e10565b90935091506105b5898685612976565b604051632e1a7d4d60e01b8152600481018390527f00000000000000000000000000000000000000000000000000000000000000006001600160a01b031690632e1a7d4d90602401600060405180830381600087803b15801561061757600080fd5b505af115801561062b573d6000803e3d6000fd5b505050506106398583612aa7565b50965096945050505050565b6000610652848484612b8f565b949350505050565b6060814281101561069b5760405162461bcd60e51b81526020600482015260166024820152600080516020614554833981519152604482015260640161056d565b6001600160a01b037f00000000000000000000000000000000000000000000000000000000000000001686866106d2600182614460565b8181106106e1576106e1614501565b90506020020160208101906106f69190613dbf565b6001600160a01b03161461074c5760405162461bcd60e51b815260206004820152601b60248201527f466f6f73776170526f757465723a20494e56414c49445f504154480000000000604482015260640161056d565b6107aa7f000000000000000000000000000000000000000000000000000000000000000089888880806020026020016040519081016040528093929190818152602001838360200280828437600092019190915250612caa92505050565b91508682600184516107bc9190614460565b815181106107cc576107cc614501565b602002602001015110156107f25760405162461bcd60e51b815260040161056d9061436d565b6108b78686600081811061080857610808614501565b905060200201602081019061081d9190613dbf565b336108977f00000000000000000000000000000000000000000000000000000000000000008a8a600081811061085557610855614501565b905060200201602081019061086a9190613dbf565b8b8b600181811061087d5761087d614501565b90506020020160208101906108929190613dbf565b612e35565b856000815181106108aa576108aa614501565b6020026020010151612f26565b6108f682878780806020026020016040519081016040528093929190818152602001838360200280828437600092019190915250309250613070915050565b7f00000000000000000000000000000000000000000000000000000000000000006001600160a01b0316632e1a7d4d83600185516109349190614460565b8151811061094457610944614501565b60200260200101516040518263ffffffff1660e01b815260040161096a91815260200190565b600060405180830381600087803b15801561098457600080fd5b505af1158015610998573d6000803e3d6000fd5b505050506109cc8483600185516109af9190614460565b815181106109bf576109bf614501565b6020026020010151612aa7565b509695505050505050565b6060610a047f00000000000000000000000000000000000000000000000000000000000000008484613278565b9392505050565b6000806000610a3b7f00000000000000000000000000000000000000000000000000000000000000008f8f612e35565b9050600087610a4a578c610a4e565b6000195b60405163d505accf60e01b815233600482015230602482015260448101829052606481018b905260ff8916608482015260a4810188905260c481018790529091506001600160a01b0383169063d505accf9060e401600060405180830381600087803b158015610abd57600080fd5b505af1158015610ad1573d6000803e3d6000fd5b50505050610ae48f8f8f8f8f8f8f611e10565b809450819550505050509b509b9950505050505050505050565b60608142811015610b3f5760405162461bcd60e51b81526020600482015260166024820152600080516020614554833981519152604482015260640161056d565b610b9d7f000000000000000000000000000000000000000000000000000000000000000089888880806020026020016040519081016040528093929190818152602001838360200280828437600092019190915250612caa92505050565b9150868260018451610baf9190614460565b81518110610bbf57610bbf614501565b60200260200101511015610be55760405162461bcd60e51b815260040161056d9061436d565b610bfb8686600081811061080857610808614501565b6109cc82878780806020026020016040519081016040528093929190818152602001838360200280828437600092019190915250899250613070915050565b60608142811015610c7b5760405162461bcd60e51b81526020600482015260166024820152600080516020614554833981519152604482015260640161056d565b6001600160a01b037f0000000000000000000000000000000000000000000000000000000000000000168686610cb2600182614460565b818110610cc157610cc1614501565b9050602002016020810190610cd69190613dbf565b6001600160a01b031614610d2c5760405162461bcd60e51b815260206004820152601b60248201527f466f6f73776170526f757465723a20494e56414c49445f504154480000000000604482015260640161056d565b610d8a7f00000000000000000000000000000000000000000000000000000000000000008988888080602002602001604051908101604052809392919081815260200183836020028082843760009201919091525061327892505050565b91508682600081518110610da057610da0614501565b602002602001015111156107f25760405162461bcd60e51b815260206004820152602560248201527f466f6f73776170526f757465723a204558434553534956455f494e5055545f416044820152641353d5539560da1b606482015260840161056d565b600080610e527f00000000000000000000000000000000000000000000000000000000000000008d7f0000000000000000000000000000000000000000000000000000000000000000612e35565b9050600086610e61578b610e65565b6000195b60405163d505accf60e01b815233600482015230602482015260448101829052606481018a905260ff8816608482015260a4810187905260c481018690529091506001600160a01b0383169063d505accf9060e401600060405180830381600087803b158015610ed457600080fd5b505af1158015610ee8573d6000803e3d6000fd5b50505050610efa8d8d8d8d8d8d6118d6565b9d9c50505050505050505050505050565b8042811015610f4a5760405162461bcd60e51b81526020600482015260166024820152600080516020614554833981519152604482015260640161056d565b610fdb85856000818110610f6057610f60614501565b9050602002016020810190610f759190613dbf565b33610fd57f000000000000000000000000000000000000000000000000000000000000000089896000818110610fad57610fad614501565b9050602002016020810190610fc29190613dbf565b8a8a600181811061087d5761087d614501565b8a612f26565b60008585610fea600182614460565b818110610ff957610ff9614501565b905060200201602081019061100e9190613dbf565b6040516370a0823160e01b81526001600160a01b03868116600483015291909116906370a082319060240160206040518083038186803b15801561105157600080fd5b505afa158015611065573d6000803e3d6000fd5b505050506040513d601f19601f8201168201806040525081019061108991906140f2565b90506110c98686808060200260200160405190810160405280939291908181526020018383602002808284376000920191909152508892506133f9915050565b866111818288886110db600182614460565b8181106110ea576110ea614501565b90506020020160208101906110ff9190613dbf565b6040516370a0823160e01b81526001600160a01b03898116600483015291909116906370a08231906024015b60206040518083038186803b15801561114357600080fd5b505afa158015611157573d6000803e3d6000fd5b505050506040513d601f19601f8201168201806040525081019061117b91906140f2565b906136a1565b101561119f5760405162461bcd60e51b815260040161056d9061436d565b5050505050505050565b80428110156111e85760405162461bcd60e51b81526020600482015260166024820152600080516020614554833981519152604482015260640161056d565b6001600160a01b037f000000000000000000000000000000000000000000000000000000000000000016858561121f600182614460565b81811061122e5761122e614501565b90506020020160208101906112439190613dbf565b6001600160a01b0316146112995760405162461bcd60e51b815260206004820152601b60248201527f466f6f73776170526f757465723a20494e56414c49445f504154480000000000604482015260640161056d565b6112af85856000818110610f6057610f60614501565b6112ed8585808060200260200160405190810160405280939291908181526020018383602002808284376000920191909152503092506133f9915050565b6040516370a0823160e01b81523060048201526000907f00000000000000000000000000000000000000000000000000000000000000006001600160a01b0316906370a082319060240160206040518083038186803b15801561134f57600080fd5b505afa158015611363573d6000803e3d6000fd5b505050506040513d601f19601f8201168201806040525081019061138791906140f2565b9050868110156113a95760405162461bcd60e51b815260040161056d9061436d565b604051632e1a7d4d60e01b8152600481018290527f00000000000000000000000000000000000000000000000000000000000000006001600160a01b031690632e1a7d4d90602401600060405180830381600087803b15801561140b57600080fd5b505af115801561141f573d6000803e3d6000fd5b5050505061119f8482612aa7565b6060814281101561146e5760405162461bcd60e51b81526020600482015260166024820152600080516020614554833981519152604482015260640161056d565b7f00000000000000000000000000000000000000000000000000000000000000006001600160a01b0316868660008181106114ab576114ab614501565b90506020020160208101906114c09190613dbf565b6001600160a01b0316146115165760405162461bcd60e51b815260206004820152601b60248201527f466f6f73776170526f757465723a20494e56414c49445f504154480000000000604482015260640161056d565b6115747f000000000000000000000000000000000000000000000000000000000000000034888880806020026020016040519081016040528093929190818152602001838360200280828437600092019190915250612caa92505050565b91508682600184516115869190614460565b8151811061159657611596614501565b602002602001015110156115bc5760405162461bcd60e51b815260040161056d9061436d565b7f00000000000000000000000000000000000000000000000000000000000000006001600160a01b031663d0e30db0836000815181106115fe576115fe614501565b60200260200101516040518263ffffffff1660e01b81526004016000604051808303818588803b15801561163157600080fd5b505af1158015611645573d6000803e3d6000fd5b50505050507f00000000000000000000000000000000000000000000000000000000000000006001600160a01b031663a9059cbb6116b07f000000000000000000000000000000000000000000000000000000000000000089896000818110610fad57610fad614501565b846000815181106116c3576116c3614501565b60200260200101516040518363ffffffff1660e01b81526004016116fc9291906001600160a01b03929092168252602082015260400190565b602060405180830381600087803b15801561171657600080fd5b505af115801561172a573d6000803e3d6000fd5b505050506040513d601f19601f8201168201806040525081019061174e9190614085565b61175a5761175a6144d5565b61179982878780806020026020016040519081016040528093929190818152602001838360200280828437600092019190915250899250613070915050565b5095945050505050565b60006106528484846136ad565b606081428110156117f15760405162461bcd60e51b81526020600482015260166024820152600080516020614554833981519152604482015260640161056d565b61184f7f00000000000000000000000000000000000000000000000000000000000000008988888080602002602001604051908101604052809392919081815260200183836020028082843760009201919091525061327892505050565b9150868260008151811061186557611865614501565b60200260200101511115610be55760405162461bcd60e51b815260206004820152602560248201527f466f6f73776170526f757465723a204558434553534956455f494e5055545f416044820152641353d5539560da1b606482015260840161056d565b60006106528484846137c3565b600081428110156119175760405162461bcd60e51b81526020600482015260166024820152600080516020614554833981519152604482015260640161056d565b611946887f00000000000000000000000000000000000000000000000000000000000000008989893089611e10565b6040516370a0823160e01b81523060048201529093506119ce9150899086906001600160a01b038316906370a082319060240160206040518083038186803b15801561199157600080fd5b505afa1580156119a5573d6000803e3d6000fd5b505050506040513d601f19601f820116820180604052508101906119c991906140f2565b612976565b604051632e1a7d4d60e01b8152600481018390527f00000000000000000000000000000000000000000000000000000000000000006001600160a01b031690632e1a7d4d90602401600060405180830381600087803b158015611a3057600080fd5b505af1158015611a44573d6000803e3d6000fd5b505050506109cc8483612aa7565b8042811015611a915760405162461bcd60e51b81526020600482015260166024820152600080516020614554833981519152604482015260640161056d565b7f00000000000000000000000000000000000000000000000000000000000000006001600160a01b031685856000818110611ace57611ace614501565b9050602002016020810190611ae39190613dbf565b6001600160a01b031614611b395760405162461bcd60e51b815260206004820152601b60248201527f466f6f73776170526f757465723a20494e56414c49445f504154480000000000604482015260640161056d565b60003490507f00000000000000000000000000000000000000000000000000000000000000006001600160a01b031663d0e30db0826040518263ffffffff1660e01b81526004016000604051808303818588803b158015611b9957600080fd5b505af1158015611bad573d6000803e3d6000fd5b50505050507f00000000000000000000000000000000000000000000000000000000000000006001600160a01b031663a9059cbb611c187f000000000000000000000000000000000000000000000000000000000000000089896000818110610fad57610fad614501565b6040517fffffffff0000000000000000000000000000000000000000000000000000000060e084901b1681526001600160a01b03909116600482015260248101849052604401602060405180830381600087803b158015611c7857600080fd5b505af1158015611c8c573d6000803e3d6000fd5b505050506040513d601f19601f82011682018060405250810190611cb09190614085565b611cbc57611cbc6144d5565b60008686611ccb600182614460565b818110611cda57611cda614501565b9050602002016020810190611cef9190613dbf565b6040516370a0823160e01b81526001600160a01b03878116600483015291909116906370a082319060240160206040518083038186803b158015611d3257600080fd5b505afa158015611d46573d6000803e3d6000fd5b505050506040513d601f19601f82011682018060405250810190611d6a91906140f2565b9050611daa8787808060200260200160405190810160405280939291908181526020018383602002808284376000920191909152508992506133f9915050565b87611181828989611dbc600182614460565b818110611dcb57611dcb614501565b9050602002016020810190611de09190613dbf565b6040516370a0823160e01b81526001600160a01b038a8116600483015291909116906370a082319060240161112b565b6000808242811015611e525760405162461bcd60e51b81526020600482015260166024820152600080516020614554833981519152604482015260640161056d565b6000611e7f7f00000000000000000000000000000000000000000000000000000000000000008c8c612e35565b6040516323b872dd60e01b81523360048201526001600160a01b03821660248201819052604482018c90529192506323b872dd90606401602060405180830381600087803b158015611ed057600080fd5b505af1158015611ee4573d6000803e3d6000fd5b505050506040513d601f19601f82011682018060405250810190611f089190614085565b5060405163226bf2d160e21b81526001600160a01b03878116600483015260009182918416906389afcb44906024016040805180830381600087803b158015611f5057600080fd5b505af1158015611f64573d6000803e3d6000fd5b505050506040513d601f19601f82011682018060405250810190611f88919061424a565b915091506000611f988e8e6138a0565b509050806001600160a01b03168e6001600160a01b031614611fbb578183611fbe565b82825b90975095508a87101561201f5760405162461bcd60e51b8152602060048201526024808201527f466f6f73776170526f757465723a20494e53554646494349454e545f415f414d60448201526313d5539560e21b606482015260840161056d565b8986101561207b5760405162461bcd60e51b8152602060048201526024808201527f466f6f73776170526f757465723a20494e53554646494349454e545f425f414d60448201526313d5539560e21b606482015260840161056d565b505050505097509795505050505050565b6060610a047f00000000000000000000000000000000000000000000000000000000000000008484612caa565b60008060006121097f00000000000000000000000000000000000000000000000000000000000000008e7f0000000000000000000000000000000000000000000000000000000000000000612e35565b9050600087612118578c61211c565b6000195b60405163d505accf60e01b815233600482015230602482015260448101829052606481018b905260ff8916608482015260a4810188905260c481018790529091506001600160a01b0383169063d505accf9060e401600060405180830381600087803b15801561218b57600080fd5b505af115801561219f573d6000803e3d6000fd5b505050506121b18e8e8e8e8e8e61052f565b909f909e509c50505050505050505050505050565b6000806000834281101561220a5760405162461bcd60e51b81526020600482015260166024820152600080516020614554833981519152604482015260640161056d565b6122188c8c8c8c8c8c613996565b9094509250600061224a7f00000000000000000000000000000000000000000000000000000000000000008e8e612e35565b90506122588d338388612f26565b6122648c338387612f26565b6040516335313c2160e11b81526001600160a01b038881166004830152821690636a62784290602401602060405180830381600087803b1580156122a757600080fd5b505af11580156122bb573d6000803e3d6000fd5b505050506040513d601f19601f820116820180604052508101906122df91906140f2565b92505050985098509895505050505050565b600080600083428110156123355760405162461bcd60e51b81526020600482015260166024820152600080516020614554833981519152604482015260640161056d565b6123638a7f00000000000000000000000000000000000000000000000000000000000000008b348c8c613996565b909450925060006123b57f00000000000000000000000000000000000000000000000000000000000000008c7f0000000000000000000000000000000000000000000000000000000000000000612e35565b90506123c38b338388612f26565b7f00000000000000000000000000000000000000000000000000000000000000006001600160a01b031663d0e30db0856040518263ffffffff1660e01b81526004016000604051808303818588803b15801561241e57600080fd5b505af1158015612432573d6000803e3d6000fd5b505060405163a9059cbb60e01b81526001600160a01b038581166004830152602482018990527f000000000000000000000000000000000000000000000000000000000000000016935063a9059cbb92506044019050602060405180830381600087803b1580156124a257600080fd5b505af11580156124b6573d6000803e3d6000fd5b505050506040513d601f19601f820116820180604052508101906124da9190614085565b6124e6576124e66144d5565b6040516335313c2160e11b81526001600160a01b038881166004830152821690636a62784290602401602060405180830381600087803b15801561252957600080fd5b505af115801561253d573d6000803e3d6000fd5b505050506040513d601f19601f8201168201806040525081019061256191906140f2565b92508334111561257e5761257e336125798634614460565b612aa7565b505096509650969350505050565b606081428110156125cd5760405162461bcd60e51b81526020600482015260166024820152600080516020614554833981519152604482015260640161056d565b7f00000000000000000000000000000000000000000000000000000000000000006001600160a01b03168686600081811061260a5761260a614501565b905060200201602081019061261f9190613dbf565b6001600160a01b0316146126755760405162461bcd60e51b815260206004820152601b60248201527f466f6f73776170526f757465723a20494e56414c49445f504154480000000000604482015260640161056d565b6126d37f00000000000000000000000000000000000000000000000000000000000000008888888080602002602001604051908101604052809392919081815260200183836020028082843760009201919091525061327892505050565b915034826000815181106126e9576126e9614501565b6020026020010151111561274d5760405162461bcd60e51b815260206004820152602560248201527f466f6f73776170526f757465723a204558434553534956455f494e5055545f416044820152641353d5539560da1b606482015260840161056d565b7f00000000000000000000000000000000000000000000000000000000000000006001600160a01b031663d0e30db08360008151811061278f5761278f614501565b60200260200101516040518263ffffffff1660e01b81526004016000604051808303818588803b1580156127c257600080fd5b505af11580156127d6573d6000803e3d6000fd5b50505050507f00000000000000000000000000000000000000000000000000000000000000006001600160a01b031663a9059cbb6128417f000000000000000000000000000000000000000000000000000000000000000089896000818110610fad57610fad614501565b8460008151811061285457612854614501565b60200260200101516040518363ffffffff1660e01b815260040161288d9291906001600160a01b03929092168252602082015260400190565b602060405180830381600087803b1580156128a757600080fd5b505af11580156128bb573d6000803e3d6000fd5b505050506040513d601f19601f820116820180604052508101906128df9190614085565b6128eb576128eb6144d5565b61292a82878780806020026020016040519081016040528093929190818152602001838360200280828437600092019190915250899250613070915050565b8160008151811061293d5761293d614501565b602002602001015134111561179957611799338360008151811061296357612963614501565b6020026020010151346125799190614460565b604080516001600160a01b038481166024830152604480830185905283518084039091018152606490920183526020820180516001600160e01b031663a9059cbb60e01b17905291516000928392908716916129d2919061430d565b6000604051808303816000865af19150503d8060008114612a0f576040519150601f19603f3d011682016040523d82523d6000602084013e612a14565b606091505b5091509150818015612a3e575080511580612a3e575080806020019051810190612a3e9190614085565b612aa05760405162461bcd60e51b815260206004820152602d60248201527f5472616e7366657248656c7065723a3a736166655472616e736665723a20747260448201526c185b9cd9995c8819985a5b1959609a1b606482015260840161056d565b5050505050565b604080516000808252602082019092526001600160a01b038416908390604051612ad1919061430d565b60006040518083038185875af1925050503d8060008114612b0e576040519150601f19603f3d011682016040523d82523d6000602084013e612b13565b606091505b5050905080612b8a5760405162461bcd60e51b815260206004820152603460248201527f5472616e7366657248656c7065723a3a736166655472616e736665724554483a60448201527f20455448207472616e73666572206661696c6564000000000000000000000000606482015260840161056d565b505050565b6000808411612bf25760405162461bcd60e51b815260206004820152602960248201527f466f6f737761704c6962726172793a20494e53554646494349454e545f494e50604482015268155517d05353d5539560ba1b606482015260840161056d565b600083118015612c025750600082115b612c5d5760405162461bcd60e51b815260206004820152602660248201527f466f6f737761704c6962726172793a20494e53554646494349454e545f4c495160448201526555494449545960d01b606482015260840161056d565b6000612c6b856103e6613c51565b90506000612c798285613c51565b90506000612c9383612c8d886103e8613c51565b90613c5d565b9050612c9f818361441f565b979650505050505050565b6060600282511015612cfe5760405162461bcd60e51b815260206004820152601c60248201527f466f6f737761704c6962726172793a20494e56414c49445f5041544800000000604482015260640161056d565b815167ffffffffffffffff811115612d1857612d18614517565b604051908082528060200260200182016040528015612d41578160200160208202803683370190505b5090508281600081518110612d5857612d58614501565b60200260200101818152505060005b60018351612d759190614460565b811015612e2d57600080612dc887868581518110612d9557612d95614501565b602002602001015187866001612dab9190614407565b81518110612dbb57612dbb614501565b6020026020010151613c69565b91509150612df0848481518110612de157612de1614501565b60200260200101518383612b8f565b84612dfc856001614407565b81518110612e0c57612e0c614501565b60200260200101818152505050508080612e25906144ba565b915050612d67565b509392505050565b6000806000612e4485856138a0565b6040516bffffffffffffffffffffffff19606084811b8216602084015283901b1660348201529193509150869060480160405160208183030381529060405280519060200120604051602001612f049291907fff00000000000000000000000000000000000000000000000000000000000000815260609290921b6bffffffffffffffffffffffff1916600183015260158201527f39c058a58a33034cf7a1fdc8e6aac91b8f74bd4a061c9967c7a90ab15147cd14603582015260550190565b60408051601f1981840301815291905280516020909101209695505050505050565b604080516001600160a01b0385811660248301528481166044830152606480830185905283518084039091018152608490920183526020820180516001600160e01b03166323b872dd60e01b1790529151600092839290881691612f8a919061430d565b6000604051808303816000865af19150503d8060008114612fc7576040519150601f19603f3d011682016040523d82523d6000602084013e612fcc565b606091505b5091509150818015612ff6575080511580612ff6575080806020019051810190612ff69190614085565b6130685760405162461bcd60e51b815260206004820152603160248201527f5472616e7366657248656c7065723a3a7472616e7366657246726f6d3a20747260448201527f616e7366657246726f6d206661696c6564000000000000000000000000000000606482015260840161056d565b505050505050565b60005b600183516130819190614460565b8110156132725760008084838151811061309d5761309d614501565b6020026020010151858460016130b39190614407565b815181106130c3576130c3614501565b60200260200101519150915060006130db83836138a0565b5090506000876130ec866001614407565b815181106130fc576130fc614501565b60200260200101519050600080836001600160a01b0316866001600160a01b03161461312a5782600061312e565b6000835b91509150600060028a516131429190614460565b881061314e578861319c565b61319c7f0000000000000000000000000000000000000000000000000000000000000000878c61317f8c6002614407565b8151811061318f5761318f614501565b6020026020010151612e35565b90506131c97f00000000000000000000000000000000000000000000000000000000000000008888612e35565b6001600160a01b031663022c0d9f84848460006040519080825280601f01601f191660200182016040528015613206576020820181803683370190505b506040518563ffffffff1660e01b815260040161322694939291906143b6565b600060405180830381600087803b15801561324057600080fd5b505af1158015613254573d6000803e3d6000fd5b5050505050505050505050808061326a906144ba565b915050613073565b50505050565b60606002825110156132cc5760405162461bcd60e51b815260206004820152601c60248201527f466f6f737761704c6962726172793a20494e56414c49445f5041544800000000604482015260640161056d565b815167ffffffffffffffff8111156132e6576132e6614517565b60405190808252806020026020018201604052801561330f578160200160208202803683370190505b5090508281600183516133229190614460565b8151811061333257613332614501565b60200260200101818152505060006001835161334e9190614460565b90505b8015612e2d57600080613394878661336a600187614460565b8151811061337a5761337a614501565b6020026020010151878681518110612dbb57612dbb614501565b915091506133bc8484815181106133ad576133ad614501565b602002602001015183836136ad565b846133c8600186614460565b815181106133d8576133d8614501565b602002602001018181525050505080806133f1906144a3565b915050613351565b60005b6001835161340a9190614460565b811015612b8a5760008084838151811061342657613426614501565b60200260200101518584600161343c9190614407565b8151811061344c5761344c614501565b602002602001015191509150600061346483836138a0565b50905060006134947f00000000000000000000000000000000000000000000000000000000000000008585612e35565b9050600080600080846001600160a01b0316630902f1ac6040518163ffffffff1660e01b815260040160606040518083038186803b1580156134d557600080fd5b505afa1580156134e9573d6000803e3d6000fd5b505050506040513d601f19601f8201168201806040525081019061350d91906140a2565b506001600160701b031691506001600160701b03169150600080876001600160a01b03168a6001600160a01b03161461354757828461354a565b83835b6040516370a0823160e01b81526001600160a01b038a81166004830152929450909250613585918491908d16906370a082319060240161112b565b9550613592868383612b8f565b945050505050600080856001600160a01b0316886001600160a01b0316146135bc578260006135c0565b6000835b91509150600060028c516135d49190614460565b8a106135e0578a613611565b6136117f0000000000000000000000000000000000000000000000000000000000000000898e61317f8e6002614407565b6040805160008152602081019182905263022c0d9f60e01b9091529091506001600160a01b0387169063022c0d9f9061365390869086908690602481016143b6565b600060405180830381600087803b15801561366d57600080fd5b505af1158015613681573d6000803e3d6000fd5b505050505050505050505050508080613699906144ba565b9150506133fc565b6000610a048284614460565b60008084116137115760405162461bcd60e51b815260206004820152602a60248201527f466f6f737761704c6962726172793a20494e53554646494349454e545f4f555460448201526914155517d05353d5539560b21b606482015260840161056d565b6000831180156137215750600082115b61377c5760405162461bcd60e51b815260206004820152602660248201527f466f6f737761704c6962726172793a20494e53554646494349454e545f4c495160448201526555494449545960d01b606482015260840161056d565b60006137946103e861378e8688613c51565b90613c51565b905060006137a86103e661378e86896136a1565b90506137b96001612c8d838561441f565b9695505050505050565b60008084116138205760405162461bcd60e51b815260206004820152602360248201527f466f6f737761704c6962726172793a20494e53554646494349454e545f414d4f60448201526215539560ea1b606482015260840161056d565b6000831180156138305750600082115b61388b5760405162461bcd60e51b815260206004820152602660248201527f466f6f737761704c6962726172793a20494e53554646494349454e545f4c495160448201526555494449545960d01b606482015260840161056d565b826138968584613c51565b610652919061441f565b600080826001600160a01b0316846001600160a01b031614156139115760405162461bcd60e51b815260206004820152602360248201527f466f6f737761704c6962726172793a204944454e544943414c5f41444452455360448201526253455360e81b606482015260840161056d565b826001600160a01b0316846001600160a01b031610613931578284613934565b83835b90925090506001600160a01b03821661398f5760405162461bcd60e51b815260206004820152601c60248201527f466f6f737761704c6962726172793a205a45524f5f4144445245535300000000604482015260640161056d565b9250929050565b60405163e6a4390560e01b81526001600160a01b0387811660048301528681166024830152600091829182917f00000000000000000000000000000000000000000000000000000000000000009091169063e6a439059060440160206040518083038186803b158015613a0857600080fd5b505afa158015613a1c573d6000803e3d6000fd5b505050506040513d601f19601f82011682018060405250810190613a409190613ddc565b6001600160a01b03161415613af4576040516364e329cb60e11b81526001600160a01b03898116600483015288811660248301527f0000000000000000000000000000000000000000000000000000000000000000169063c9c6539690604401602060405180830381600087803b158015613aba57600080fd5b505af1158015613ace573d6000803e3d6000fd5b505050506040513d601f19601f82011682018060405250810190613af29190613ddc565b505b600080613b227f00000000000000000000000000000000000000000000000000000000000000008b8b613c69565b91509150816000148015613b34575080155b15613b4457879350869250613c44565b6000613b518984846137c3565b9050878111613bc15785811015613bb65760405162461bcd60e51b8152602060048201526024808201527f466f6f73776170526f757465723a20494e53554646494349454e545f425f414d60448201526313d5539560e21b606482015260840161056d565b889450925082613c42565b6000613bce8984866137c3565b905089811115613be057613be06144d5565b87811015613c3c5760405162461bcd60e51b8152602060048201526024808201527f466f6f73776170526f757465723a20494e53554646494349454e545f415f414d60448201526313d5539560e21b606482015260840161056d565b94508793505b505b5050965096945050505050565b6000610a048284614441565b6000610a048284614407565b6000806000613c7885856138a0565b509050600080613c89888888612e35565b6001600160a01b0316630902f1ac6040518163ffffffff1660e01b815260040160606040518083038186803b158015613cc157600080fd5b505afa158015613cd5573d6000803e3d6000fd5b505050506040513d601f19601f82011682018060405250810190613cf991906140a2565b506001600160701b031691506001600160701b03169150826001600160a01b0316876001600160a01b031614613d30578082613d33565b81815b90999098509650505050505050565b8035613d4d8161452d565b919050565b60008083601f840112613d6457600080fd5b50813567ffffffffffffffff811115613d7c57600080fd5b6020830191508360208260051b850101111561398f57600080fd5b80516001600160701b0381168114613d4d57600080fd5b803560ff81168114613d4d57600080fd5b600060208284031215613dd157600080fd5b8135610a048161452d565b600060208284031215613dee57600080fd5b8151610a048161452d565b600080600080600080600060e0888a031215613e1457600080fd5b8735613e1f8161452d565b96506020880135613e2f8161452d565b955060408801359450606088013593506080880135925060a0880135613e548161452d565b8092505060c0880135905092959891949750929550565b60008060008060008060008060008060006101608c8e031215613e8d57600080fd5b8b35613e988161452d565b9a5060208c0135613ea88161452d565b995060408c0135985060608c0135975060808c0135965060a08c0135613ecd8161452d565b955060c08c0135945060e08c0135613ee481614545565b9350613ef36101008d01613dae565b92506101208c013591506101408c013590509295989b509295989b9093969950565b600080600080600080600080610100898b031215613f3257600080fd5b8835613f3d8161452d565b97506020890135613f4d8161452d565b965060408901359550606089013594506080890135935060a0890135925060c0890135613f798161452d565b8092505060e089013590509295985092959890939650565b60008060008060008060c08789031215613faa57600080fd5b8635613fb58161452d565b95506020870135945060408701359350606087013592506080870135613fda8161452d565b8092505060a087013590509295509295509295565b6000806000806000806000806000806101408b8d03121561400f57600080fd5b8a3561401a8161452d565b995060208b0135985060408b0135975060608b0135965060808b013561403f8161452d565b955060a08b0135945060c08b013561405681614545565b935061406460e08c01613dae565b92506101008b013591506101208b013590509295989b9194979a5092959850565b60006020828403121561409757600080fd5b8151610a0481614545565b6000806000606084860312156140b757600080fd5b6140c084613d97565b92506140ce60208501613d97565b9150604084015163ffffffff811681146140e757600080fd5b809150509250925092565b60006020828403121561410457600080fd5b5051919050565b60008060008060006080868803121561412357600080fd5b85359450602086013567ffffffffffffffff81111561414157600080fd5b61414d88828901613d52565b90955093505060408601356141618161452d565b949793965091946060013592915050565b6000806040838503121561418557600080fd5b8235915060208084013567ffffffffffffffff808211156141a557600080fd5b818601915086601f8301126141b957600080fd5b8135818111156141cb576141cb614517565b8060051b604051601f19603f830116810181811085821117156141f0576141f0614517565b604052828152858101935084860182860187018b101561420f57600080fd5b600095505b838610156142395761422581613d42565b855260019590950194938601938601614214565b508096505050505050509250929050565b6000806040838503121561425d57600080fd5b505080516020909101519092909150565b60008060008060008060a0878903121561428757600080fd5b8635955060208701359450604087013567ffffffffffffffff8111156142ac57600080fd5b6142b889828a01613d52565b90955093505060608701356142cc8161452d565b80925050608087013590509295509295509295565b6000806000606084860312156142f657600080fd5b505081359360208301359350604090920135919050565b6000825161431f818460208701614477565b9190910192915050565b6020808252825182820181905260009190848201906040850190845b8181101561436157835183529284019291840191600101614345565b50909695505050505050565b60208082526029908201527f466f6f73776170526f757465723a20494e53554646494349454e545f4f555450604082015268155517d05353d5539560ba1b606082015260800190565b8481528360208201526001600160a01b038316604082015260806060820152600082518060808401526143f08160a0850160208701614477565b601f01601f19169190910160a00195945050505050565b6000821982111561441a5761441a6144eb565b500190565b60008261443c57634e487b7160e01b600052601260045260246000fd5b500490565b600081600019048311821515161561445b5761445b6144eb565b500290565b600082821015614472576144726144eb565b500390565b60005b8381101561449257818101518382015260200161447a565b838111156132725750506000910152565b6000816144b2576144b26144eb565b506000190190565b60006000198214156144ce576144ce6144eb565b5060010190565b634e487b7160e01b600052600160045260246000fd5b634e487b7160e01b600052601160045260246000fd5b634e487b7160e01b600052603260045260246000fd5b634e487b7160e01b600052604160045260246000fd5b6001600160a01b038116811461454257600080fd5b50565b801515811461454257600080fdfe466f6f73776170526f757465723a204558504952454400000000000000000000a264697066735822122065d12b4ef7ee0bd01d8e6b1909531966f049bb4ba2b75002f58a977ed0480ac864736f6c63430008070033",
			"opcodes": "PUSH1 0xC0 PUSH1 0x40 MSTORE CALLVALUE DUP1 ISZERO PUSH3 0x11 JUMPI PUSH1 0x0 DUP1 REVERT JUMPDEST POP PUSH1 0x40 MLOAD PUSH3 0x47E9 CODESIZE SUB DUP1 PUSH3 0x47E9 DUP4 CODECOPY DUP2 ADD PUSH1 0x40 DUP2 SWAP1 MSTORE PUSH3 0x34 SWAP2 PUSH3 0x70 JUMP JUMPDEST PUSH1 0x1 PUSH1 0x1 PUSH1 0x60 SHL SUB NOT PUSH1 0x60 SWAP3 DUP4 SHL DUP2 AND PUSH1 0x80 MSTORE SWAP2 SHL AND PUSH1 0xA0 MSTORE PUSH3 0xA8 JUMP JUMPDEST DUP1 MLOAD PUSH1 0x1 PUSH1 0x1 PUSH1 0xA0 SHL SUB DUP2 AND DUP2 EQ PUSH3 0x6B JUMPI PUSH1 0x0 DUP1 REVERT JUMPDEST SWAP2 SWAP1 POP JUMP JUMPDEST PUSH1 0x0 DUP1 PUSH1 0x40 DUP4 DUP6 SUB SLT ISZERO PUSH3 0x84 JUMPI PUSH1 0x0 DUP1 REVERT JUMPDEST PUSH3 0x8F DUP4 PUSH3 0x53 JUMP JUMPDEST SWAP2 POP PUSH3 0x9F PUSH1 0x20 DUP5 ADD PUSH3 0x53 JUMP JUMPDEST SWAP1 POP SWAP3 POP SWAP3 SWAP1 POP JUMP JUMPDEST PUSH1 0x80 MLOAD PUSH1 0x60 SHR PUSH1 0xA0 MLOAD PUSH1 0x60 SHR PUSH2 0x45A9 PUSH3 0x240 PUSH1 0x0 CODECOPY PUSH1 0x0 DUP2 DUP2 PUSH2 0x19F ADD MSTORE DUP2 DUP2 PUSH2 0x3AD ADD MSTORE DUP2 DUP2 PUSH2 0x57C ADD MSTORE DUP2 DUP2 PUSH2 0x5CB ADD MSTORE DUP2 DUP2 PUSH2 0x6A5 ADD MSTORE DUP2 DUP2 PUSH2 0x8F8 ADD MSTORE DUP2 DUP2 PUSH2 0xC85 ADD MSTORE DUP2 DUP2 PUSH2 0xE2E ADD MSTORE DUP2 DUP2 PUSH2 0x11F2 ADD MSTORE DUP2 DUP2 PUSH2 0x1305 ADD MSTORE DUP2 DUP2 PUSH2 0x13BF ADD MSTORE DUP2 DUP2 PUSH2 0x1470 ADD MSTORE DUP2 DUP2 PUSH2 0x15BE ADD MSTORE DUP2 DUP2 PUSH2 0x164C ADD MSTORE DUP2 DUP2 PUSH2 0x191D ADD MSTORE DUP2 DUP2 PUSH2 0x19E4 ADD MSTORE DUP2 DUP2 PUSH2 0x1A93 ADD MSTORE DUP2 DUP2 PUSH2 0x1B40 ADD MSTORE DUP2 DUP2 PUSH2 0x1BB4 ADD MSTORE DUP2 DUP2 PUSH2 0x20E5 ADD MSTORE DUP2 DUP2 PUSH2 0x233B ADD MSTORE DUP2 DUP2 PUSH2 0x2391 ADD MSTORE DUP2 DUP2 PUSH2 0x23C5 ADD MSTORE DUP2 DUP2 PUSH2 0x245A ADD MSTORE DUP2 DUP2 PUSH2 0x25CF ADD MSTORE DUP2 DUP2 PUSH2 0x274F ADD MSTORE PUSH2 0x27DD ADD MSTORE PUSH1 0x0 DUP2 DUP2 PUSH2 0x46C ADD MSTORE DUP2 DUP2 PUSH2 0x751 ADD MSTORE DUP2 DUP2 PUSH2 0x823 ADD MSTORE DUP2 DUP2 PUSH2 0x9DE ADD MSTORE DUP2 DUP2 PUSH2 0xA15 ADD MSTORE DUP2 DUP2 PUSH2 0xB44 ADD MSTORE DUP2 DUP2 PUSH2 0xD31 ADD MSTORE DUP2 DUP2 PUSH2 0xE0C ADD MSTORE DUP2 DUP2 PUSH2 0xF7B ADD MSTORE DUP2 DUP2 PUSH2 0x151B ADD MSTORE DUP2 DUP2 PUSH2 0x167E ADD MSTORE DUP2 DUP2 PUSH2 0x17F6 ADD MSTORE DUP2 DUP2 PUSH2 0x1BE6 ADD MSTORE DUP2 DUP2 PUSH2 0x1E59 ADD MSTORE DUP2 DUP2 PUSH2 0x2093 ADD MSTORE DUP2 DUP2 PUSH2 0x20C3 ADD MSTORE DUP2 DUP2 PUSH2 0x2224 ADD MSTORE DUP2 DUP2 PUSH2 0x236F ADD MSTORE DUP2 DUP2 PUSH2 0x267A ADD MSTORE DUP2 DUP2 PUSH2 0x280F ADD MSTORE DUP2 DUP2 PUSH2 0x3153 ADD MSTORE DUP2 DUP2 PUSH2 0x31A3 ADD MSTORE DUP2 DUP2 PUSH2 0x346E ADD MSTORE DUP2 DUP2 PUSH2 0x35E5 ADD MSTORE DUP2 DUP2 PUSH2 0x39C4 ADD MSTORE DUP2 DUP2 PUSH2 0x3A76 ADD MSTORE PUSH2 0x3AFC ADD MSTORE PUSH2 0x45A9 PUSH1 0x0 RETURN INVALID PUSH1 0x80 PUSH1 0x40 MSTORE PUSH1 0x4 CALLDATASIZE LT PUSH2 0x18F JUMPI PUSH1 0x0 CALLDATALOAD PUSH1 0xE0 SHR DUP1 PUSH4 0x8803DBEE GT PUSH2 0xD6 JUMPI DUP1 PUSH4 0xC45A0155 GT PUSH2 0x7F JUMPI DUP1 PUSH4 0xE8E33700 GT PUSH2 0x59 JUMPI DUP1 PUSH4 0xE8E33700 EQ PUSH2 0x4CE JUMPI DUP1 PUSH4 0xF305D719 EQ PUSH2 0x509 JUMPI DUP1 PUSH4 0xFB3BDB41 EQ PUSH2 0x51C JUMPI PUSH1 0x0 DUP1 REVERT JUMPDEST DUP1 PUSH4 0xC45A0155 EQ PUSH2 0x45A JUMPI DUP1 PUSH4 0xD06CA61F EQ PUSH2 0x48E JUMPI DUP1 PUSH4 0xDED9382A EQ PUSH2 0x4AE JUMPI PUSH1 0x0 DUP1 REVERT JUMPDEST DUP1 PUSH4 0xAF2979EB GT PUSH2 0xB0 JUMPI DUP1 PUSH4 0xAF2979EB EQ PUSH2 0x407 JUMPI DUP1 PUSH4 0xB6F9DE95 EQ PUSH2 0x427 JUMPI DUP1 PUSH4 0xBAA2ABDE EQ PUSH2 0x43A JUMPI PUSH1 0x0 DUP1 REVERT JUMPDEST DUP1 PUSH4 0x8803DBEE EQ PUSH2 0x37B JUMPI DUP1 PUSH4 0xAD5C4648 EQ PUSH2 0x39B JUMPI DUP1 PUSH4 0xAD615DEC EQ PUSH2 0x3E7 JUMPI PUSH1 0x0 DUP1 REVERT JUMPDEST DUP1 PUSH4 0x4A25D94A GT PUSH2 0x138 JUMPI DUP1 PUSH4 0x791AC947 GT PUSH2 0x112 JUMPI DUP1 PUSH4 0x791AC947 EQ PUSH2 0x328 JUMPI DUP1 PUSH4 0x7FF36AB5 EQ PUSH2 0x348 JUMPI DUP1 PUSH4 0x85F8C259 EQ PUSH2 0x35B JUMPI PUSH1 0x0 DUP1 REVERT JUMPDEST DUP1 PUSH4 0x4A25D94A EQ PUSH2 0x2C8 JUMPI DUP1 PUSH4 0x5B0D5984 EQ PUSH2 0x2E8 JUMPI DUP1 PUSH4 0x5C11D795 EQ PUSH2 0x308 JUMPI PUSH1 0x0 DUP1 REVERT JUMPDEST DUP1 PUSH4 0x1F00CA74 GT PUSH2 0x169 JUMPI DUP1 PUSH4 0x1F00CA74 EQ PUSH2 0x268 JUMPI DUP1 PUSH4 0x2195995C EQ PUSH2 0x288 JUMPI DUP1 PUSH4 0x38ED1739 EQ PUSH2 0x2A8 JUMPI PUSH1 0x0 DUP1 REVERT JUMPDEST DUP1 PUSH4 0x2751CEC EQ PUSH2 0x1D3 JUMPI DUP1 PUSH4 0x54D50D4 EQ PUSH2 0x20D JUMPI DUP1 PUSH4 0x18CBAFE5 EQ PUSH2 0x23B JUMPI PUSH1 0x0 DUP1 REVERT JUMPDEST CALLDATASIZE PUSH2 0x1CE JUMPI CALLER PUSH1 0x1 PUSH1 0x1 PUSH1 0xA0 SHL SUB PUSH32 0x0 AND EQ PUSH2 0x1CC JUMPI PUSH2 0x1CC PUSH2 0x44D5 JUMP JUMPDEST STOP JUMPDEST PUSH1 0x0 DUP1 REVERT JUMPDEST CALLVALUE DUP1 ISZERO PUSH2 0x1DF JUMPI PUSH1 0x0 DUP1 REVERT JUMPDEST POP PUSH2 0x1F3 PUSH2 0x1EE CALLDATASIZE PUSH1 0x4 PUSH2 0x3F91 JUMP JUMPDEST PUSH2 0x52F JUMP JUMPDEST PUSH1 0x40 DUP1 MLOAD SWAP3 DUP4 MSTORE PUSH1 0x20 DUP4 ADD SWAP2 SWAP1 SWAP2 MSTORE ADD JUMPDEST PUSH1 0x40 MLOAD DUP1 SWAP2 SUB SWAP1 RETURN JUMPDEST CALLVALUE DUP1 ISZERO PUSH2 0x219 JUMPI PUSH1 0x0 DUP1 REVERT JUMPDEST POP PUSH2 0x22D PUSH2 0x228 CALLDATASIZE PUSH1 0x4 PUSH2 0x42E1 JUMP JUMPDEST PUSH2 0x645 JUMP JUMPDEST PUSH1 0x40 MLOAD SWAP1 DUP2 MSTORE PUSH1 0x20 ADD PUSH2 0x204 JUMP JUMPDEST CALLVALUE DUP1 ISZERO PUSH2 0x247 JUMPI PUSH1 0x0 DUP1 REVERT JUMPDEST POP PUSH2 0x25B PUSH2 0x256 CALLDATASIZE PUSH1 0x4 PUSH2 0x426E JUMP JUMPDEST PUSH2 0x65A JUMP JUMPDEST PUSH1 0x40 MLOAD PUSH2 0x204 SWAP2 SWAP1 PUSH2 0x4329 JUMP JUMPDEST CALLVALUE DUP1 ISZERO PUSH2 0x274 JUMPI PUSH1 0x0 DUP1 REVERT JUMPDEST POP PUSH2 0x25B PUSH2 0x283 CALLDATASIZE PUSH1 0x4 PUSH2 0x4172 JUMP JUMPDEST PUSH2 0x9D7 JUMP JUMPDEST CALLVALUE DUP1 ISZERO PUSH2 0x294 JUMPI PUSH1 0x0 DUP1 REVERT JUMPDEST POP PUSH2 0x1F3 PUSH2 0x2A3 CALLDATASIZE PUSH1 0x4 PUSH2 0x3E6B JUMP JUMPDEST PUSH2 0xA0B JUMP JUMPDEST CALLVALUE DUP1 ISZERO PUSH2 0x2B4 JUMPI PUSH1 0x0 DUP1 REVERT JUMPDEST POP PUSH2 0x25B PUSH2 0x2C3 CALLDATASIZE PUSH1 0x4 PUSH2 0x426E JUMP JUMPDEST PUSH2 0xAFE JUMP JUMPDEST CALLVALUE DUP1 ISZERO PUSH2 0x2D4 JUMPI PUSH1 0x0 DUP1 REVERT JUMPDEST POP PUSH2 0x25B PUSH2 0x2E3 CALLDATASIZE PUSH1 0x4 PUSH2 0x426E JUMP JUMPDEST PUSH2 0xC3A JUMP JUMPDEST CALLVALUE DUP1 ISZERO PUSH2 0x2F4 JUMPI PUSH1 0x0 DUP1 REVERT JUMPDEST POP PUSH2 0x22D PUSH2 0x303 CALLDATASIZE PUSH1 0x4 PUSH2 0x3FEF JUMP JUMPDEST PUSH2 0xE04 JUMP JUMPDEST CALLVALUE DUP1 ISZERO PUSH2 0x314 JUMPI PUSH1 0x0 DUP1 REVERT JUMPDEST POP PUSH2 0x1CC PUSH2 0x323 CALLDATASIZE PUSH1 0x4 PUSH2 0x426E JUMP JUMPDEST PUSH2 0xF0B JUMP JUMPDEST CALLVALUE DUP1 ISZERO PUSH2 0x334 JUMPI PUSH1 0x0 DUP1 REVERT JUMPDEST POP PUSH2 0x1CC PUSH2 0x343 CALLDATASIZE PUSH1 0x4 PUSH2 0x426E JUMP JUMPDEST PUSH2 0x11A9 JUMP JUMPDEST PUSH2 0x25B PUSH2 0x356 CALLDATASIZE PUSH1 0x4 PUSH2 0x410B JUMP JUMPDEST PUSH2 0x142D JUMP JUMPDEST CALLVALUE DUP1 ISZERO PUSH2 0x367 JUMPI PUSH1 0x0 DUP1 REVERT JUMPDEST POP PUSH2 0x22D PUSH2 0x376 CALLDATASIZE PUSH1 0x4 PUSH2 0x42E1 JUMP JUMPDEST PUSH2 0x17A3 JUMP JUMPDEST CALLVALUE DUP1 ISZERO PUSH2 0x387 JUMPI PUSH1 0x0 DUP1 REVERT JUMPDEST POP PUSH2 0x25B PUSH2 0x396 CALLDATASIZE PUSH1 0x4 PUSH2 0x426E JUMP JUMPDEST PUSH2 0x17B0 JUMP JUMPDEST CALLVALUE DUP1 ISZERO PUSH2 0x3A7 JUMPI PUSH1 0x0 DUP1 REVERT JUMPDEST POP PUSH2 0x3CF PUSH32 0x0 DUP2 JUMP JUMPDEST PUSH1 0x40 MLOAD PUSH1 0x1 PUSH1 0x1 PUSH1 0xA0 SHL SUB SWAP1 SWAP2 AND DUP2 MSTORE PUSH1 0x20 ADD PUSH2 0x204 JUMP JUMPDEST CALLVALUE DUP1 ISZERO PUSH2 0x3F3 JUMPI PUSH1 0x0 DUP1 REVERT JUMPDEST POP PUSH2 0x22D PUSH2 0x402 CALLDATASIZE PUSH1 0x4 PUSH2 0x42E1 JUMP JUMPDEST PUSH2 0x18C9 JUMP JUMPDEST CALLVALUE DUP1 ISZERO PUSH2 0x413 JUMPI PUSH1 0x0 DUP1 REVERT JUMPDEST POP PUSH2 0x22D PUSH2 0x422 CALLDATASIZE PUSH1 0x4 PUSH2 0x3F91 JUMP JUMPDEST PUSH2 0x18D6 JUMP JUMPDEST PUSH2 0x1CC PUSH2 0x435 CALLDATASIZE PUSH1 0x4 PUSH2 0x410B JUMP JUMPDEST PUSH2 0x1A52 JUMP JUMPDEST CALLVALUE DUP1 ISZERO PUSH2 0x446 JUMPI PUSH1 0x0 DUP1 REVERT JUMPDEST POP PUSH2 0x1F3 PUSH2 0x455 CALLDATASIZE PUSH1 0x4 PUSH2 0x3DF9 JUMP JUMPDEST PUSH2 0x1E10 JUMP JUMPDEST CALLVALUE DUP1 ISZERO PUSH2 0x466 JUMPI PUSH1 0x0 DUP1 REVERT JUMPDEST POP PUSH2 0x3CF PUSH32 0x0 DUP2 JUMP JUMPDEST CALLVALUE DUP1 ISZERO PUSH2 0x49A JUMPI PUSH1 0x0 DUP1 REVERT JUMPDEST POP PUSH2 0x25B PUSH2 0x4A9 CALLDATASIZE PUSH1 0x4 PUSH2 0x4172 JUMP JUMPDEST PUSH2 0x208C JUMP JUMPDEST CALLVALUE DUP1 ISZERO PUSH2 0x4BA JUMPI PUSH1 0x0 DUP1 REVERT JUMPDEST POP PUSH2 0x1F3 PUSH2 0x4C9 CALLDATASIZE PUSH1 0x4 PUSH2 0x3FEF JUMP JUMPDEST PUSH2 0x20B9 JUMP JUMPDEST CALLVALUE DUP1 ISZERO PUSH2 0x4DA JUMPI PUSH1 0x0 DUP1 REVERT JUMPDEST POP PUSH2 0x4EE PUSH2 0x4E9 CALLDATASIZE PUSH1 0x4 PUSH2 0x3F15 JUMP JUMPDEST PUSH2 0x21C6 JUMP JUMPDEST PUSH1 0x40 DUP1 MLOAD SWAP4 DUP5 MSTORE PUSH1 0x20 DUP5 ADD SWAP3 SWAP1 SWAP3 MSTORE SWAP1 DUP3 ADD MSTORE PUSH1 0x60 ADD PUSH2 0x204 JUMP JUMPDEST PUSH2 0x4EE PUSH2 0x517 CALLDATASIZE PUSH1 0x4 PUSH2 0x3F91 JUMP JUMPDEST PUSH2 0x22F1 JUMP JUMPDEST PUSH2 0x25B PUSH2 0x52A CALLDATASIZE PUSH1 0x4 PUSH2 0x410B JUMP JUMPDEST PUSH2 0x258C JUMP JUMPDEST PUSH1 0x0 DUP1 DUP3 TIMESTAMP DUP2 LT ISZERO PUSH2 0x576 JUMPI PUSH1 0x40 MLOAD PUSH3 0x461BCD PUSH1 0xE5 SHL DUP2 MSTORE PUSH1 0x20 PUSH1 0x4 DUP3 ADD MSTORE PUSH1 0x16 PUSH1 0x24 DUP3 ADD MSTORE PUSH1 0x0 DUP1 MLOAD PUSH1 0x20 PUSH2 0x4554 DUP4 CODECOPY DUP2 MLOAD SWAP2 MSTORE PUSH1 0x44 DUP3 ADD MSTORE PUSH1 0x64 ADD JUMPDEST PUSH1 0x40 MLOAD DUP1 SWAP2 SUB SWAP1 REVERT JUMPDEST PUSH2 0x5A5 DUP10 PUSH32 0x0 DUP11 DUP11 DUP11 ADDRESS DUP11 PUSH2 0x1E10 JUMP JUMPDEST SWAP1 SWAP4 POP SWAP2 POP PUSH2 0x5B5 DUP10 DUP7 DUP6 PUSH2 0x2976 JUMP JUMPDEST PUSH1 0x40 MLOAD PUSH4 0x2E1A7D4D PUSH1 0xE0 SHL DUP2 MSTORE PUSH1 0x4 DUP2 ADD DUP4 SWAP1 MSTORE PUSH32 0x0 PUSH1 0x1 PUSH1 0x1 PUSH1 0xA0 SHL SUB AND SWAP1 PUSH4 0x2E1A7D4D SWAP1 PUSH1 0x24 ADD PUSH1 0x0 PUSH1 0x40 MLOAD DUP1 DUP4 SUB DUP2 PUSH1 0x0 DUP8 DUP1 EXTCODESIZE ISZERO DUP1 ISZERO PUSH2 0x617 JUMPI PUSH1 0x0 DUP1 REVERT JUMPDEST POP GAS CALL ISZERO DUP1 ISZERO PUSH2 0x62B JUMPI RETURNDATASIZE PUSH1 0x0 DUP1 RETURNDATACOPY RETURNDATASIZE PUSH1 0x0 REVERT JUMPDEST POP POP POP POP PUSH2 0x639 DUP6 DUP4 PUSH2 0x2AA7 JUMP JUMPDEST POP SWAP7 POP SWAP7 SWAP5 POP POP POP POP POP JUMP JUMPDEST PUSH1 0x0 PUSH2 0x652 DUP5 DUP5 DUP5 PUSH2 0x2B8F JUMP JUMPDEST SWAP5 SWAP4 POP POP POP POP JUMP JUMPDEST PUSH1 0x60 DUP2 TIMESTAMP DUP2 LT ISZERO PUSH2 0x69B JUMPI PUSH1 0x40 MLOAD PUSH3 0x461BCD PUSH1 0xE5 SHL DUP2 MSTORE PUSH1 0x20 PUSH1 0x4 DUP3 ADD MSTORE PUSH1 0x16 PUSH1 0x24 DUP3 ADD MSTORE PUSH1 0x0 DUP1 MLOAD PUSH1 0x20 PUSH2 0x4554 DUP4 CODECOPY DUP2 MLOAD SWAP2 MSTORE PUSH1 0x44 DUP3 ADD MSTORE PUSH1 0x64 ADD PUSH2 0x56D JUMP JUMPDEST PUSH1 0x1 PUSH1 0x1 PUSH1 0xA0 SHL SUB PUSH32 0x0 AND DUP7 DUP7 PUSH2 0x6D2 PUSH1 0x1 DUP3 PUSH2 0x4460 JUMP JUMPDEST DUP2 DUP2 LT PUSH2 0x6E1 JUMPI PUSH2 0x6E1 PUSH2 0x4501 JUMP JUMPDEST SWAP1 POP PUSH1 0x20 MUL ADD PUSH1 0x20 DUP2 ADD SWAP1 PUSH2 0x6F6 SWAP2 SWAP1 PUSH2 0x3DBF JUMP JUMPDEST PUSH1 0x1 PUSH1 0x1 PUSH1 0xA0 SHL SUB AND EQ PUSH2 0x74C JUMPI PUSH1 0x40 MLOAD PUSH3 0x461BCD PUSH1 0xE5 SHL DUP2 MSTORE PUSH1 0x20 PUSH1 0x4 DUP3 ADD MSTORE PUSH1 0x1B PUSH1 0x24 DUP3 ADD MSTORE PUSH32 0x466F6F73776170526F757465723A20494E56414C49445F504154480000000000 PUSH1 0x44 DUP3 ADD MSTORE PUSH1 0x64 ADD PUSH2 0x56D JUMP JUMPDEST PUSH2 0x7AA PUSH32 0x0 DUP10 DUP9 DUP9 DUP1 DUP1 PUSH1 0x20 MUL PUSH1 0x20 ADD PUSH1 0x40 MLOAD SWAP1 DUP2 ADD PUSH1 0x40 MSTORE DUP1 SWAP4 SWAP3 SWAP2 SWAP1 DUP2 DUP2 MSTORE PUSH1 0x20 ADD DUP4 DUP4 PUSH1 0x20 MUL DUP1 DUP3 DUP5 CALLDATACOPY PUSH1 0x0 SWAP3 ADD SWAP2 SWAP1 SWAP2 MSTORE POP PUSH2 0x2CAA SWAP3 POP POP POP JUMP JUMPDEST SWAP2 POP DUP7 DUP3 PUSH1 0x1 DUP5 MLOAD PUSH2 0x7BC SWAP2 SWAP1 PUSH2 0x4460 JUMP JUMPDEST DUP2 MLOAD DUP2 LT PUSH2 0x7CC JUMPI PUSH2 0x7CC PUSH2 0x4501 JUMP JUMPDEST PUSH1 0x20 MUL PUSH1 0x20 ADD ADD MLOAD LT ISZERO PUSH2 0x7F2 JUMPI PUSH1 0x40 MLOAD PUSH3 0x461BCD PUSH1 0xE5 SHL DUP2 MSTORE PUSH1 0x4 ADD PUSH2 0x56D SWAP1 PUSH2 0x436D JUMP JUMPDEST PUSH2 0x8B7 DUP7 DUP7 PUSH1 0x0 DUP2 DUP2 LT PUSH2 0x808 JUMPI PUSH2 0x808 PUSH2 0x4501 JUMP JUMPDEST SWAP1 POP PUSH1 0x20 MUL ADD PUSH1 0x20 DUP2 ADD SWAP1 PUSH2 0x81D SWAP2 SWAP1 PUSH2 0x3DBF JUMP JUMPDEST CALLER PUSH2 0x897 PUSH32 0x0 DUP11 DUP11 PUSH1 0x0 DUP2 DUP2 LT PUSH2 0x855 JUMPI PUSH2 0x855 PUSH2 0x4501 JUMP JUMPDEST SWAP1 POP PUSH1 0x20 MUL ADD PUSH1 0x20 DUP2 ADD SWAP1 PUSH2 0x86A SWAP2 SWAP1 PUSH2 0x3DBF JUMP JUMPDEST DUP12 DUP12 PUSH1 0x1 DUP2 DUP2 LT PUSH2 0x87D JUMPI PUSH2 0x87D PUSH2 0x4501 JUMP JUMPDEST SWAP1 POP PUSH1 0x20 MUL ADD PUSH1 0x20 DUP2 ADD SWAP1 PUSH2 0x892 SWAP2 SWAP1 PUSH2 0x3DBF JUMP JUMPDEST PUSH2 0x2E35 JUMP JUMPDEST DUP6 PUSH1 0x0 DUP2 MLOAD DUP2 LT PUSH2 0x8AA JUMPI PUSH2 0x8AA PUSH2 0x4501 JUMP JUMPDEST PUSH1 0x20 MUL PUSH1 0x20 ADD ADD MLOAD PUSH2 0x2F26 JUMP JUMPDEST PUSH2 0x8F6 DUP3 DUP8 DUP8 DUP1 DUP1 PUSH1 0x20 MUL PUSH1 0x20 ADD PUSH1 0x40 MLOAD SWAP1 DUP2 ADD PUSH1 0x40 MSTORE DUP1 SWAP4 SWAP3 SWAP2 SWAP1 DUP2 DUP2 MSTORE PUSH1 0x20 ADD DUP4 DUP4 PUSH1 0x20 MUL DUP1 DUP3 DUP5 CALLDATACOPY PUSH1 0x0 SWAP3 ADD SWAP2 SWAP1 SWAP2 MSTORE POP ADDRESS SWAP3 POP PUSH2 0x3070 SWAP2 POP POP JUMP JUMPDEST PUSH32 0x0 PUSH1 0x1 PUSH1 0x1 PUSH1 0xA0 SHL SUB AND PUSH4 0x2E1A7D4D DUP4 PUSH1 0x1 DUP6 MLOAD PUSH2 0x934 SWAP2 SWAP1 PUSH2 0x4460 JUMP JUMPDEST DUP2 MLOAD DUP2 LT PUSH2 0x944 JUMPI PUSH2 0x944 PUSH2 0x4501 JUMP JUMPDEST PUSH1 0x20 MUL PUSH1 0x20 ADD ADD MLOAD PUSH1 0x40 MLOAD DUP3 PUSH4 0xFFFFFFFF AND PUSH1 0xE0 SHL DUP2 MSTORE PUSH1 0x4 ADD PUSH2 0x96A SWAP2 DUP2 MSTORE PUSH1 0x20 ADD SWAP1 JUMP JUMPDEST PUSH1 0x0 PUSH1 0x40 MLOAD DUP1 DUP4 SUB DUP2 PUSH1 0x0 DUP8 DUP1 EXTCODESIZE ISZERO DUP1 ISZERO PUSH2 0x984 JUMPI PUSH1 0x0 DUP1 REVERT JUMPDEST POP GAS CALL ISZERO DUP1 ISZERO PUSH2 0x998 JUMPI RETURNDATASIZE PUSH1 0x0 DUP1 RETURNDATACOPY RETURNDATASIZE PUSH1 0x0 REVERT JUMPDEST POP POP POP POP PUSH2 0x9CC DUP5 DUP4 PUSH1 0x1 DUP6 MLOAD PUSH2 0x9AF SWAP2 SWAP1 PUSH2 0x4460 JUMP JUMPDEST DUP2 MLOAD DUP2 LT PUSH2 0x9BF JUMPI PUSH2 0x9BF PUSH2 0x4501 JUMP JUMPDEST PUSH1 0x20 MUL PUSH1 0x20 ADD ADD MLOAD PUSH2 0x2AA7 JUMP JUMPDEST POP SWAP7 SWAP6 POP POP POP POP POP POP JUMP JUMPDEST PUSH1 0x60 PUSH2 0xA04 PUSH32 0x0 DUP5 DUP5 PUSH2 0x3278 JUMP JUMPDEST SWAP4 SWAP3 POP POP POP JUMP JUMPDEST PUSH1 0x0 DUP1 PUSH1 0x0 PUSH2 0xA3B PUSH32 0x0 DUP16 DUP16 PUSH2 0x2E35 JUMP JUMPDEST SWAP1 POP PUSH1 0x0 DUP8 PUSH2 0xA4A JUMPI DUP13 PUSH2 0xA4E JUMP JUMPDEST PUSH1 0x0 NOT JUMPDEST PUSH1 0x40 MLOAD PUSH4 0xD505ACCF PUSH1 0xE0 SHL DUP2 MSTORE CALLER PUSH1 0x4 DUP3 ADD MSTORE ADDRESS PUSH1 0x24 DUP3 ADD MSTORE PUSH1 0x44 DUP2 ADD DUP3 SWAP1 MSTORE PUSH1 0x64 DUP2 ADD DUP12 SWAP1 MSTORE PUSH1 0xFF DUP10 AND PUSH1 0x84 DUP3 ADD MSTORE PUSH1 0xA4 DUP2 ADD DUP9 SWAP1 MSTORE PUSH1 0xC4 DUP2 ADD DUP8 SWAP1 MSTORE SWAP1 SWAP2 POP PUSH1 0x1 PUSH1 0x1 PUSH1 0xA0 SHL SUB DUP4 AND SWAP1 PUSH4 0xD505ACCF SWAP1 PUSH1 0xE4 ADD PUSH1 0x0 PUSH1 0x40 MLOAD DUP1 DUP4 SUB DUP2 PUSH1 0x0 DUP8 DUP1 EXTCODESIZE ISZERO DUP1 ISZERO PUSH2 0xABD JUMPI PUSH1 0x0 DUP1 REVERT JUMPDEST POP GAS CALL ISZERO DUP1 ISZERO PUSH2 0xAD1 JUMPI RETURNDATASIZE PUSH1 0x0 DUP1 RETURNDATACOPY RETURNDATASIZE PUSH1 0x0 REVERT JUMPDEST POP POP POP POP PUSH2 0xAE4 DUP16 DUP16 DUP16 DUP16 DUP16 DUP16 DUP16 PUSH2 0x1E10 JUMP JUMPDEST DUP1 SWAP5 POP DUP2 SWAP6 POP POP POP POP POP SWAP12 POP SWAP12 SWAP10 POP POP POP POP POP POP POP POP POP POP JUMP JUMPDEST PUSH1 0x60 DUP2 TIMESTAMP DUP2 LT ISZERO PUSH2 0xB3F JUMPI PUSH1 0x40 MLOAD PUSH3 0x461BCD PUSH1 0xE5 SHL DUP2 MSTORE PUSH1 0x20 PUSH1 0x4 DUP3 ADD MSTORE PUSH1 0x16 PUSH1 0x24 DUP3 ADD MSTORE PUSH1 0x0 DUP1 MLOAD PUSH1 0x20 PUSH2 0x4554 DUP4 CODECOPY DUP2 MLOAD SWAP2 MSTORE PUSH1 0x44 DUP3 ADD MSTORE PUSH1 0x64 ADD PUSH2 0x56D JUMP JUMPDEST PUSH2 0xB9D PUSH32 0x0 DUP10 DUP9 DUP9 DUP1 DUP1 PUSH1 0x20 MUL PUSH1 0x20 ADD PUSH1 0x40 MLOAD SWAP1 DUP2 ADD PUSH1 0x40 MSTORE DUP1 SWAP4 SWAP3 SWAP2 SWAP1 DUP2 DUP2 MSTORE PUSH1 0x20 ADD DUP4 DUP4 PUSH1 0x20 MUL DUP1 DUP3 DUP5 CALLDATACOPY PUSH1 0x0 SWAP3 ADD SWAP2 SWAP1 SWAP2 MSTORE POP PUSH2 0x2CAA SWAP3 POP POP POP JUMP JUMPDEST SWAP2 POP DUP7 DUP3 PUSH1 0x1 DUP5 MLOAD PUSH2 0xBAF SWAP2 SWAP1 PUSH2 0x4460 JUMP JUMPDEST DUP2 MLOAD DUP2 LT PUSH2 0xBBF JUMPI PUSH2 0xBBF PUSH2 0x4501 JUMP JUMPDEST PUSH1 0x20 MUL PUSH1 0x20 ADD ADD MLOAD LT ISZERO PUSH2 0xBE5 JUMPI PUSH1 0x40 MLOAD PUSH3 0x461BCD PUSH1 0xE5 SHL DUP2 MSTORE PUSH1 0x4 ADD PUSH2 0x56D SWAP1 PUSH2 0x436D JUMP JUMPDEST PUSH2 0xBFB DUP7 DUP7 PUSH1 0x0 DUP2 DUP2 LT PUSH2 0x808 JUMPI PUSH2 0x808 PUSH2 0x4501 JUMP JUMPDEST PUSH2 0x9CC DUP3 DUP8 DUP8 DUP1 DUP1 PUSH1 0x20 MUL PUSH1 0x20 ADD PUSH1 0x40 MLOAD SWAP1 DUP2 ADD PUSH1 0x40 MSTORE DUP1 SWAP4 SWAP3 SWAP2 SWAP1 DUP2 DUP2 MSTORE PUSH1 0x20 ADD DUP4 DUP4 PUSH1 0x20 MUL DUP1 DUP3 DUP5 CALLDATACOPY PUSH1 0x0 SWAP3 ADD SWAP2 SWAP1 SWAP2 MSTORE POP DUP10 SWAP3 POP PUSH2 0x3070 SWAP2 POP POP JUMP JUMPDEST PUSH1 0x60 DUP2 TIMESTAMP DUP2 LT ISZERO PUSH2 0xC7B JUMPI PUSH1 0x40 MLOAD PUSH3 0x461BCD PUSH1 0xE5 SHL DUP2 MSTORE PUSH1 0x20 PUSH1 0x4 DUP3 ADD MSTORE PUSH1 0x16 PUSH1 0x24 DUP3 ADD MSTORE PUSH1 0x0 DUP1 MLOAD PUSH1 0x20 PUSH2 0x4554 DUP4 CODECOPY DUP2 MLOAD SWAP2 MSTORE PUSH1 0x44 DUP3 ADD MSTORE PUSH1 0x64 ADD PUSH2 0x56D JUMP JUMPDEST PUSH1 0x1 PUSH1 0x1 PUSH1 0xA0 SHL SUB PUSH32 0x0 AND DUP7 DUP7 PUSH2 0xCB2 PUSH1 0x1 DUP3 PUSH2 0x4460 JUMP JUMPDEST DUP2 DUP2 LT PUSH2 0xCC1 JUMPI PUSH2 0xCC1 PUSH2 0x4501 JUMP JUMPDEST SWAP1 POP PUSH1 0x20 MUL ADD PUSH1 0x20 DUP2 ADD SWAP1 PUSH2 0xCD6 SWAP2 SWAP1 PUSH2 0x3DBF JUMP JUMPDEST PUSH1 0x1 PUSH1 0x1 PUSH1 0xA0 SHL SUB AND EQ PUSH2 0xD2C JUMPI PUSH1 0x40 MLOAD PUSH3 0x461BCD PUSH1 0xE5 SHL DUP2 MSTORE PUSH1 0x20 PUSH1 0x4 DUP3 ADD MSTORE PUSH1 0x1B PUSH1 0x24 DUP3 ADD MSTORE PUSH32 0x466F6F73776170526F757465723A20494E56414C49445F504154480000000000 PUSH1 0x44 DUP3 ADD MSTORE PUSH1 0x64 ADD PUSH2 0x56D JUMP JUMPDEST PUSH2 0xD8A PUSH32 0x0 DUP10 DUP9 DUP9 DUP1 DUP1 PUSH1 0x20 MUL PUSH1 0x20 ADD PUSH1 0x40 MLOAD SWAP1 DUP2 ADD PUSH1 0x40 MSTORE DUP1 SWAP4 SWAP3 SWAP2 SWAP1 DUP2 DUP2 MSTORE PUSH1 0x20 ADD DUP4 DUP4 PUSH1 0x20 MUL DUP1 DUP3 DUP5 CALLDATACOPY PUSH1 0x0 SWAP3 ADD SWAP2 SWAP1 SWAP2 MSTORE POP PUSH2 0x3278 SWAP3 POP POP POP JUMP JUMPDEST SWAP2 POP DUP7 DUP3 PUSH1 0x0 DUP2 MLOAD DUP2 LT PUSH2 0xDA0 JUMPI PUSH2 0xDA0 PUSH2 0x4501 JUMP JUMPDEST PUSH1 0x20 MUL PUSH1 0x20 ADD ADD MLOAD GT ISZERO PUSH2 0x7F2 JUMPI PUSH1 0x40 MLOAD PUSH3 0x461BCD PUSH1 0xE5 SHL DUP2 MSTORE PUSH1 0x20 PUSH1 0x4 DUP3 ADD MSTORE PUSH1 0x25 PUSH1 0x24 DUP3 ADD MSTORE PUSH32 0x466F6F73776170526F757465723A204558434553534956455F494E5055545F41 PUSH1 0x44 DUP3 ADD MSTORE PUSH5 0x1353D55395 PUSH1 0xDA SHL PUSH1 0x64 DUP3 ADD MSTORE PUSH1 0x84 ADD PUSH2 0x56D JUMP JUMPDEST PUSH1 0x0 DUP1 PUSH2 0xE52 PUSH32 0x0 DUP14 PUSH32 0x0 PUSH2 0x2E35 JUMP JUMPDEST SWAP1 POP PUSH1 0x0 DUP7 PUSH2 0xE61 JUMPI DUP12 PUSH2 0xE65 JUMP JUMPDEST PUSH1 0x0 NOT JUMPDEST PUSH1 0x40 MLOAD PUSH4 0xD505ACCF PUSH1 0xE0 SHL DUP2 MSTORE CALLER PUSH1 0x4 DUP3 ADD MSTORE ADDRESS PUSH1 0x24 DUP3 ADD MSTORE PUSH1 0x44 DUP2 ADD DUP3 SWAP1 MSTORE PUSH1 0x64 DUP2 ADD DUP11 SWAP1 MSTORE PUSH1 0xFF DUP9 AND PUSH1 0x84 DUP3 ADD MSTORE PUSH1 0xA4 DUP2 ADD DUP8 SWAP1 MSTORE PUSH1 0xC4 DUP2 ADD DUP7 SWAP1 MSTORE SWAP1 SWAP2 POP PUSH1 0x1 PUSH1 0x1 PUSH1 0xA0 SHL SUB DUP4 AND SWAP1 PUSH4 0xD505ACCF SWAP1 PUSH1 0xE4 ADD PUSH1 0x0 PUSH1 0x40 MLOAD DUP1 DUP4 SUB DUP2 PUSH1 0x0 DUP8 DUP1 EXTCODESIZE ISZERO DUP1 ISZERO PUSH2 0xED4 JUMPI PUSH1 0x0 DUP1 REVERT JUMPDEST POP GAS CALL ISZERO DUP1 ISZERO PUSH2 0xEE8 JUMPI RETURNDATASIZE PUSH1 0x0 DUP1 RETURNDATACOPY RETURNDATASIZE PUSH1 0x0 REVERT JUMPDEST POP POP POP POP PUSH2 0xEFA DUP14 DUP14 DUP14 DUP14 DUP14 DUP14 PUSH2 0x18D6 JUMP JUMPDEST SWAP14 SWAP13 POP POP POP POP POP POP POP POP POP POP POP POP POP JUMP JUMPDEST DUP1 TIMESTAMP DUP2 LT ISZERO PUSH2 0xF4A JUMPI PUSH1 0x40 MLOAD PUSH3 0x461BCD PUSH1 0xE5 SHL DUP2 MSTORE PUSH1 0x20 PUSH1 0x4 DUP3 ADD MSTORE PUSH1 0x16 PUSH1 0x24 DUP3 ADD MSTORE PUSH1 0x0 DUP1 MLOAD PUSH1 0x20 PUSH2 0x4554 DUP4 CODECOPY DUP2 MLOAD SWAP2 MSTORE PUSH1 0x44 DUP3 ADD MSTORE PUSH1 0x64 ADD PUSH2 0x56D JUMP JUMPDEST PUSH2 0xFDB DUP6 DUP6 PUSH1 0x0 DUP2 DUP2 LT PUSH2 0xF60 JUMPI PUSH2 0xF60 PUSH2 0x4501 JUMP JUMPDEST SWAP1 POP PUSH1 0x20 MUL ADD PUSH1 0x20 DUP2 ADD SWAP1 PUSH2 0xF75 SWAP2 SWAP1 PUSH2 0x3DBF JUMP JUMPDEST CALLER PUSH2 0xFD5 PUSH32 0x0 DUP10 DUP10 PUSH1 0x0 DUP2 DUP2 LT PUSH2 0xFAD JUMPI PUSH2 0xFAD PUSH2 0x4501 JUMP JUMPDEST SWAP1 POP PUSH1 0x20 MUL ADD PUSH1 0x20 DUP2 ADD SWAP1 PUSH2 0xFC2 SWAP2 SWAP1 PUSH2 0x3DBF JUMP JUMPDEST DUP11 DUP11 PUSH1 0x1 DUP2 DUP2 LT PUSH2 0x87D JUMPI PUSH2 0x87D PUSH2 0x4501 JUMP JUMPDEST DUP11 PUSH2 0x2F26 JUMP JUMPDEST PUSH1 0x0 DUP6 DUP6 PUSH2 0xFEA PUSH1 0x1 DUP3 PUSH2 0x4460 JUMP JUMPDEST DUP2 DUP2 LT PUSH2 0xFF9 JUMPI PUSH2 0xFF9 PUSH2 0x4501 JUMP JUMPDEST SWAP1 POP PUSH1 0x20 MUL ADD PUSH1 0x20 DUP2 ADD SWAP1 PUSH2 0x100E SWAP2 SWAP1 PUSH2 0x3DBF JUMP JUMPDEST PUSH1 0x40 MLOAD PUSH4 0x70A08231 PUSH1 0xE0 SHL DUP2 MSTORE PUSH1 0x1 PUSH1 0x1 PUSH1 0xA0 SHL SUB DUP7 DUP2 AND PUSH1 0x4 DUP4 ADD MSTORE SWAP2 SWAP1 SWAP2 AND SWAP1 PUSH4 0x70A08231 SWAP1 PUSH1 0x24 ADD PUSH1 0x20 PUSH1 0x40 MLOAD DUP1 DUP4 SUB DUP2 DUP7 DUP1 EXTCODESIZE ISZERO DUP1 ISZERO PUSH2 0x1051 JUMPI PUSH1 0x0 DUP1 REVERT JUMPDEST POP GAS STATICCALL ISZERO DUP1 ISZERO PUSH2 0x1065 JUMPI RETURNDATASIZE PUSH1 0x0 DUP1 RETURNDATACOPY RETURNDATASIZE PUSH1 0x0 REVERT JUMPDEST POP POP POP POP PUSH1 0x40 MLOAD RETURNDATASIZE PUSH1 0x1F NOT PUSH1 0x1F DUP3 ADD AND DUP3 ADD DUP1 PUSH1 0x40 MSTORE POP DUP2 ADD SWAP1 PUSH2 0x1089 SWAP2 SWAP1 PUSH2 0x40F2 JUMP JUMPDEST SWAP1 POP PUSH2 0x10C9 DUP7 DUP7 DUP1 DUP1 PUSH1 0x20 MUL PUSH1 0x20 ADD PUSH1 0x40 MLOAD SWAP1 DUP2 ADD PUSH1 0x40 MSTORE DUP1 SWAP4 SWAP3 SWAP2 SWAP1 DUP2 DUP2 MSTORE PUSH1 0x20 ADD DUP4 DUP4 PUSH1 0x20 MUL DUP1 DUP3 DUP5 CALLDATACOPY PUSH1 0x0 SWAP3 ADD SWAP2 SWAP1 SWAP2 MSTORE POP DUP9 SWAP3 POP PUSH2 0x33F9 SWAP2 POP POP JUMP JUMPDEST DUP7 PUSH2 0x1181 DUP3 DUP9 DUP9 PUSH2 0x10DB PUSH1 0x1 DUP3 PUSH2 0x4460 JUMP JUMPDEST DUP2 DUP2 LT PUSH2 0x10EA JUMPI PUSH2 0x10EA PUSH2 0x4501 JUMP JUMPDEST SWAP1 POP PUSH1 0x20 MUL ADD PUSH1 0x20 DUP2 ADD SWAP1 PUSH2 0x10FF SWAP2 SWAP1 PUSH2 0x3DBF JUMP JUMPDEST PUSH1 0x40 MLOAD PUSH4 0x70A08231 PUSH1 0xE0 SHL DUP2 MSTORE PUSH1 0x1 PUSH1 0x1 PUSH1 0xA0 SHL SUB DUP10 DUP2 AND PUSH1 0x4 DUP4 ADD MSTORE SWAP2 SWAP1 SWAP2 AND SWAP1 PUSH4 0x70A08231 SWAP1 PUSH1 0x24 ADD JUMPDEST PUSH1 0x20 PUSH1 0x40 MLOAD DUP1 DUP4 SUB DUP2 DUP7 DUP1 EXTCODESIZE ISZERO DUP1 ISZERO PUSH2 0x1143 JUMPI PUSH1 0x0 DUP1 REVERT JUMPDEST POP GAS STATICCALL ISZERO DUP1 ISZERO PUSH2 0x1157 JUMPI RETURNDATASIZE PUSH1 0x0 DUP1 RETURNDATACOPY RETURNDATASIZE PUSH1 0x0 REVERT JUMPDEST POP POP POP POP PUSH1 0x40 MLOAD RETURNDATASIZE PUSH1 0x1F NOT PUSH1 0x1F DUP3 ADD AND DUP3 ADD DUP1 PUSH1 0x40 MSTORE POP DUP2 ADD SWAP1 PUSH2 0x117B SWAP2 SWAP1 PUSH2 0x40F2 JUMP JUMPDEST SWAP1 PUSH2 0x36A1 JUMP JUMPDEST LT ISZERO PUSH2 0x119F JUMPI PUSH1 0x40 MLOAD PUSH3 0x461BCD PUSH1 0xE5 SHL DUP2 MSTORE PUSH1 0x4 ADD PUSH2 0x56D SWAP1 PUSH2 0x436D JUMP JUMPDEST POP POP POP POP POP POP POP POP JUMP JUMPDEST DUP1 TIMESTAMP DUP2 LT ISZERO PUSH2 0x11E8 JUMPI PUSH1 0x40 MLOAD PUSH3 0x461BCD PUSH1 0xE5 SHL DUP2 MSTORE PUSH1 0x20 PUSH1 0x4 DUP3 ADD MSTORE PUSH1 0x16 PUSH1 0x24 DUP3 ADD MSTORE PUSH1 0x0 DUP1 MLOAD PUSH1 0x20 PUSH2 0x4554 DUP4 CODECOPY DUP2 MLOAD SWAP2 MSTORE PUSH1 0x44 DUP3 ADD MSTORE PUSH1 0x64 ADD PUSH2 0x56D JUMP JUMPDEST PUSH1 0x1 PUSH1 0x1 PUSH1 0xA0 SHL SUB PUSH32 0x0 AND DUP6 DUP6 PUSH2 0x121F PUSH1 0x1 DUP3 PUSH2 0x4460 JUMP JUMPDEST DUP2 DUP2 LT PUSH2 0x122E JUMPI PUSH2 0x122E PUSH2 0x4501 JUMP JUMPDEST SWAP1 POP PUSH1 0x20 MUL ADD PUSH1 0x20 DUP2 ADD SWAP1 PUSH2 0x1243 SWAP2 SWAP1 PUSH2 0x3DBF JUMP JUMPDEST PUSH1 0x1 PUSH1 0x1 PUSH1 0xA0 SHL SUB AND EQ PUSH2 0x1299 JUMPI PUSH1 0x40 MLOAD PUSH3 0x461BCD PUSH1 0xE5 SHL DUP2 MSTORE PUSH1 0x20 PUSH1 0x4 DUP3 ADD MSTORE PUSH1 0x1B PUSH1 0x24 DUP3 ADD MSTORE PUSH32 0x466F6F73776170526F757465723A20494E56414C49445F504154480000000000 PUSH1 0x44 DUP3 ADD MSTORE PUSH1 0x64 ADD PUSH2 0x56D JUMP JUMPDEST PUSH2 0x12AF DUP6 DUP6 PUSH1 0x0 DUP2 DUP2 LT PUSH2 0xF60 JUMPI PUSH2 0xF60 PUSH2 0x4501 JUMP JUMPDEST PUSH2 0x12ED DUP6 DUP6 DUP1 DUP1 PUSH1 0x20 MUL PUSH1 0x20 ADD PUSH1 0x40 MLOAD SWAP1 DUP2 ADD PUSH1 0x40 MSTORE DUP1 SWAP4 SWAP3 SWAP2 SWAP1 DUP2 DUP2 MSTORE PUSH1 0x20 ADD DUP4 DUP4 PUSH1 0x20 MUL DUP1 DUP3 DUP5 CALLDATACOPY PUSH1 0x0 SWAP3 ADD SWAP2 SWAP1 SWAP2 MSTORE POP ADDRESS SWAP3 POP PUSH2 0x33F9 SWAP2 POP POP JUMP JUMPDEST PUSH1 0x40 MLOAD PUSH4 0x70A08231 PUSH1 0xE0 SHL DUP2 MSTORE ADDRESS PUSH1 0x4 DUP3 ADD MSTORE PUSH1 0x0 SWAP1 PUSH32 0x0 PUSH1 0x1 PUSH1 0x1 PUSH1 0xA0 SHL SUB AND SWAP1 PUSH4 0x70A08231 SWAP1 PUSH1 0x24 ADD PUSH1 0x20 PUSH1 0x40 MLOAD DUP1 DUP4 SUB DUP2 DUP7 DUP1 EXTCODESIZE ISZERO DUP1 ISZERO PUSH2 0x134F JUMPI PUSH1 0x0 DUP1 REVERT JUMPDEST POP GAS STATICCALL ISZERO DUP1 ISZERO PUSH2 0x1363 JUMPI RETURNDATASIZE PUSH1 0x0 DUP1 RETURNDATACOPY RETURNDATASIZE PUSH1 0x0 REVERT JUMPDEST POP POP POP POP PUSH1 0x40 MLOAD RETURNDATASIZE PUSH1 0x1F NOT PUSH1 0x1F DUP3 ADD AND DUP3 ADD DUP1 PUSH1 0x40 MSTORE POP DUP2 ADD SWAP1 PUSH2 0x1387 SWAP2 SWAP1 PUSH2 0x40F2 JUMP JUMPDEST SWAP1 POP DUP7 DUP2 LT ISZERO PUSH2 0x13A9 JUMPI PUSH1 0x40 MLOAD PUSH3 0x461BCD PUSH1 0xE5 SHL DUP2 MSTORE PUSH1 0x4 ADD PUSH2 0x56D SWAP1 PUSH2 0x436D JUMP JUMPDEST PUSH1 0x40 MLOAD PUSH4 0x2E1A7D4D PUSH1 0xE0 SHL DUP2 MSTORE PUSH1 0x4 DUP2 ADD DUP3 SWAP1 MSTORE PUSH32 0x0 PUSH1 0x1 PUSH1 0x1 PUSH1 0xA0 SHL SUB AND SWAP1 PUSH4 0x2E1A7D4D SWAP1 PUSH1 0x24 ADD PUSH1 0x0 PUSH1 0x40 MLOAD DUP1 DUP4 SUB DUP2 PUSH1 0x0 DUP8 DUP1 EXTCODESIZE ISZERO DUP1 ISZERO PUSH2 0x140B JUMPI PUSH1 0x0 DUP1 REVERT JUMPDEST POP GAS CALL ISZERO DUP1 ISZERO PUSH2 0x141F JUMPI RETURNDATASIZE PUSH1 0x0 DUP1 RETURNDATACOPY RETURNDATASIZE PUSH1 0x0 REVERT JUMPDEST POP POP POP POP PUSH2 0x119F DUP5 DUP3 PUSH2 0x2AA7 JUMP JUMPDEST PUSH1 0x60 DUP2 TIMESTAMP DUP2 LT ISZERO PUSH2 0x146E JUMPI PUSH1 0x40 MLOAD PUSH3 0x461BCD PUSH1 0xE5 SHL DUP2 MSTORE PUSH1 0x20 PUSH1 0x4 DUP3 ADD MSTORE PUSH1 0x16 PUSH1 0x24 DUP3 ADD MSTORE PUSH1 0x0 DUP1 MLOAD PUSH1 0x20 PUSH2 0x4554 DUP4 CODECOPY DUP2 MLOAD SWAP2 MSTORE PUSH1 0x44 DUP3 ADD MSTORE PUSH1 0x64 ADD PUSH2 0x56D JUMP JUMPDEST PUSH32 0x0 PUSH1 0x1 PUSH1 0x1 PUSH1 0xA0 SHL SUB AND DUP7 DUP7 PUSH1 0x0 DUP2 DUP2 LT PUSH2 0x14AB JUMPI PUSH2 0x14AB PUSH2 0x4501 JUMP JUMPDEST SWAP1 POP PUSH1 0x20 MUL ADD PUSH1 0x20 DUP2 ADD SWAP1 PUSH2 0x14C0 SWAP2 SWAP1 PUSH2 0x3DBF JUMP JUMPDEST PUSH1 0x1 PUSH1 0x1 PUSH1 0xA0 SHL SUB AND EQ PUSH2 0x1516 JUMPI PUSH1 0x40 MLOAD PUSH3 0x461BCD PUSH1 0xE5 SHL DUP2 MSTORE PUSH1 0x20 PUSH1 0x4 DUP3 ADD MSTORE PUSH1 0x1B PUSH1 0x24 DUP3 ADD MSTORE PUSH32 0x466F6F73776170526F757465723A20494E56414C49445F504154480000000000 PUSH1 0x44 DUP3 ADD MSTORE PUSH1 0x64 ADD PUSH2 0x56D JUMP JUMPDEST PUSH2 0x1574 PUSH32 0x0 CALLVALUE DUP9 DUP9 DUP1 DUP1 PUSH1 0x20 MUL PUSH1 0x20 ADD PUSH1 0x40 MLOAD SWAP1 DUP2 ADD PUSH1 0x40 MSTORE DUP1 SWAP4 SWAP3 SWAP2 SWAP1 DUP2 DUP2 MSTORE PUSH1 0x20 ADD DUP4 DUP4 PUSH1 0x20 MUL DUP1 DUP3 DUP5 CALLDATACOPY PUSH1 0x0 SWAP3 ADD SWAP2 SWAP1 SWAP2 MSTORE POP PUSH2 0x2CAA SWAP3 POP POP POP JUMP JUMPDEST SWAP2 POP DUP7 DUP3 PUSH1 0x1 DUP5 MLOAD PUSH2 0x1586 SWAP2 SWAP1 PUSH2 0x4460 JUMP JUMPDEST DUP2 MLOAD DUP2 LT PUSH2 0x1596 JUMPI PUSH2 0x1596 PUSH2 0x4501 JUMP JUMPDEST PUSH1 0x20 MUL PUSH1 0x20 ADD ADD MLOAD LT ISZERO PUSH2 0x15BC JUMPI PUSH1 0x40 MLOAD PUSH3 0x461BCD PUSH1 0xE5 SHL DUP2 MSTORE PUSH1 0x4 ADD PUSH2 0x56D SWAP1 PUSH2 0x436D JUMP JUMPDEST PUSH32 0x0 PUSH1 0x1 PUSH1 0x1 PUSH1 0xA0 SHL SUB AND PUSH4 0xD0E30DB0 DUP4 PUSH1 0x0 DUP2 MLOAD DUP2 LT PUSH2 0x15FE JUMPI PUSH2 0x15FE PUSH2 0x4501 JUMP JUMPDEST PUSH1 0x20 MUL PUSH1 0x20 ADD ADD MLOAD PUSH1 0x40 MLOAD DUP3 PUSH4 0xFFFFFFFF AND PUSH1 0xE0 SHL DUP2 MSTORE PUSH1 0x4 ADD PUSH1 0x0 PUSH1 0x40 MLOAD DUP1 DUP4 SUB DUP2 DUP6 DUP9 DUP1 EXTCODESIZE ISZERO DUP1 ISZERO PUSH2 0x1631 JUMPI PUSH1 0x0 DUP1 REVERT JUMPDEST POP GAS CALL ISZERO DUP1 ISZERO PUSH2 0x1645 JUMPI RETURNDATASIZE PUSH1 0x0 DUP1 RETURNDATACOPY RETURNDATASIZE PUSH1 0x0 REVERT JUMPDEST POP POP POP POP POP PUSH32 0x0 PUSH1 0x1 PUSH1 0x1 PUSH1 0xA0 SHL SUB AND PUSH4 0xA9059CBB PUSH2 0x16B0 PUSH32 0x0 DUP10 DUP10 PUSH1 0x0 DUP2 DUP2 LT PUSH2 0xFAD JUMPI PUSH2 0xFAD PUSH2 0x4501 JUMP JUMPDEST DUP5 PUSH1 0x0 DUP2 MLOAD DUP2 LT PUSH2 0x16C3 JUMPI PUSH2 0x16C3 PUSH2 0x4501 JUMP JUMPDEST PUSH1 0x20 MUL PUSH1 0x20 ADD ADD MLOAD PUSH1 0x40 MLOAD DUP4 PUSH4 0xFFFFFFFF AND PUSH1 0xE0 SHL DUP2 MSTORE PUSH1 0x4 ADD PUSH2 0x16FC SWAP3 SWAP2 SWAP1 PUSH1 0x1 PUSH1 0x1 PUSH1 0xA0 SHL SUB SWAP3 SWAP1 SWAP3 AND DUP3 MSTORE PUSH1 0x20 DUP3 ADD MSTORE PUSH1 0x40 ADD SWAP1 JUMP JUMPDEST PUSH1 0x20 PUSH1 0x40 MLOAD DUP1 DUP4 SUB DUP2 PUSH1 0x0 DUP8 DUP1 EXTCODESIZE ISZERO DUP1 ISZERO PUSH2 0x1716 JUMPI PUSH1 0x0 DUP1 REVERT JUMPDEST POP GAS CALL ISZERO DUP1 ISZERO PUSH2 0x172A JUMPI RETURNDATASIZE PUSH1 0x0 DUP1 RETURNDATACOPY RETURNDATASIZE PUSH1 0x0 REVERT JUMPDEST POP POP POP POP PUSH1 0x40 MLOAD RETURNDATASIZE PUSH1 0x1F NOT PUSH1 0x1F DUP3 ADD AND DUP3 ADD DUP1 PUSH1 0x40 MSTORE POP DUP2 ADD SWAP1 PUSH2 0x174E SWAP2 SWAP1 PUSH2 0x4085 JUMP JUMPDEST PUSH2 0x175A JUMPI PUSH2 0x175A PUSH2 0x44D5 JUMP JUMPDEST PUSH2 0x1799 DUP3 DUP8 DUP8 DUP1 DUP1 PUSH1 0x20 MUL PUSH1 0x20 ADD PUSH1 0x40 MLOAD SWAP1 DUP2 ADD PUSH1 0x40 MSTORE DUP1 SWAP4 SWAP3 SWAP2 SWAP1 DUP2 DUP2 MSTORE PUSH1 0x20 ADD DUP4 DUP4 PUSH1 0x20 MUL DUP1 DUP3 DUP5 CALLDATACOPY PUSH1 0x0 SWAP3 ADD SWAP2 SWAP1 SWAP2 MSTORE POP DUP10 SWAP3 POP PUSH2 0x3070 SWAP2 POP POP JUMP JUMPDEST POP SWAP6 SWAP5 POP POP POP POP POP JUMP JUMPDEST PUSH1 0x0 PUSH2 0x652 DUP5 DUP5 DUP5 PUSH2 0x36AD JUMP JUMPDEST PUSH1 0x60 DUP2 TIMESTAMP DUP2 LT ISZERO PUSH2 0x17F1 JUMPI PUSH1 0x40 MLOAD PUSH3 0x461BCD PUSH1 0xE5 SHL DUP2 MSTORE PUSH1 0x20 PUSH1 0x4 DUP3 ADD MSTORE PUSH1 0x16 PUSH1 0x24 DUP3 ADD MSTORE PUSH1 0x0 DUP1 MLOAD PUSH1 0x20 PUSH2 0x4554 DUP4 CODECOPY DUP2 MLOAD SWAP2 MSTORE PUSH1 0x44 DUP3 ADD MSTORE PUSH1 0x64 ADD PUSH2 0x56D JUMP JUMPDEST PUSH2 0x184F PUSH32 0x0 DUP10 DUP9 DUP9 DUP1 DUP1 PUSH1 0x20 MUL PUSH1 0x20 ADD PUSH1 0x40 MLOAD SWAP1 DUP2 ADD PUSH1 0x40 MSTORE DUP1 SWAP4 SWAP3 SWAP2 SWAP1 DUP2 DUP2 MSTORE PUSH1 0x20 ADD DUP4 DUP4 PUSH1 0x20 MUL DUP1 DUP3 DUP5 CALLDATACOPY PUSH1 0x0 SWAP3 ADD SWAP2 SWAP1 SWAP2 MSTORE POP PUSH2 0x3278 SWAP3 POP POP POP JUMP JUMPDEST SWAP2 POP DUP7 DUP3 PUSH1 0x0 DUP2 MLOAD DUP2 LT PUSH2 0x1865 JUMPI PUSH2 0x1865 PUSH2 0x4501 JUMP JUMPDEST PUSH1 0x20 MUL PUSH1 0x20 ADD ADD MLOAD GT ISZERO PUSH2 0xBE5 JUMPI PUSH1 0x40 MLOAD PUSH3 0x461BCD PUSH1 0xE5 SHL DUP2 MSTORE PUSH1 0x20 PUSH1 0x4 DUP3 ADD MSTORE PUSH1 0x25 PUSH1 0x24 DUP3 ADD MSTORE PUSH32 0x466F6F73776170526F757465723A204558434553534956455F494E5055545F41 PUSH1 0x44 DUP3 ADD MSTORE PUSH5 0x1353D55395 PUSH1 0xDA SHL PUSH1 0x64 DUP3 ADD MSTORE PUSH1 0x84 ADD PUSH2 0x56D JUMP JUMPDEST PUSH1 0x0 PUSH2 0x652 DUP5 DUP5 DUP5 PUSH2 0x37C3 JUMP JUMPDEST PUSH1 0x0 DUP2 TIMESTAMP DUP2 LT ISZERO PUSH2 0x1917 JUMPI PUSH1 0x40 MLOAD PUSH3 0x461BCD PUSH1 0xE5 SHL DUP2 MSTORE PUSH1 0x20 PUSH1 0x4 DUP3 ADD MSTORE PUSH1 0x16 PUSH1 0x24 DUP3 ADD MSTORE PUSH1 0x0 DUP1 MLOAD PUSH1 0x20 PUSH2 0x4554 DUP4 CODECOPY DUP2 MLOAD SWAP2 MSTORE PUSH1 0x44 DUP3 ADD MSTORE PUSH1 0x64 ADD PUSH2 0x56D JUMP JUMPDEST PUSH2 0x1946 DUP9 PUSH32 0x0 DUP10 DUP10 DUP10 ADDRESS DUP10 PUSH2 0x1E10 JUMP JUMPDEST PUSH1 0x40 MLOAD PUSH4 0x70A08231 PUSH1 0xE0 SHL DUP2 MSTORE ADDRESS PUSH1 0x4 DUP3 ADD MSTORE SWAP1 SWAP4 POP PUSH2 0x19CE SWAP2 POP DUP10 SWAP1 DUP7 SWAP1 PUSH1 0x1 PUSH1 0x1 PUSH1 0xA0 SHL SUB DUP4 AND SWAP1 PUSH4 0x70A08231 SWAP1 PUSH1 0x24 ADD PUSH1 0x20 PUSH1 0x40 MLOAD DUP1 DUP4 SUB DUP2 DUP7 DUP1 EXTCODESIZE ISZERO DUP1 ISZERO PUSH2 0x1991 JUMPI PUSH1 0x0 DUP1 REVERT JUMPDEST POP GAS STATICCALL ISZERO DUP1 ISZERO PUSH2 0x19A5 JUMPI RETURNDATASIZE PUSH1 0x0 DUP1 RETURNDATACOPY RETURNDATASIZE PUSH1 0x0 REVERT JUMPDEST POP POP POP POP PUSH1 0x40 MLOAD RETURNDATASIZE PUSH1 0x1F NOT PUSH1 0x1F DUP3 ADD AND DUP3 ADD DUP1 PUSH1 0x40 MSTORE POP DUP2 ADD SWAP1 PUSH2 0x19C9 SWAP2 SWAP1 PUSH2 0x40F2 JUMP JUMPDEST PUSH2 0x2976 JUMP JUMPDEST PUSH1 0x40 MLOAD PUSH4 0x2E1A7D4D PUSH1 0xE0 SHL DUP2 MSTORE PUSH1 0x4 DUP2 ADD DUP4 SWAP1 MSTORE PUSH32 0x0 PUSH1 0x1 PUSH1 0x1 PUSH1 0xA0 SHL SUB AND SWAP1 PUSH4 0x2E1A7D4D SWAP1 PUSH1 0x24 ADD PUSH1 0x0 PUSH1 0x40 MLOAD DUP1 DUP4 SUB DUP2 PUSH1 0x0 DUP8 DUP1 EXTCODESIZE ISZERO DUP1 ISZERO PUSH2 0x1A30 JUMPI PUSH1 0x0 DUP1 REVERT JUMPDEST POP GAS CALL ISZERO DUP1 ISZERO PUSH2 0x1A44 JUMPI RETURNDATASIZE PUSH1 0x0 DUP1 RETURNDATACOPY RETURNDATASIZE PUSH1 0x0 REVERT JUMPDEST POP POP POP POP PUSH2 0x9CC DUP5 DUP4 PUSH2 0x2AA7 JUMP JUMPDEST DUP1 TIMESTAMP DUP2 LT ISZERO PUSH2 0x1A91 JUMPI PUSH1 0x40 MLOAD PUSH3 0x461BCD PUSH1 0xE5 SHL DUP2 MSTORE PUSH1 0x20 PUSH1 0x4 DUP3 ADD MSTORE PUSH1 0x16 PUSH1 0x24 DUP3 ADD MSTORE PUSH1 0x0 DUP1 MLOAD PUSH1 0x20 PUSH2 0x4554 DUP4 CODECOPY DUP2 MLOAD SWAP2 MSTORE PUSH1 0x44 DUP3 ADD MSTORE PUSH1 0x64 ADD PUSH2 0x56D JUMP JUMPDEST PUSH32 0x0 PUSH1 0x1 PUSH1 0x1 PUSH1 0xA0 SHL SUB AND DUP6 DUP6 PUSH1 0x0 DUP2 DUP2 LT PUSH2 0x1ACE JUMPI PUSH2 0x1ACE PUSH2 0x4501 JUMP JUMPDEST SWAP1 POP PUSH1 0x20 MUL ADD PUSH1 0x20 DUP2 ADD SWAP1 PUSH2 0x1AE3 SWAP2 SWAP1 PUSH2 0x3DBF JUMP JUMPDEST PUSH1 0x1 PUSH1 0x1 PUSH1 0xA0 SHL SUB AND EQ PUSH2 0x1B39 JUMPI PUSH1 0x40 MLOAD PUSH3 0x461BCD PUSH1 0xE5 SHL DUP2 MSTORE PUSH1 0x20 PUSH1 0x4 DUP3 ADD MSTORE PUSH1 0x1B PUSH1 0x24 DUP3 ADD MSTORE PUSH32 0x466F6F73776170526F757465723A20494E56414C49445F504154480000000000 PUSH1 0x44 DUP3 ADD MSTORE PUSH1 0x64 ADD PUSH2 0x56D JUMP JUMPDEST PUSH1 0x0 CALLVALUE SWAP1 POP PUSH32 0x0 PUSH1 0x1 PUSH1 0x1 PUSH1 0xA0 SHL SUB AND PUSH4 0xD0E30DB0 DUP3 PUSH1 0x40 MLOAD DUP3 PUSH4 0xFFFFFFFF AND PUSH1 0xE0 SHL DUP2 MSTORE PUSH1 0x4 ADD PUSH1 0x0 PUSH1 0x40 MLOAD DUP1 DUP4 SUB DUP2 DUP6 DUP9 DUP1 EXTCODESIZE ISZERO DUP1 ISZERO PUSH2 0x1B99 JUMPI PUSH1 0x0 DUP1 REVERT JUMPDEST POP GAS CALL ISZERO DUP1 ISZERO PUSH2 0x1BAD JUMPI RETURNDATASIZE PUSH1 0x0 DUP1 RETURNDATACOPY RETURNDATASIZE PUSH1 0x0 REVERT JUMPDEST POP POP POP POP POP PUSH32 0x0 PUSH1 0x1 PUSH1 0x1 PUSH1 0xA0 SHL SUB AND PUSH4 0xA9059CBB PUSH2 0x1C18 PUSH32 0x0 DUP10 DUP10 PUSH1 0x0 DUP2 DUP2 LT PUSH2 0xFAD JUMPI PUSH2 0xFAD PUSH2 0x4501 JUMP JUMPDEST PUSH1 0x40 MLOAD PUSH32 0xFFFFFFFF00000000000000000000000000000000000000000000000000000000 PUSH1 0xE0 DUP5 SWAP1 SHL AND DUP2 MSTORE PUSH1 0x1 PUSH1 0x1 PUSH1 0xA0 SHL SUB SWAP1 SWAP2 AND PUSH1 0x4 DUP3 ADD MSTORE PUSH1 0x24 DUP2 ADD DUP5 SWAP1 MSTORE PUSH1 0x44 ADD PUSH1 0x20 PUSH1 0x40 MLOAD DUP1 DUP4 SUB DUP2 PUSH1 0x0 DUP8 DUP1 EXTCODESIZE ISZERO DUP1 ISZERO PUSH2 0x1C78 JUMPI PUSH1 0x0 DUP1 REVERT JUMPDEST POP GAS CALL ISZERO DUP1 ISZERO PUSH2 0x1C8C JUMPI RETURNDATASIZE PUSH1 0x0 DUP1 RETURNDATACOPY RETURNDATASIZE PUSH1 0x0 REVERT JUMPDEST POP POP POP POP PUSH1 0x40 MLOAD RETURNDATASIZE PUSH1 0x1F NOT PUSH1 0x1F DUP3 ADD AND DUP3 ADD DUP1 PUSH1 0x40 MSTORE POP DUP2 ADD SWAP1 PUSH2 0x1CB0 SWAP2 SWAP1 PUSH2 0x4085 JUMP JUMPDEST PUSH2 0x1CBC JUMPI PUSH2 0x1CBC PUSH2 0x44D5 JUMP JUMPDEST PUSH1 0x0 DUP7 DUP7 PUSH2 0x1CCB PUSH1 0x1 DUP3 PUSH2 0x4460 JUMP JUMPDEST DUP2 DUP2 LT PUSH2 0x1CDA JUMPI PUSH2 0x1CDA PUSH2 0x4501 JUMP JUMPDEST SWAP1 POP PUSH1 0x20 MUL ADD PUSH1 0x20 DUP2 ADD SWAP1 PUSH2 0x1CEF SWAP2 SWAP1 PUSH2 0x3DBF JUMP JUMPDEST PUSH1 0x40 MLOAD PUSH4 0x70A08231 PUSH1 0xE0 SHL DUP2 MSTORE PUSH1 0x1 PUSH1 0x1 PUSH1 0xA0 SHL SUB DUP8 DUP2 AND PUSH1 0x4 DUP4 ADD MSTORE SWAP2 SWAP1 SWAP2 AND SWAP1 PUSH4 0x70A08231 SWAP1 PUSH1 0x24 ADD PUSH1 0x20 PUSH1 0x40 MLOAD DUP1 DUP4 SUB DUP2 DUP7 DUP1 EXTCODESIZE ISZERO DUP1 ISZERO PUSH2 0x1D32 JUMPI PUSH1 0x0 DUP1 REVERT JUMPDEST POP GAS STATICCALL ISZERO DUP1 ISZERO PUSH2 0x1D46 JUMPI RETURNDATASIZE PUSH1 0x0 DUP1 RETURNDATACOPY RETURNDATASIZE PUSH1 0x0 REVERT JUMPDEST POP POP POP POP PUSH1 0x40 MLOAD RETURNDATASIZE PUSH1 0x1F NOT PUSH1 0x1F DUP3 ADD AND DUP3 ADD DUP1 PUSH1 0x40 MSTORE POP DUP2 ADD SWAP1 PUSH2 0x1D6A SWAP2 SWAP1 PUSH2 0x40F2 JUMP JUMPDEST SWAP1 POP PUSH2 0x1DAA DUP8 DUP8 DUP1 DUP1 PUSH1 0x20 MUL PUSH1 0x20 ADD PUSH1 0x40 MLOAD SWAP1 DUP2 ADD PUSH1 0x40 MSTORE DUP1 SWAP4 SWAP3 SWAP2 SWAP1 DUP2 DUP2 MSTORE PUSH1 0x20 ADD DUP4 DUP4 PUSH1 0x20 MUL DUP1 DUP3 DUP5 CALLDATACOPY PUSH1 0x0 SWAP3 ADD SWAP2 SWAP1 SWAP2 MSTORE POP DUP10 SWAP3 POP PUSH2 0x33F9 SWAP2 POP POP JUMP JUMPDEST DUP8 PUSH2 0x1181 DUP3 DUP10 DUP10 PUSH2 0x1DBC PUSH1 0x1 DUP3 PUSH2 0x4460 JUMP JUMPDEST DUP2 DUP2 LT PUSH2 0x1DCB JUMPI PUSH2 0x1DCB PUSH2 0x4501 JUMP JUMPDEST SWAP1 POP PUSH1 0x20 MUL ADD PUSH1 0x20 DUP2 ADD SWAP1 PUSH2 0x1DE0 SWAP2 SWAP1 PUSH2 0x3DBF JUMP JUMPDEST PUSH1 0x40 MLOAD PUSH4 0x70A08231 PUSH1 0xE0 SHL DUP2 MSTORE PUSH1 0x1 PUSH1 0x1 PUSH1 0xA0 SHL SUB DUP11 DUP2 AND PUSH1 0x4 DUP4 ADD MSTORE SWAP2 SWAP1 SWAP2 AND SWAP1 PUSH4 0x70A08231 SWAP1 PUSH1 0x24 ADD PUSH2 0x112B JUMP JUMPDEST PUSH1 0x0 DUP1 DUP3 TIMESTAMP DUP2 LT ISZERO PUSH2 0x1E52 JUMPI PUSH1 0x40 MLOAD PUSH3 0x461BCD PUSH1 0xE5 SHL DUP2 MSTORE PUSH1 0x20 PUSH1 0x4 DUP3 ADD MSTORE PUSH1 0x16 PUSH1 0x24 DUP3 ADD MSTORE PUSH1 0x0 DUP1 MLOAD PUSH1 0x20 PUSH2 0x4554 DUP4 CODECOPY DUP2 MLOAD SWAP2 MSTORE PUSH1 0x44 DUP3 ADD MSTORE PUSH1 0x64 ADD PUSH2 0x56D JUMP JUMPDEST PUSH1 0x0 PUSH2 0x1E7F PUSH32 0x0 DUP13 DUP13 PUSH2 0x2E35 JUMP JUMPDEST PUSH1 0x40 MLOAD PUSH4 0x23B872DD PUSH1 0xE0 SHL DUP2 MSTORE CALLER PUSH1 0x4 DUP3 ADD MSTORE PUSH1 0x1 PUSH1 0x1 PUSH1 0xA0 SHL SUB DUP3 AND PUSH1 0x24 DUP3 ADD DUP2 SWAP1 MSTORE PUSH1 0x44 DUP3 ADD DUP13 SWAP1 MSTORE SWAP2 SWAP3 POP PUSH4 0x23B872DD SWAP1 PUSH1 0x64 ADD PUSH1 0x20 PUSH1 0x40 MLOAD DUP1 DUP4 SUB DUP2 PUSH1 0x0 DUP8 DUP1 EXTCODESIZE ISZERO DUP1 ISZERO PUSH2 0x1ED0 JUMPI PUSH1 0x0 DUP1 REVERT JUMPDEST POP GAS CALL ISZERO DUP1 ISZERO PUSH2 0x1EE4 JUMPI RETURNDATASIZE PUSH1 0x0 DUP1 RETURNDATACOPY RETURNDATASIZE PUSH1 0x0 REVERT JUMPDEST POP POP POP POP PUSH1 0x40 MLOAD RETURNDATASIZE PUSH1 0x1F NOT PUSH1 0x1F DUP3 ADD AND DUP3 ADD DUP1 PUSH1 0x40 MSTORE POP DUP2 ADD SWAP1 PUSH2 0x1F08 SWAP2 SWAP1 PUSH2 0x4085 JUMP JUMPDEST POP PUSH1 0x40 MLOAD PUSH4 0x226BF2D1 PUSH1 0xE2 SHL DUP2 MSTORE PUSH1 0x1 PUSH1 0x1 PUSH1 0xA0 SHL SUB DUP8 DUP2 AND PUSH1 0x4 DUP4 ADD MSTORE PUSH1 0x0 SWAP2 DUP3 SWAP2 DUP5 AND SWAP1 PUSH4 0x89AFCB44 SWAP1 PUSH1 0x24 ADD PUSH1 0x40 DUP1 MLOAD DUP1 DUP4 SUB DUP2 PUSH1 0x0 DUP8 DUP1 EXTCODESIZE ISZERO DUP1 ISZERO PUSH2 0x1F50 JUMPI PUSH1 0x0 DUP1 REVERT JUMPDEST POP GAS CALL ISZERO DUP1 ISZERO PUSH2 0x1F64 JUMPI RETURNDATASIZE PUSH1 0x0 DUP1 RETURNDATACOPY RETURNDATASIZE PUSH1 0x0 REVERT JUMPDEST POP POP POP POP PUSH1 0x40 MLOAD RETURNDATASIZE PUSH1 0x1F NOT PUSH1 0x1F DUP3 ADD AND DUP3 ADD DUP1 PUSH1 0x40 MSTORE POP DUP2 ADD SWAP1 PUSH2 0x1F88 SWAP2 SWAP1 PUSH2 0x424A JUMP JUMPDEST SWAP2 POP SWAP2 POP PUSH1 0x0 PUSH2 0x1F98 DUP15 DUP15 PUSH2 0x38A0 JUMP JUMPDEST POP SWAP1 POP DUP1 PUSH1 0x1 PUSH1 0x1 PUSH1 0xA0 SHL SUB AND DUP15 PUSH1 0x1 PUSH1 0x1 PUSH1 0xA0 SHL SUB AND EQ PUSH2 0x1FBB JUMPI DUP2 DUP4 PUSH2 0x1FBE JUMP JUMPDEST DUP3 DUP3 JUMPDEST SWAP1 SWAP8 POP SWAP6 POP DUP11 DUP8 LT ISZERO PUSH2 0x201F JUMPI PUSH1 0x40 MLOAD PUSH3 0x461BCD PUSH1 0xE5 SHL DUP2 MSTORE PUSH1 0x20 PUSH1 0x4 DUP3 ADD MSTORE PUSH1 0x24 DUP1 DUP3 ADD MSTORE PUSH32 0x466F6F73776170526F757465723A20494E53554646494349454E545F415F414D PUSH1 0x44 DUP3 ADD MSTORE PUSH4 0x13D55395 PUSH1 0xE2 SHL PUSH1 0x64 DUP3 ADD MSTORE PUSH1 0x84 ADD PUSH2 0x56D JUMP JUMPDEST DUP10 DUP7 LT ISZERO PUSH2 0x207B JUMPI PUSH1 0x40 MLOAD PUSH3 0x461BCD PUSH1 0xE5 SHL DUP2 MSTORE PUSH1 0x20 PUSH1 0x4 DUP3 ADD MSTORE PUSH1 0x24 DUP1 DUP3 ADD MSTORE PUSH32 0x466F6F73776170526F757465723A20494E53554646494349454E545F425F414D PUSH1 0x44 DUP3 ADD MSTORE PUSH4 0x13D55395 PUSH1 0xE2 SHL PUSH1 0x64 DUP3 ADD MSTORE PUSH1 0x84 ADD PUSH2 0x56D JUMP JUMPDEST POP POP POP POP POP SWAP8 POP SWAP8 SWAP6 POP POP POP POP POP POP JUMP JUMPDEST PUSH1 0x60 PUSH2 0xA04 PUSH32 0x0 DUP5 DUP5 PUSH2 0x2CAA JUMP JUMPDEST PUSH1 0x0 DUP1 PUSH1 0x0 PUSH2 0x2109 PUSH32 0x0 DUP15 PUSH32 0x0 PUSH2 0x2E35 JUMP JUMPDEST SWAP1 POP PUSH1 0x0 DUP8 PUSH2 0x2118 JUMPI DUP13 PUSH2 0x211C JUMP JUMPDEST PUSH1 0x0 NOT JUMPDEST PUSH1 0x40 MLOAD PUSH4 0xD505ACCF PUSH1 0xE0 SHL DUP2 MSTORE CALLER PUSH1 0x4 DUP3 ADD MSTORE ADDRESS PUSH1 0x24 DUP3 ADD MSTORE PUSH1 0x44 DUP2 ADD DUP3 SWAP1 MSTORE PUSH1 0x64 DUP2 ADD DUP12 SWAP1 MSTORE PUSH1 0xFF DUP10 AND PUSH1 0x84 DUP3 ADD MSTORE PUSH1 0xA4 DUP2 ADD DUP9 SWAP1 MSTORE PUSH1 0xC4 DUP2 ADD DUP8 SWAP1 MSTORE SWAP1 SWAP2 POP PUSH1 0x1 PUSH1 0x1 PUSH1 0xA0 SHL SUB DUP4 AND SWAP1 PUSH4 0xD505ACCF SWAP1 PUSH1 0xE4 ADD PUSH1 0x0 PUSH1 0x40 MLOAD DUP1 DUP4 SUB DUP2 PUSH1 0x0 DUP8 DUP1 EXTCODESIZE ISZERO DUP1 ISZERO PUSH2 0x218B JUMPI PUSH1 0x0 DUP1 REVERT JUMPDEST POP GAS CALL ISZERO DUP1 ISZERO PUSH2 0x219F JUMPI RETURNDATASIZE PUSH1 0x0 DUP1 RETURNDATACOPY RETURNDATASIZE PUSH1 0x0 REVERT JUMPDEST POP POP POP POP PUSH2 0x21B1 DUP15 DUP15 DUP15 DUP15 DUP15 DUP15 PUSH2 0x52F JUMP JUMPDEST SWAP1 SWAP16 SWAP1 SWAP15 POP SWAP13 POP POP POP POP POP POP POP POP POP POP POP POP POP JUMP JUMPDEST PUSH1 0x0 DUP1 PUSH1 0x0 DUP4 TIMESTAMP DUP2 LT ISZERO PUSH2 0x220A JUMPI PUSH1 0x40 MLOAD PUSH3 0x461BCD PUSH1 0xE5 SHL DUP2 MSTORE PUSH1 0x20 PUSH1 0x4 DUP3 ADD MSTORE PUSH1 0x16 PUSH1 0x24 DUP3 ADD MSTORE PUSH1 0x0 DUP1 MLOAD PUSH1 0x20 PUSH2 0x4554 DUP4 CODECOPY DUP2 MLOAD SWAP2 MSTORE PUSH1 0x44 DUP3 ADD MSTORE PUSH1 0x64 ADD PUSH2 0x56D JUMP JUMPDEST PUSH2 0x2218 DUP13 DUP13 DUP13 DUP13 DUP13 DUP13 PUSH2 0x3996 JUMP JUMPDEST SWAP1 SWAP5 POP SWAP3 POP PUSH1 0x0 PUSH2 0x224A PUSH32 0x0 DUP15 DUP15 PUSH2 0x2E35 JUMP JUMPDEST SWAP1 POP PUSH2 0x2258 DUP14 CALLER DUP4 DUP9 PUSH2 0x2F26 JUMP JUMPDEST PUSH2 0x2264 DUP13 CALLER DUP4 DUP8 PUSH2 0x2F26 JUMP JUMPDEST PUSH1 0x40 MLOAD PUSH4 0x35313C21 PUSH1 0xE1 SHL DUP2 MSTORE PUSH1 0x1 PUSH1 0x1 PUSH1 0xA0 SHL SUB DUP9 DUP2 AND PUSH1 0x4 DUP4 ADD MSTORE DUP3 AND SWAP1 PUSH4 0x6A627842 SWAP1 PUSH1 0x24 ADD PUSH1 0x20 PUSH1 0x40 MLOAD DUP1 DUP4 SUB DUP2 PUSH1 0x0 DUP8 DUP1 EXTCODESIZE ISZERO DUP1 ISZERO PUSH2 0x22A7 JUMPI PUSH1 0x0 DUP1 REVERT JUMPDEST POP GAS CALL ISZERO DUP1 ISZERO PUSH2 0x22BB JUMPI RETURNDATASIZE PUSH1 0x0 DUP1 RETURNDATACOPY RETURNDATASIZE PUSH1 0x0 REVERT JUMPDEST POP POP POP POP PUSH1 0x40 MLOAD RETURNDATASIZE PUSH1 0x1F NOT PUSH1 0x1F DUP3 ADD AND DUP3 ADD DUP1 PUSH1 0x40 MSTORE POP DUP2 ADD SWAP1 PUSH2 0x22DF SWAP2 SWAP1 PUSH2 0x40F2 JUMP JUMPDEST SWAP3 POP POP POP SWAP9 POP SWAP9 POP SWAP9 SWAP6 POP POP POP POP POP POP JUMP JUMPDEST PUSH1 0x0 DUP1 PUSH1 0x0 DUP4 TIMESTAMP DUP2 LT ISZERO PUSH2 0x2335 JUMPI PUSH1 0x40 MLOAD PUSH3 0x461BCD PUSH1 0xE5 SHL DUP2 MSTORE PUSH1 0x20 PUSH1 0x4 DUP3 ADD MSTORE PUSH1 0x16 PUSH1 0x24 DUP3 ADD MSTORE PUSH1 0x0 DUP1 MLOAD PUSH1 0x20 PUSH2 0x4554 DUP4 CODECOPY DUP2 MLOAD SWAP2 MSTORE PUSH1 0x44 DUP3 ADD MSTORE PUSH1 0x64 ADD PUSH2 0x56D JUMP JUMPDEST PUSH2 0x2363 DUP11 PUSH32 0x0 DUP12 CALLVALUE DUP13 DUP13 PUSH2 0x3996 JUMP JUMPDEST SWAP1 SWAP5 POP SWAP3 POP PUSH1 0x0 PUSH2 0x23B5 PUSH32 0x0 DUP13 PUSH32 0x0 PUSH2 0x2E35 JUMP JUMPDEST SWAP1 POP PUSH2 0x23C3 DUP12 CALLER DUP4 DUP9 PUSH2 0x2F26 JUMP JUMPDEST PUSH32 0x0 PUSH1 0x1 PUSH1 0x1 PUSH1 0xA0 SHL SUB AND PUSH4 0xD0E30DB0 DUP6 PUSH1 0x40 MLOAD DUP3 PUSH4 0xFFFFFFFF AND PUSH1 0xE0 SHL DUP2 MSTORE PUSH1 0x4 ADD PUSH1 0x0 PUSH1 0x40 MLOAD DUP1 DUP4 SUB DUP2 DUP6 DUP9 DUP1 EXTCODESIZE ISZERO DUP1 ISZERO PUSH2 0x241E JUMPI PUSH1 0x0 DUP1 REVERT JUMPDEST POP GAS CALL ISZERO DUP1 ISZERO PUSH2 0x2432 JUMPI RETURNDATASIZE PUSH1 0x0 DUP1 RETURNDATACOPY RETURNDATASIZE PUSH1 0x0 REVERT JUMPDEST POP POP PUSH1 0x40 MLOAD PUSH4 0xA9059CBB PUSH1 0xE0 SHL DUP2 MSTORE PUSH1 0x1 PUSH1 0x1 PUSH1 0xA0 SHL SUB DUP6 DUP2 AND PUSH1 0x4 DUP4 ADD MSTORE PUSH1 0x24 DUP3 ADD DUP10 SWAP1 MSTORE PUSH32 0x0 AND SWAP4 POP PUSH4 0xA9059CBB SWAP3 POP PUSH1 0x44 ADD SWAP1 POP PUSH1 0x20 PUSH1 0x40 MLOAD DUP1 DUP4 SUB DUP2 PUSH1 0x0 DUP8 DUP1 EXTCODESIZE ISZERO DUP1 ISZERO PUSH2 0x24A2 JUMPI PUSH1 0x0 DUP1 REVERT JUMPDEST POP GAS CALL ISZERO DUP1 ISZERO PUSH2 0x24B6 JUMPI RETURNDATASIZE PUSH1 0x0 DUP1 RETURNDATACOPY RETURNDATASIZE PUSH1 0x0 REVERT JUMPDEST POP POP POP POP PUSH1 0x40 MLOAD RETURNDATASIZE PUSH1 0x1F NOT PUSH1 0x1F DUP3 ADD AND DUP3 ADD DUP1 PUSH1 0x40 MSTORE POP DUP2 ADD SWAP1 PUSH2 0x24DA SWAP2 SWAP1 PUSH2 0x4085 JUMP JUMPDEST PUSH2 0x24E6 JUMPI PUSH2 0x24E6 PUSH2 0x44D5 JUMP JUMPDEST PUSH1 0x40 MLOAD PUSH4 0x35313C21 PUSH1 0xE1 SHL DUP2 MSTORE PUSH1 0x1 PUSH1 0x1 PUSH1 0xA0 SHL SUB DUP9 DUP2 AND PUSH1 0x4 DUP4 ADD MSTORE DUP3 AND SWAP1 PUSH4 0x6A627842 SWAP1 PUSH1 0x24 ADD PUSH1 0x20 PUSH1 0x40 MLOAD DUP1 DUP4 SUB DUP2 PUSH1 0x0 DUP8 DUP1 EXTCODESIZE ISZERO DUP1 ISZERO PUSH2 0x2529 JUMPI PUSH1 0x0 DUP1 REVERT JUMPDEST POP GAS CALL ISZERO DUP1 ISZERO PUSH2 0x253D JUMPI RETURNDATASIZE PUSH1 0x0 DUP1 RETURNDATACOPY RETURNDATASIZE PUSH1 0x0 REVERT JUMPDEST POP POP POP POP PUSH1 0x40 MLOAD RETURNDATASIZE PUSH1 0x1F NOT PUSH1 0x1F DUP3 ADD AND DUP3 ADD DUP1 PUSH1 0x40 MSTORE POP DUP2 ADD SWAP1 PUSH2 0x2561 SWAP2 SWAP1 PUSH2 0x40F2 JUMP JUMPDEST SWAP3 POP DUP4 CALLVALUE GT ISZERO PUSH2 0x257E JUMPI PUSH2 0x257E CALLER PUSH2 0x2579 DUP7 CALLVALUE PUSH2 0x4460 JUMP JUMPDEST PUSH2 0x2AA7 JUMP JUMPDEST POP POP SWAP7 POP SWAP7 POP SWAP7 SWAP4 POP POP POP POP JUMP JUMPDEST PUSH1 0x60 DUP2 TIMESTAMP DUP2 LT ISZERO PUSH2 0x25CD JUMPI PUSH1 0x40 MLOAD PUSH3 0x461BCD PUSH1 0xE5 SHL DUP2 MSTORE PUSH1 0x20 PUSH1 0x4 DUP3 ADD MSTORE PUSH1 0x16 PUSH1 0x24 DUP3 ADD MSTORE PUSH1 0x0 DUP1 MLOAD PUSH1 0x20 PUSH2 0x4554 DUP4 CODECOPY DUP2 MLOAD SWAP2 MSTORE PUSH1 0x44 DUP3 ADD MSTORE PUSH1 0x64 ADD PUSH2 0x56D JUMP JUMPDEST PUSH32 0x0 PUSH1 0x1 PUSH1 0x1 PUSH1 0xA0 SHL SUB AND DUP7 DUP7 PUSH1 0x0 DUP2 DUP2 LT PUSH2 0x260A JUMPI PUSH2 0x260A PUSH2 0x4501 JUMP JUMPDEST SWAP1 POP PUSH1 0x20 MUL ADD PUSH1 0x20 DUP2 ADD SWAP1 PUSH2 0x261F SWAP2 SWAP1 PUSH2 0x3DBF JUMP JUMPDEST PUSH1 0x1 PUSH1 0x1 PUSH1 0xA0 SHL SUB AND EQ PUSH2 0x2675 JUMPI PUSH1 0x40 MLOAD PUSH3 0x461BCD PUSH1 0xE5 SHL DUP2 MSTORE PUSH1 0x20 PUSH1 0x4 DUP3 ADD MSTORE PUSH1 0x1B PUSH1 0x24 DUP3 ADD MSTORE PUSH32 0x466F6F73776170526F757465723A20494E56414C49445F504154480000000000 PUSH1 0x44 DUP3 ADD MSTORE PUSH1 0x64 ADD PUSH2 0x56D JUMP JUMPDEST PUSH2 0x26D3 PUSH32 0x0 DUP9 DUP9 DUP9 DUP1 DUP1 PUSH1 0x20 MUL PUSH1 0x20 ADD PUSH1 0x40 MLOAD SWAP1 DUP2 ADD PUSH1 0x40 MSTORE DUP1 SWAP4 SWAP3 SWAP2 SWAP1 DUP2 DUP2 MSTORE PUSH1 0x20 ADD DUP4 DUP4 PUSH1 0x20 MUL DUP1 DUP3 DUP5 CALLDATACOPY PUSH1 0x0 SWAP3 ADD SWAP2 SWAP1 SWAP2 MSTORE POP PUSH2 0x3278 SWAP3 POP POP POP JUMP JUMPDEST SWAP2 POP CALLVALUE DUP3 PUSH1 0x0 DUP2 MLOAD DUP2 LT PUSH2 0x26E9 JUMPI PUSH2 0x26E9 PUSH2 0x4501 JUMP JUMPDEST PUSH1 0x20 MUL PUSH1 0x20 ADD ADD MLOAD GT ISZERO PUSH2 0x274D JUMPI PUSH1 0x40 MLOAD PUSH3 0x461BCD PUSH1 0xE5 SHL DUP2 MSTORE PUSH1 0x20 PUSH1 0x4 DUP3 ADD MSTORE PUSH1 0x25 PUSH1 0x24 DUP3 ADD MSTORE PUSH32 0x466F6F73776170526F757465723A204558434553534956455F494E5055545F41 PUSH1 0x44 DUP3 ADD MSTORE PUSH5 0x1353D55395 PUSH1 0xDA SHL PUSH1 0x64 DUP3 ADD MSTORE PUSH1 0x84 ADD PUSH2 0x56D JUMP JUMPDEST PUSH32 0x0 PUSH1 0x1 PUSH1 0x1 PUSH1 0xA0 SHL SUB AND PUSH4 0xD0E30DB0 DUP4 PUSH1 0x0 DUP2 MLOAD DUP2 LT PUSH2 0x278F JUMPI PUSH2 0x278F PUSH2 0x4501 JUMP JUMPDEST PUSH1 0x20 MUL PUSH1 0x20 ADD ADD MLOAD PUSH1 0x40 MLOAD DUP3 PUSH4 0xFFFFFFFF AND PUSH1 0xE0 SHL DUP2 MSTORE PUSH1 0x4 ADD PUSH1 0x0 PUSH1 0x40 MLOAD DUP1 DUP4 SUB DUP2 DUP6 DUP9 DUP1 EXTCODESIZE ISZERO DUP1 ISZERO PUSH2 0x27C2 JUMPI PUSH1 0x0 DUP1 REVERT JUMPDEST POP GAS CALL ISZERO DUP1 ISZERO PUSH2 0x27D6 JUMPI RETURNDATASIZE PUSH1 0x0 DUP1 RETURNDATACOPY RETURNDATASIZE PUSH1 0x0 REVERT JUMPDEST POP POP POP POP POP PUSH32 0x0 PUSH1 0x1 PUSH1 0x1 PUSH1 0xA0 SHL SUB AND PUSH4 0xA9059CBB PUSH2 0x2841 PUSH32 0x0 DUP10 DUP10 PUSH1 0x0 DUP2 DUP2 LT PUSH2 0xFAD JUMPI PUSH2 0xFAD PUSH2 0x4501 JUMP JUMPDEST DUP5 PUSH1 0x0 DUP2 MLOAD DUP2 LT PUSH2 0x2854 JUMPI PUSH2 0x2854 PUSH2 0x4501 JUMP JUMPDEST PUSH1 0x20 MUL PUSH1 0x20 ADD ADD MLOAD PUSH1 0x40 MLOAD DUP4 PUSH4 0xFFFFFFFF AND PUSH1 0xE0 SHL DUP2 MSTORE PUSH1 0x4 ADD PUSH2 0x288D SWAP3 SWAP2 SWAP1 PUSH1 0x1 PUSH1 0x1 PUSH1 0xA0 SHL SUB SWAP3 SWAP1 SWAP3 AND DUP3 MSTORE PUSH1 0x20 DUP3 ADD MSTORE PUSH1 0x40 ADD SWAP1 JUMP JUMPDEST PUSH1 0x20 PUSH1 0x40 MLOAD DUP1 DUP4 SUB DUP2 PUSH1 0x0 DUP8 DUP1 EXTCODESIZE ISZERO DUP1 ISZERO PUSH2 0x28A7 JUMPI PUSH1 0x0 DUP1 REVERT JUMPDEST POP GAS CALL ISZERO DUP1 ISZERO PUSH2 0x28BB JUMPI RETURNDATASIZE PUSH1 0x0 DUP1 RETURNDATACOPY RETURNDATASIZE PUSH1 0x0 REVERT JUMPDEST POP POP POP POP PUSH1 0x40 MLOAD RETURNDATASIZE PUSH1 0x1F NOT PUSH1 0x1F DUP3 ADD AND DUP3 ADD DUP1 PUSH1 0x40 MSTORE POP DUP2 ADD SWAP1 PUSH2 0x28DF SWAP2 SWAP1 PUSH2 0x4085 JUMP JUMPDEST PUSH2 0x28EB JUMPI PUSH2 0x28EB PUSH2 0x44D5 JUMP JUMPDEST PUSH2 0x292A DUP3 DUP8 DUP8 DUP1 DUP1 PUSH1 0x20 MUL PUSH1 0x20 ADD PUSH1 0x40 MLOAD SWAP1 DUP2 ADD PUSH1 0x40 MSTORE DUP1 SWAP4 SWAP3 SWAP2 SWAP1 DUP2 DUP2 MSTORE PUSH1 0x20 ADD DUP4 DUP4 PUSH1 0x20 MUL DUP1 DUP3 DUP5 CALLDATACOPY PUSH1 0x0 SWAP3 ADD SWAP2 SWAP1 SWAP2 MSTORE POP DUP10 SWAP3 POP PUSH2 0x3070 SWAP2 POP POP JUMP JUMPDEST DUP2 PUSH1 0x0 DUP2 MLOAD DUP2 LT PUSH2 0x293D JUMPI PUSH2 0x293D PUSH2 0x4501 JUMP JUMPDEST PUSH1 0x20 MUL PUSH1 0x20 ADD ADD MLOAD CALLVALUE GT ISZERO PUSH2 0x1799 JUMPI PUSH2 0x1799 CALLER DUP4 PUSH1 0x0 DUP2 MLOAD DUP2 LT PUSH2 0x2963 JUMPI PUSH2 0x2963 PUSH2 0x4501 JUMP JUMPDEST PUSH1 0x20 MUL PUSH1 0x20 ADD ADD MLOAD CALLVALUE PUSH2 0x2579 SWAP2 SWAP1 PUSH2 0x4460 JUMP JUMPDEST PUSH1 0x40 DUP1 MLOAD PUSH1 0x1 PUSH1 0x1 PUSH1 0xA0 SHL SUB DUP5 DUP2 AND PUSH1 0x24 DUP4 ADD MSTORE PUSH1 0x44 DUP1 DUP4 ADD DUP6 SWAP1 MSTORE DUP4 MLOAD DUP1 DUP5 SUB SWAP1 SWAP2 ADD DUP2 MSTORE PUSH1 0x64 SWAP1 SWAP3 ADD DUP4 MSTORE PUSH1 0x20 DUP3 ADD DUP1 MLOAD PUSH1 0x1 PUSH1 0x1 PUSH1 0xE0 SHL SUB AND PUSH4 0xA9059CBB PUSH1 0xE0 SHL OR SWAP1 MSTORE SWAP2 MLOAD PUSH1 0x0 SWAP3 DUP4 SWAP3 SWAP1 DUP8 AND SWAP2 PUSH2 0x29D2 SWAP2 SWAP1 PUSH2 0x430D JUMP JUMPDEST PUSH1 0x0 PUSH1 0x40 MLOAD DUP1 DUP4 SUB DUP2 PUSH1 0x0 DUP7 GAS CALL SWAP2 POP POP RETURNDATASIZE DUP1 PUSH1 0x0 DUP2 EQ PUSH2 0x2A0F JUMPI PUSH1 0x40 MLOAD SWAP2 POP PUSH1 0x1F NOT PUSH1 0x3F RETURNDATASIZE ADD AND DUP3 ADD PUSH1 0x40 MSTORE RETURNDATASIZE DUP3 MSTORE RETURNDATASIZE PUSH1 0x0 PUSH1 0x20 DUP5 ADD RETURNDATACOPY PUSH2 0x2A14 JUMP JUMPDEST PUSH1 0x60 SWAP2 POP JUMPDEST POP SWAP2 POP SWAP2 POP DUP2 DUP1 ISZERO PUSH2 0x2A3E JUMPI POP DUP1 MLOAD ISZERO DUP1 PUSH2 0x2A3E JUMPI POP DUP1 DUP1 PUSH1 0x20 ADD SWAP1 MLOAD DUP2 ADD SWAP1 PUSH2 0x2A3E SWAP2 SWAP1 PUSH2 0x4085 JUMP JUMPDEST PUSH2 0x2AA0 JUMPI PUSH1 0x40 MLOAD PUSH3 0x461BCD PUSH1 0xE5 SHL DUP2 MSTORE PUSH1 0x20 PUSH1 0x4 DUP3 ADD MSTORE PUSH1 0x2D PUSH1 0x24 DUP3 ADD MSTORE PUSH32 0x5472616E7366657248656C7065723A3A736166655472616E736665723A207472 PUSH1 0x44 DUP3 ADD MSTORE PUSH13 0x185B9CD9995C8819985A5B1959 PUSH1 0x9A SHL PUSH1 0x64 DUP3 ADD MSTORE PUSH1 0x84 ADD PUSH2 0x56D JUMP JUMPDEST POP POP POP POP POP JUMP JUMPDEST PUSH1 0x40 DUP1 MLOAD PUSH1 0x0 DUP1 DUP3 MSTORE PUSH1 0x20 DUP3 ADD SWAP1 SWAP3 MSTORE PUSH1 0x1 PUSH1 0x1 PUSH1 0xA0 SHL SUB DUP5 AND SWAP1 DUP4 SWAP1 PUSH1 0x40 MLOAD PUSH2 0x2AD1 SWAP2 SWAP1 PUSH2 0x430D JUMP JUMPDEST PUSH1 0x0 PUSH1 0x40 MLOAD DUP1 DUP4 SUB DUP2 DUP6 DUP8 GAS CALL SWAP3 POP POP POP RETURNDATASIZE DUP1 PUSH1 0x0 DUP2 EQ PUSH2 0x2B0E JUMPI PUSH1 0x40 MLOAD SWAP2 POP PUSH1 0x1F NOT PUSH1 0x3F RETURNDATASIZE ADD AND DUP3 ADD PUSH1 0x40 MSTORE RETURNDATASIZE DUP3 MSTORE RETURNDATASIZE PUSH1 0x0 PUSH1 0x20 DUP5 ADD RETURNDATACOPY PUSH2 0x2B13 JUMP JUMPDEST PUSH1 0x60 SWAP2 POP JUMPDEST POP POP SWAP1 POP DUP1 PUSH2 0x2B8A JUMPI PUSH1 0x40 MLOAD PUSH3 0x461BCD PUSH1 0xE5 SHL DUP2 MSTORE PUSH1 0x20 PUSH1 0x4 DUP3 ADD MSTORE PUSH1 0x34 PUSH1 0x24 DUP3 ADD MSTORE PUSH32 0x5472616E7366657248656C7065723A3A736166655472616E736665724554483A PUSH1 0x44 DUP3 ADD MSTORE PUSH32 0x20455448207472616E73666572206661696C6564000000000000000000000000 PUSH1 0x64 DUP3 ADD MSTORE PUSH1 0x84 ADD PUSH2 0x56D JUMP JUMPDEST POP POP POP JUMP JUMPDEST PUSH1 0x0 DUP1 DUP5 GT PUSH2 0x2BF2 JUMPI PUSH1 0x40 MLOAD PUSH3 0x461BCD PUSH1 0xE5 SHL DUP2 MSTORE PUSH1 0x20 PUSH1 0x4 DUP3 ADD MSTORE PUSH1 0x29 PUSH1 0x24 DUP3 ADD MSTORE PUSH32 0x466F6F737761704C6962726172793A20494E53554646494349454E545F494E50 PUSH1 0x44 DUP3 ADD MSTORE PUSH9 0x155517D05353D55395 PUSH1 0xBA SHL PUSH1 0x64 DUP3 ADD MSTORE PUSH1 0x84 ADD PUSH2 0x56D JUMP JUMPDEST PUSH1 0x0 DUP4 GT DUP1 ISZERO PUSH2 0x2C02 JUMPI POP PUSH1 0x0 DUP3 GT JUMPDEST PUSH2 0x2C5D JUMPI PUSH1 0x40 MLOAD PUSH3 0x461BCD PUSH1 0xE5 SHL DUP2 MSTORE PUSH1 0x20 PUSH1 0x4 DUP3 ADD MSTORE PUSH1 0x26 PUSH1 0x24 DUP3 ADD MSTORE PUSH32 0x466F6F737761704C6962726172793A20494E53554646494349454E545F4C4951 PUSH1 0x44 DUP3 ADD MSTORE PUSH6 0x554944495459 PUSH1 0xD0 SHL PUSH1 0x64 DUP3 ADD MSTORE PUSH1 0x84 ADD PUSH2 0x56D JUMP JUMPDEST PUSH1 0x0 PUSH2 0x2C6B DUP6 PUSH2 0x3E6 PUSH2 0x3C51 JUMP JUMPDEST SWAP1 POP PUSH1 0x0 PUSH2 0x2C79 DUP3 DUP6 PUSH2 0x3C51 JUMP JUMPDEST SWAP1 POP PUSH1 0x0 PUSH2 0x2C93 DUP4 PUSH2 0x2C8D DUP9 PUSH2 0x3E8 PUSH2 0x3C51 JUMP JUMPDEST SWAP1 PUSH2 0x3C5D JUMP JUMPDEST SWAP1 POP PUSH2 0x2C9F DUP2 DUP4 PUSH2 0x441F JUMP JUMPDEST SWAP8 SWAP7 POP POP POP POP POP POP POP JUMP JUMPDEST PUSH1 0x60 PUSH1 0x2 DUP3 MLOAD LT ISZERO PUSH2 0x2CFE JUMPI PUSH1 0x40 MLOAD PUSH3 0x461BCD PUSH1 0xE5 SHL DUP2 MSTORE PUSH1 0x20 PUSH1 0x4 DUP3 ADD MSTORE PUSH1 0x1C PUSH1 0x24 DUP3 ADD MSTORE PUSH32 0x466F6F737761704C6962726172793A20494E56414C49445F5041544800000000 PUSH1 0x44 DUP3 ADD MSTORE PUSH1 0x64 ADD PUSH2 0x56D JUMP JUMPDEST DUP2 MLOAD PUSH8 0xFFFFFFFFFFFFFFFF DUP2 GT ISZERO PUSH2 0x2D18 JUMPI PUSH2 0x2D18 PUSH2 0x4517 JUMP JUMPDEST PUSH1 0x40 MLOAD SWAP1 DUP1 DUP3 MSTORE DUP1 PUSH1 0x20 MUL PUSH1 0x20 ADD DUP3 ADD PUSH1 0x40 MSTORE DUP1 ISZERO PUSH2 0x2D41 JUMPI DUP2 PUSH1 0x20 ADD PUSH1 0x20 DUP3 MUL DUP1 CALLDATASIZE DUP4 CALLDATACOPY ADD SWAP1 POP JUMPDEST POP SWAP1 POP DUP3 DUP2 PUSH1 0x0 DUP2 MLOAD DUP2 LT PUSH2 0x2D58 JUMPI PUSH2 0x2D58 PUSH2 0x4501 JUMP JUMPDEST PUSH1 0x20 MUL PUSH1 0x20 ADD ADD DUP2 DUP2 MSTORE POP POP PUSH1 0x0 JUMPDEST PUSH1 0x1 DUP4 MLOAD PUSH2 0x2D75 SWAP2 SWAP1 PUSH2 0x4460 JUMP JUMPDEST DUP2 LT ISZERO PUSH2 0x2E2D JUMPI PUSH1 0x0 DUP1 PUSH2 0x2DC8 DUP8 DUP7 DUP6 DUP2 MLOAD DUP2 LT PUSH2 0x2D95 JUMPI PUSH2 0x2D95 PUSH2 0x4501 JUMP JUMPDEST PUSH1 0x20 MUL PUSH1 0x20 ADD ADD MLOAD DUP8 DUP7 PUSH1 0x1 PUSH2 0x2DAB SWAP2 SWAP1 PUSH2 0x4407 JUMP JUMPDEST DUP2 MLOAD DUP2 LT PUSH2 0x2DBB JUMPI PUSH2 0x2DBB PUSH2 0x4501 JUMP JUMPDEST PUSH1 0x20 MUL PUSH1 0x20 ADD ADD MLOAD PUSH2 0x3C69 JUMP JUMPDEST SWAP2 POP SWAP2 POP PUSH2 0x2DF0 DUP5 DUP5 DUP2 MLOAD DUP2 LT PUSH2 0x2DE1 JUMPI PUSH2 0x2DE1 PUSH2 0x4501 JUMP JUMPDEST PUSH1 0x20 MUL PUSH1 0x20 ADD ADD MLOAD DUP4 DUP4 PUSH2 0x2B8F JUMP JUMPDEST DUP5 PUSH2 0x2DFC DUP6 PUSH1 0x1 PUSH2 0x4407 JUMP JUMPDEST DUP2 MLOAD DUP2 LT PUSH2 0x2E0C JUMPI PUSH2 0x2E0C PUSH2 0x4501 JUMP JUMPDEST PUSH1 0x20 MUL PUSH1 0x20 ADD ADD DUP2 DUP2 MSTORE POP POP POP POP DUP1 DUP1 PUSH2 0x2E25 SWAP1 PUSH2 0x44BA JUMP JUMPDEST SWAP2 POP POP PUSH2 0x2D67 JUMP JUMPDEST POP SWAP4 SWAP3 POP POP POP JUMP JUMPDEST PUSH1 0x0 DUP1 PUSH1 0x0 PUSH2 0x2E44 DUP6 DUP6 PUSH2 0x38A0 JUMP JUMPDEST PUSH1 0x40 MLOAD PUSH12 0xFFFFFFFFFFFFFFFFFFFFFFFF NOT PUSH1 0x60 DUP5 DUP2 SHL DUP3 AND PUSH1 0x20 DUP5 ADD MSTORE DUP4 SWAP1 SHL AND PUSH1 0x34 DUP3 ADD MSTORE SWAP2 SWAP4 POP SWAP2 POP DUP7 SWAP1 PUSH1 0x48 ADD PUSH1 0x40 MLOAD PUSH1 0x20 DUP2 DUP4 SUB SUB DUP2 MSTORE SWAP1 PUSH1 0x40 MSTORE DUP1 MLOAD SWAP1 PUSH1 0x20 ADD KECCAK256 PUSH1 0x40 MLOAD PUSH1 0x20 ADD PUSH2 0x2F04 SWAP3 SWAP2 SWAP1 PUSH32 0xFF00000000000000000000000000000000000000000000000000000000000000 DUP2 MSTORE PUSH1 0x60 SWAP3 SWAP1 SWAP3 SHL PUSH12 0xFFFFFFFFFFFFFFFFFFFFFFFF NOT AND PUSH1 0x1 DUP4 ADD MSTORE PUSH1 0x15 DUP3 ADD MSTORE PUSH32 0x39C058A58A33034CF7A1FDC8E6AAC91B8F74BD4A061C9967C7A90AB15147CD14 PUSH1 0x35 DUP3 ADD MSTORE PUSH1 0x55 ADD SWAP1 JUMP JUMPDEST PUSH1 0x40 DUP1 MLOAD PUSH1 0x1F NOT DUP2 DUP5 SUB ADD DUP2 MSTORE SWAP2 SWAP1 MSTORE DUP1 MLOAD PUSH1 0x20 SWAP1 SWAP2 ADD KECCAK256 SWAP7 SWAP6 POP POP POP POP POP POP JUMP JUMPDEST PUSH1 0x40 DUP1 MLOAD PUSH1 0x1 PUSH1 0x1 PUSH1 0xA0 SHL SUB DUP6 DUP2 AND PUSH1 0x24 DUP4 ADD MSTORE DUP5 DUP2 AND PUSH1 0x44 DUP4 ADD MSTORE PUSH1 0x64 DUP1 DUP4 ADD DUP6 SWAP1 MSTORE DUP4 MLOAD DUP1 DUP5 SUB SWAP1 SWAP2 ADD DUP2 MSTORE PUSH1 0x84 SWAP1 SWAP3 ADD DUP4 MSTORE PUSH1 0x20 DUP3 ADD DUP1 MLOAD PUSH1 0x1 PUSH1 0x1 PUSH1 0xE0 SHL SUB AND PUSH4 0x23B872DD PUSH1 0xE0 SHL OR SWAP1 MSTORE SWAP2 MLOAD PUSH1 0x0 SWAP3 DUP4 SWAP3 SWAP1 DUP9 AND SWAP2 PUSH2 0x2F8A SWAP2 SWAP1 PUSH2 0x430D JUMP JUMPDEST PUSH1 0x0 PUSH1 0x40 MLOAD DUP1 DUP4 SUB DUP2 PUSH1 0x0 DUP7 GAS CALL SWAP2 POP POP RETURNDATASIZE DUP1 PUSH1 0x0 DUP2 EQ PUSH2 0x2FC7 JUMPI PUSH1 0x40 MLOAD SWAP2 POP PUSH1 0x1F NOT PUSH1 0x3F RETURNDATASIZE ADD AND DUP3 ADD PUSH1 0x40 MSTORE RETURNDATASIZE DUP3 MSTORE RETURNDATASIZE PUSH1 0x0 PUSH1 0x20 DUP5 ADD RETURNDATACOPY PUSH2 0x2FCC JUMP JUMPDEST PUSH1 0x60 SWAP2 POP JUMPDEST POP SWAP2 POP SWAP2 POP DUP2 DUP1 ISZERO PUSH2 0x2FF6 JUMPI POP DUP1 MLOAD ISZERO DUP1 PUSH2 0x2FF6 JUMPI POP DUP1 DUP1 PUSH1 0x20 ADD SWAP1 MLOAD DUP2 ADD SWAP1 PUSH2 0x2FF6 SWAP2 SWAP1 PUSH2 0x4085 JUMP JUMPDEST PUSH2 0x3068 JUMPI PUSH1 0x40 MLOAD PUSH3 0x461BCD PUSH1 0xE5 SHL DUP2 MSTORE PUSH1 0x20 PUSH1 0x4 DUP3 ADD MSTORE PUSH1 0x31 PUSH1 0x24 DUP3 ADD MSTORE PUSH32 0x5472616E7366657248656C7065723A3A7472616E7366657246726F6D3A207472 PUSH1 0x44 DUP3 ADD MSTORE PUSH32 0x616E7366657246726F6D206661696C6564000000000000000000000000000000 PUSH1 0x64 DUP3 ADD MSTORE PUSH1 0x84 ADD PUSH2 0x56D JUMP JUMPDEST POP POP POP POP POP POP JUMP JUMPDEST PUSH1 0x0 JUMPDEST PUSH1 0x1 DUP4 MLOAD PUSH2 0x3081 SWAP2 SWAP1 PUSH2 0x4460 JUMP JUMPDEST DUP2 LT ISZERO PUSH2 0x3272 JUMPI PUSH1 0x0 DUP1 DUP5 DUP4 DUP2 MLOAD DUP2 LT PUSH2 0x309D JUMPI PUSH2 0x309D PUSH2 0x4501 JUMP JUMPDEST PUSH1 0x20 MUL PUSH1 0x20 ADD ADD MLOAD DUP6 DUP5 PUSH1 0x1 PUSH2 0x30B3 SWAP2 SWAP1 PUSH2 0x4407 JUMP JUMPDEST DUP2 MLOAD DUP2 LT PUSH2 0x30C3 JUMPI PUSH2 0x30C3 PUSH2 0x4501 JUMP JUMPDEST PUSH1 0x20 MUL PUSH1 0x20 ADD ADD MLOAD SWAP2 POP SWAP2 POP PUSH1 0x0 PUSH2 0x30DB DUP4 DUP4 PUSH2 0x38A0 JUMP JUMPDEST POP SWAP1 POP PUSH1 0x0 DUP8 PUSH2 0x30EC DUP7 PUSH1 0x1 PUSH2 0x4407 JUMP JUMPDEST DUP2 MLOAD DUP2 LT PUSH2 0x30FC JUMPI PUSH2 0x30FC PUSH2 0x4501 JUMP JUMPDEST PUSH1 0x20 MUL PUSH1 0x20 ADD ADD MLOAD SWAP1 POP PUSH1 0x0 DUP1 DUP4 PUSH1 0x1 PUSH1 0x1 PUSH1 0xA0 SHL SUB AND DUP7 PUSH1 0x1 PUSH1 0x1 PUSH1 0xA0 SHL SUB AND EQ PUSH2 0x312A JUMPI DUP3 PUSH1 0x0 PUSH2 0x312E JUMP JUMPDEST PUSH1 0x0 DUP4 JUMPDEST SWAP2 POP SWAP2 POP PUSH1 0x0 PUSH1 0x2 DUP11 MLOAD PUSH2 0x3142 SWAP2 SWAP1 PUSH2 0x4460 JUMP JUMPDEST DUP9 LT PUSH2 0x314E JUMPI DUP9 PUSH2 0x319C JUMP JUMPDEST PUSH2 0x319C PUSH32 0x0 DUP8 DUP13 PUSH2 0x317F DUP13 PUSH1 0x2 PUSH2 0x4407 JUMP JUMPDEST DUP2 MLOAD DUP2 LT PUSH2 0x318F JUMPI PUSH2 0x318F PUSH2 0x4501 JUMP JUMPDEST PUSH1 0x20 MUL PUSH1 0x20 ADD ADD MLOAD PUSH2 0x2E35 JUMP JUMPDEST SWAP1 POP PUSH2 0x31C9 PUSH32 0x0 DUP9 DUP9 PUSH2 0x2E35 JUMP JUMPDEST PUSH1 0x1 PUSH1 0x1 PUSH1 0xA0 SHL SUB AND PUSH4 0x22C0D9F DUP5 DUP5 DUP5 PUSH1 0x0 PUSH1 0x40 MLOAD SWAP1 DUP1 DUP3 MSTORE DUP1 PUSH1 0x1F ADD PUSH1 0x1F NOT AND PUSH1 0x20 ADD DUP3 ADD PUSH1 0x40 MSTORE DUP1 ISZERO PUSH2 0x3206 JUMPI PUSH1 0x20 DUP3 ADD DUP2 DUP1 CALLDATASIZE DUP4 CALLDATACOPY ADD SWAP1 POP JUMPDEST POP PUSH1 0x40 MLOAD DUP6 PUSH4 0xFFFFFFFF AND PUSH1 0xE0 SHL DUP2 MSTORE PUSH1 0x4 ADD PUSH2 0x3226 SWAP5 SWAP4 SWAP3 SWAP2 SWAP1 PUSH2 0x43B6 JUMP JUMPDEST PUSH1 0x0 PUSH1 0x40 MLOAD DUP1 DUP4 SUB DUP2 PUSH1 0x0 DUP8 DUP1 EXTCODESIZE ISZERO DUP1 ISZERO PUSH2 0x3240 JUMPI PUSH1 0x0 DUP1 REVERT JUMPDEST POP GAS CALL ISZERO DUP1 ISZERO PUSH2 0x3254 JUMPI RETURNDATASIZE PUSH1 0x0 DUP1 RETURNDATACOPY RETURNDATASIZE PUSH1 0x0 REVERT JUMPDEST POP POP POP POP POP POP POP POP POP POP POP DUP1 DUP1 PUSH2 0x326A SWAP1 PUSH2 0x44BA JUMP JUMPDEST SWAP2 POP POP PUSH2 0x3073 JUMP JUMPDEST POP POP POP POP JUMP JUMPDEST PUSH1 0x60 PUSH1 0x2 DUP3 MLOAD LT ISZERO PUSH2 0x32CC JUMPI PUSH1 0x40 MLOAD PUSH3 0x461BCD PUSH1 0xE5 SHL DUP2 MSTORE PUSH1 0x20 PUSH1 0x4 DUP3 ADD MSTORE PUSH1 0x1C PUSH1 0x24 DUP3 ADD MSTORE PUSH32 0x466F6F737761704C6962726172793A20494E56414C49445F5041544800000000 PUSH1 0x44 DUP3 ADD MSTORE PUSH1 0x64 ADD PUSH2 0x56D JUMP JUMPDEST DUP2 MLOAD PUSH8 0xFFFFFFFFFFFFFFFF DUP2 GT ISZERO PUSH2 0x32E6 JUMPI PUSH2 0x32E6 PUSH2 0x4517 JUMP JUMPDEST PUSH1 0x40 MLOAD SWAP1 DUP1 DUP3 MSTORE DUP1 PUSH1 0x20 MUL PUSH1 0x20 ADD DUP3 ADD PUSH1 0x40 MSTORE DUP1 ISZERO PUSH2 0x330F JUMPI DUP2 PUSH1 0x20 ADD PUSH1 0x20 DUP3 MUL DUP1 CALLDATASIZE DUP4 CALLDATACOPY ADD SWAP1 POP JUMPDEST POP SWAP1 POP DUP3 DUP2 PUSH1 0x1 DUP4 MLOAD PUSH2 0x3322 SWAP2 SWAP1 PUSH2 0x4460 JUMP JUMPDEST DUP2 MLOAD DUP2 LT PUSH2 0x3332 JUMPI PUSH2 0x3332 PUSH2 0x4501 JUMP JUMPDEST PUSH1 0x20 MUL PUSH1 0x20 ADD ADD DUP2 DUP2 MSTORE POP POP PUSH1 0x0 PUSH1 0x1 DUP4 MLOAD PUSH2 0x334E SWAP2 SWAP1 PUSH2 0x4460 JUMP JUMPDEST SWAP1 POP JUMPDEST DUP1 ISZERO PUSH2 0x2E2D JUMPI PUSH1 0x0 DUP1 PUSH2 0x3394 DUP8 DUP7 PUSH2 0x336A PUSH1 0x1 DUP8 PUSH2 0x4460 JUMP JUMPDEST DUP2 MLOAD DUP2 LT PUSH2 0x337A JUMPI PUSH2 0x337A PUSH2 0x4501 JUMP JUMPDEST PUSH1 0x20 MUL PUSH1 0x20 ADD ADD MLOAD DUP8 DUP7 DUP2 MLOAD DUP2 LT PUSH2 0x2DBB JUMPI PUSH2 0x2DBB PUSH2 0x4501 JUMP JUMPDEST SWAP2 POP SWAP2 POP PUSH2 0x33BC DUP5 DUP5 DUP2 MLOAD DUP2 LT PUSH2 0x33AD JUMPI PUSH2 0x33AD PUSH2 0x4501 JUMP JUMPDEST PUSH1 0x20 MUL PUSH1 0x20 ADD ADD MLOAD DUP4 DUP4 PUSH2 0x36AD JUMP JUMPDEST DUP5 PUSH2 0x33C8 PUSH1 0x1 DUP7 PUSH2 0x4460 JUMP JUMPDEST DUP2 MLOAD DUP2 LT PUSH2 0x33D8 JUMPI PUSH2 0x33D8 PUSH2 0x4501 JUMP JUMPDEST PUSH1 0x20 MUL PUSH1 0x20 ADD ADD DUP2 DUP2 MSTORE POP POP POP POP DUP1 DUP1 PUSH2 0x33F1 SWAP1 PUSH2 0x44A3 JUMP JUMPDEST SWAP2 POP POP PUSH2 0x3351 JUMP JUMPDEST PUSH1 0x0 JUMPDEST PUSH1 0x1 DUP4 MLOAD PUSH2 0x340A SWAP2 SWAP1 PUSH2 0x4460 JUMP JUMPDEST DUP2 LT ISZERO PUSH2 0x2B8A JUMPI PUSH1 0x0 DUP1 DUP5 DUP4 DUP2 MLOAD DUP2 LT PUSH2 0x3426 JUMPI PUSH2 0x3426 PUSH2 0x4501 JUMP JUMPDEST PUSH1 0x20 MUL PUSH1 0x20 ADD ADD MLOAD DUP6 DUP5 PUSH1 0x1 PUSH2 0x343C SWAP2 SWAP1 PUSH2 0x4407 JUMP JUMPDEST DUP2 MLOAD DUP2 LT PUSH2 0x344C JUMPI PUSH2 0x344C PUSH2 0x4501 JUMP JUMPDEST PUSH1 0x20 MUL PUSH1 0x20 ADD ADD MLOAD SWAP2 POP SWAP2 POP PUSH1 0x0 PUSH2 0x3464 DUP4 DUP4 PUSH2 0x38A0 JUMP JUMPDEST POP SWAP1 POP PUSH1 0x0 PUSH2 0x3494 PUSH32 0x0 DUP6 DUP6 PUSH2 0x2E35 JUMP JUMPDEST SWAP1 POP PUSH1 0x0 DUP1 PUSH1 0x0 DUP1 DUP5 PUSH1 0x1 PUSH1 0x1 PUSH1 0xA0 SHL SUB AND PUSH4 0x902F1AC PUSH1 0x40 MLOAD DUP2 PUSH4 0xFFFFFFFF AND PUSH1 0xE0 SHL DUP2 MSTORE PUSH1 0x4 ADD PUSH1 0x60 PUSH1 0x40 MLOAD DUP1 DUP4 SUB DUP2 DUP7 DUP1 EXTCODESIZE ISZERO DUP1 ISZERO PUSH2 0x34D5 JUMPI PUSH1 0x0 DUP1 REVERT JUMPDEST POP GAS STATICCALL ISZERO DUP1 ISZERO PUSH2 0x34E9 JUMPI RETURNDATASIZE PUSH1 0x0 DUP1 RETURNDATACOPY RETURNDATASIZE PUSH1 0x0 REVERT JUMPDEST POP POP POP POP PUSH1 0x40 MLOAD RETURNDATASIZE PUSH1 0x1F NOT PUSH1 0x1F DUP3 ADD AND DUP3 ADD DUP1 PUSH1 0x40 MSTORE POP DUP2 ADD SWAP1 PUSH2 0x350D SWAP2 SWAP1 PUSH2 0x40A2 JUMP JUMPDEST POP PUSH1 0x1 PUSH1 0x1 PUSH1 0x70 SHL SUB AND SWAP2 POP PUSH1 0x1 PUSH1 0x1 PUSH1 0x70 SHL SUB AND SWAP2 POP PUSH1 0x0 DUP1 DUP8 PUSH1 0x1 PUSH1 0x1 PUSH1 0xA0 SHL SUB AND DUP11 PUSH1 0x1 PUSH1 0x1 PUSH1 0xA0 SHL SUB AND EQ PUSH2 0x3547 JUMPI DUP3 DUP5 PUSH2 0x354A JUMP JUMPDEST DUP4 DUP4 JUMPDEST PUSH1 0x40 MLOAD PUSH4 0x70A08231 PUSH1 0xE0 SHL DUP2 MSTORE PUSH1 0x1 PUSH1 0x1 PUSH1 0xA0 SHL SUB DUP11 DUP2 AND PUSH1 0x4 DUP4 ADD MSTORE SWAP3 SWAP5 POP SWAP1 SWAP3 POP PUSH2 0x3585 SWAP2 DUP5 SWAP2 SWAP1 DUP14 AND SWAP1 PUSH4 0x70A08231 SWAP1 PUSH1 0x24 ADD PUSH2 0x112B JUMP JUMPDEST SWAP6 POP PUSH2 0x3592 DUP7 DUP4 DUP4 PUSH2 0x2B8F JUMP JUMPDEST SWAP5 POP POP POP POP POP PUSH1 0x0 DUP1 DUP6 PUSH1 0x1 PUSH1 0x1 PUSH1 0xA0 SHL SUB AND DUP9 PUSH1 0x1 PUSH1 0x1 PUSH1 0xA0 SHL SUB AND EQ PUSH2 0x35BC JUMPI DUP3 PUSH1 0x0 PUSH2 0x35C0 JUMP JUMPDEST PUSH1 0x0 DUP4 JUMPDEST SWAP2 POP SWAP2 POP PUSH1 0x0 PUSH1 0x2 DUP13 MLOAD PUSH2 0x35D4 SWAP2 SWAP1 PUSH2 0x4460 JUMP JUMPDEST DUP11 LT PUSH2 0x35E0 JUMPI DUP11 PUSH2 0x3611 JUMP JUMPDEST PUSH2 0x3611 PUSH32 0x0 DUP10 DUP15 PUSH2 0x317F DUP15 PUSH1 0x2 PUSH2 0x4407 JUMP JUMPDEST PUSH1 0x40 DUP1 MLOAD PUSH1 0x0 DUP2 MSTORE PUSH1 0x20 DUP2 ADD SWAP2 DUP3 SWAP1 MSTORE PUSH4 0x22C0D9F PUSH1 0xE0 SHL SWAP1 SWAP2 MSTORE SWAP1 SWAP2 POP PUSH1 0x1 PUSH1 0x1 PUSH1 0xA0 SHL SUB DUP8 AND SWAP1 PUSH4 0x22C0D9F SWAP1 PUSH2 0x3653 SWAP1 DUP7 SWAP1 DUP7 SWAP1 DUP7 SWAP1 PUSH1 0x24 DUP2 ADD PUSH2 0x43B6 JUMP JUMPDEST PUSH1 0x0 PUSH1 0x40 MLOAD DUP1 DUP4 SUB DUP2 PUSH1 0x0 DUP8 DUP1 EXTCODESIZE ISZERO DUP1 ISZERO PUSH2 0x366D JUMPI PUSH1 0x0 DUP1 REVERT JUMPDEST POP GAS CALL ISZERO DUP1 ISZERO PUSH2 0x3681 JUMPI RETURNDATASIZE PUSH1 0x0 DUP1 RETURNDATACOPY RETURNDATASIZE PUSH1 0x0 REVERT JUMPDEST POP POP POP POP POP POP POP POP POP POP POP POP POP DUP1 DUP1 PUSH2 0x3699 SWAP1 PUSH2 0x44BA JUMP JUMPDEST SWAP2 POP POP PUSH2 0x33FC JUMP JUMPDEST PUSH1 0x0 PUSH2 0xA04 DUP3 DUP5 PUSH2 0x4460 JUMP JUMPDEST PUSH1 0x0 DUP1 DUP5 GT PUSH2 0x3711 JUMPI PUSH1 0x40 MLOAD PUSH3 0x461BCD PUSH1 0xE5 SHL DUP2 MSTORE PUSH1 0x20 PUSH1 0x4 DUP3 ADD MSTORE PUSH1 0x2A PUSH1 0x24 DUP3 ADD MSTORE PUSH32 0x466F6F737761704C6962726172793A20494E53554646494349454E545F4F5554 PUSH1 0x44 DUP3 ADD MSTORE PUSH10 0x14155517D05353D55395 PUSH1 0xB2 SHL PUSH1 0x64 DUP3 ADD MSTORE PUSH1 0x84 ADD PUSH2 0x56D JUMP JUMPDEST PUSH1 0x0 DUP4 GT DUP1 ISZERO PUSH2 0x3721 JUMPI POP PUSH1 0x0 DUP3 GT JUMPDEST PUSH2 0x377C JUMPI PUSH1 0x40 MLOAD PUSH3 0x461BCD PUSH1 0xE5 SHL DUP2 MSTORE PUSH1 0x20 PUSH1 0x4 DUP3 ADD MSTORE PUSH1 0x26 PUSH1 0x24 DUP3 ADD MSTORE PUSH32 0x466F6F737761704C6962726172793A20494E53554646494349454E545F4C4951 PUSH1 0x44 DUP3 ADD MSTORE PUSH6 0x554944495459 PUSH1 0xD0 SHL PUSH1 0x64 DUP3 ADD MSTORE PUSH1 0x84 ADD PUSH2 0x56D JUMP JUMPDEST PUSH1 0x0 PUSH2 0x3794 PUSH2 0x3E8 PUSH2 0x378E DUP7 DUP9 PUSH2 0x3C51 JUMP JUMPDEST SWAP1 PUSH2 0x3C51 JUMP JUMPDEST SWAP1 POP PUSH1 0x0 PUSH2 0x37A8 PUSH2 0x3E6 PUSH2 0x378E DUP7 DUP10 PUSH2 0x36A1 JUMP JUMPDEST SWAP1 POP PUSH2 0x37B9 PUSH1 0x1 PUSH2 0x2C8D DUP4 DUP6 PUSH2 0x441F JUMP JUMPDEST SWAP7 SWAP6 POP POP POP POP POP POP JUMP JUMPDEST PUSH1 0x0 DUP1 DUP5 GT PUSH2 0x3820 JUMPI PUSH1 0x40 MLOAD PUSH3 0x461BCD PUSH1 0xE5 SHL DUP2 MSTORE PUSH1 0x20 PUSH1 0x4 DUP3 ADD MSTORE PUSH1 0x23 PUSH1 0x24 DUP3 ADD MSTORE PUSH32 0x466F6F737761704C6962726172793A20494E53554646494349454E545F414D4F PUSH1 0x44 DUP3 ADD MSTORE PUSH3 0x155395 PUSH1 0xEA SHL PUSH1 0x64 DUP3 ADD MSTORE PUSH1 0x84 ADD PUSH2 0x56D JUMP JUMPDEST PUSH1 0x0 DUP4 GT DUP1 ISZERO PUSH2 0x3830 JUMPI POP PUSH1 0x0 DUP3 GT JUMPDEST PUSH2 0x388B JUMPI PUSH1 0x40 MLOAD PUSH3 0x461BCD PUSH1 0xE5 SHL DUP2 MSTORE PUSH1 0x20 PUSH1 0x4 DUP3 ADD MSTORE PUSH1 0x26 PUSH1 0x24 DUP3 ADD MSTORE PUSH32 0x466F6F737761704C6962726172793A20494E53554646494349454E545F4C4951 PUSH1 0x44 DUP3 ADD MSTORE PUSH6 0x554944495459 PUSH1 0xD0 SHL PUSH1 0x64 DUP3 ADD MSTORE PUSH1 0x84 ADD PUSH2 0x56D JUMP JUMPDEST DUP3 PUSH2 0x3896 DUP6 DUP5 PUSH2 0x3C51 JUMP JUMPDEST PUSH2 0x652 SWAP2 SWAP1 PUSH2 0x441F JUMP JUMPDEST PUSH1 0x0 DUP1 DUP3 PUSH1 0x1 PUSH1 0x1 PUSH1 0xA0 SHL SUB AND DUP5 PUSH1 0x1 PUSH1 0x1 PUSH1 0xA0 SHL SUB AND EQ ISZERO PUSH2 0x3911 JUMPI PUSH1 0x40 MLOAD PUSH3 0x461BCD PUSH1 0xE5 SHL DUP2 MSTORE PUSH1 0x20 PUSH1 0x4 DUP3 ADD MSTORE PUSH1 0x23 PUSH1 0x24 DUP3 ADD MSTORE PUSH32 0x466F6F737761704C6962726172793A204944454E544943414C5F414444524553 PUSH1 0x44 DUP3 ADD MSTORE PUSH3 0x534553 PUSH1 0xE8 SHL PUSH1 0x64 DUP3 ADD MSTORE PUSH1 0x84 ADD PUSH2 0x56D JUMP JUMPDEST DUP3 PUSH1 0x1 PUSH1 0x1 PUSH1 0xA0 SHL SUB AND DUP5 PUSH1 0x1 PUSH1 0x1 PUSH1 0xA0 SHL SUB AND LT PUSH2 0x3931 JUMPI DUP3 DUP5 PUSH2 0x3934 JUMP JUMPDEST DUP4 DUP4 JUMPDEST SWAP1 SWAP3 POP SWAP1 POP PUSH1 0x1 PUSH1 0x1 PUSH1 0xA0 SHL SUB DUP3 AND PUSH2 0x398F JUMPI PUSH1 0x40 MLOAD PUSH3 0x461BCD PUSH1 0xE5 SHL DUP2 MSTORE PUSH1 0x20 PUSH1 0x4 DUP3 ADD MSTORE PUSH1 0x1C PUSH1 0x24 DUP3 ADD MSTORE PUSH32 0x466F6F737761704C6962726172793A205A45524F5F4144445245535300000000 PUSH1 0x44 DUP3 ADD MSTORE PUSH1 0x64 ADD PUSH2 0x56D JUMP JUMPDEST SWAP3 POP SWAP3 SWAP1 POP JUMP JUMPDEST PUSH1 0x40 MLOAD PUSH4 0xE6A43905 PUSH1 0xE0 SHL DUP2 MSTORE PUSH1 0x1 PUSH1 0x1 PUSH1 0xA0 SHL SUB DUP8 DUP2 AND PUSH1 0x4 DUP4 ADD MSTORE DUP7 DUP2 AND PUSH1 0x24 DUP4 ADD MSTORE PUSH1 0x0 SWAP2 DUP3 SWAP2 DUP3 SWAP2 PUSH32 0x0 SWAP1 SWAP2 AND SWAP1 PUSH4 0xE6A43905 SWAP1 PUSH1 0x44 ADD PUSH1 0x20 PUSH1 0x40 MLOAD DUP1 DUP4 SUB DUP2 DUP7 DUP1 EXTCODESIZE ISZERO DUP1 ISZERO PUSH2 0x3A08 JUMPI PUSH1 0x0 DUP1 REVERT JUMPDEST POP GAS STATICCALL ISZERO DUP1 ISZERO PUSH2 0x3A1C JUMPI RETURNDATASIZE PUSH1 0x0 DUP1 RETURNDATACOPY RETURNDATASIZE PUSH1 0x0 REVERT JUMPDEST POP POP POP POP PUSH1 0x40 MLOAD RETURNDATASIZE PUSH1 0x1F NOT PUSH1 0x1F DUP3 ADD AND DUP3 ADD DUP1 PUSH1 0x40 MSTORE POP DUP2 ADD SWAP1 PUSH2 0x3A40 SWAP2 SWAP1 PUSH2 0x3DDC JUMP JUMPDEST PUSH1 0x1 PUSH1 0x1 PUSH1 0xA0 SHL SUB AND EQ ISZERO PUSH2 0x3AF4 JUMPI PUSH1 0x40 MLOAD PUSH4 0x64E329CB PUSH1 0xE1 SHL DUP2 MSTORE PUSH1 0x1 PUSH1 0x1 PUSH1 0xA0 SHL SUB DUP10 DUP2 AND PUSH1 0x4 DUP4 ADD MSTORE DUP9 DUP2 AND PUSH1 0x24 DUP4 ADD MSTORE PUSH32 0x0 AND SWAP1 PUSH4 0xC9C65396 SWAP1 PUSH1 0x44 ADD PUSH1 0x20 PUSH1 0x40 MLOAD DUP1 DUP4 SUB DUP2 PUSH1 0x0 DUP8 DUP1 EXTCODESIZE ISZERO DUP1 ISZERO PUSH2 0x3ABA JUMPI PUSH1 0x0 DUP1 REVERT JUMPDEST POP GAS CALL ISZERO DUP1 ISZERO PUSH2 0x3ACE JUMPI RETURNDATASIZE PUSH1 0x0 DUP1 RETURNDATACOPY RETURNDATASIZE PUSH1 0x0 REVERT JUMPDEST POP POP POP POP PUSH1 0x40 MLOAD RETURNDATASIZE PUSH1 0x1F NOT PUSH1 0x1F DUP3 ADD AND DUP3 ADD DUP1 PUSH1 0x40 MSTORE POP DUP2 ADD SWAP1 PUSH2 0x3AF2 SWAP2 SWAP1 PUSH2 0x3DDC JUMP JUMPDEST POP JUMPDEST PUSH1 0x0 DUP1 PUSH2 0x3B22 PUSH32 0x0 DUP12 DUP12 PUSH2 0x3C69 JUMP JUMPDEST SWAP2 POP SWAP2 POP DUP2 PUSH1 0x0 EQ DUP1 ISZERO PUSH2 0x3B34 JUMPI POP DUP1 ISZERO JUMPDEST ISZERO PUSH2 0x3B44 JUMPI DUP8 SWAP4 POP DUP7 SWAP3 POP PUSH2 0x3C44 JUMP JUMPDEST PUSH1 0x0 PUSH2 0x3B51 DUP10 DUP5 DUP5 PUSH2 0x37C3 JUMP JUMPDEST SWAP1 POP DUP8 DUP2 GT PUSH2 0x3BC1 JUMPI DUP6 DUP2 LT ISZERO PUSH2 0x3BB6 JUMPI PUSH1 0x40 MLOAD PUSH3 0x461BCD PUSH1 0xE5 SHL DUP2 MSTORE PUSH1 0x20 PUSH1 0x4 DUP3 ADD MSTORE PUSH1 0x24 DUP1 DUP3 ADD MSTORE PUSH32 0x466F6F73776170526F757465723A20494E53554646494349454E545F425F414D PUSH1 0x44 DUP3 ADD MSTORE PUSH4 0x13D55395 PUSH1 0xE2 SHL PUSH1 0x64 DUP3 ADD MSTORE PUSH1 0x84 ADD PUSH2 0x56D JUMP JUMPDEST DUP9 SWAP5 POP SWAP3 POP DUP3 PUSH2 0x3C42 JUMP JUMPDEST PUSH1 0x0 PUSH2 0x3BCE DUP10 DUP5 DUP7 PUSH2 0x37C3 JUMP JUMPDEST SWAP1 POP DUP10 DUP2 GT ISZERO PUSH2 0x3BE0 JUMPI PUSH2 0x3BE0 PUSH2 0x44D5 JUMP JUMPDEST DUP8 DUP2 LT ISZERO PUSH2 0x3C3C JUMPI PUSH1 0x40 MLOAD PUSH3 0x461BCD PUSH1 0xE5 SHL DUP2 MSTORE PUSH1 0x20 PUSH1 0x4 DUP3 ADD MSTORE PUSH1 0x24 DUP1 DUP3 ADD MSTORE PUSH32 0x466F6F73776170526F757465723A20494E53554646494349454E545F415F414D PUSH1 0x44 DUP3 ADD MSTORE PUSH4 0x13D55395 PUSH1 0xE2 SHL PUSH1 0x64 DUP3 ADD MSTORE PUSH1 0x84 ADD PUSH2 0x56D JUMP JUMPDEST SWAP5 POP DUP8 SWAP4 POP JUMPDEST POP JUMPDEST POP POP SWAP7 POP SWAP7 SWAP5 POP POP POP POP POP JUMP JUMPDEST PUSH1 0x0 PUSH2 0xA04 DUP3 DUP5 PUSH2 0x4441 JUMP JUMPDEST PUSH1 0x0 PUSH2 0xA04 DUP3 DUP5 PUSH2 0x4407 JUMP JUMPDEST PUSH1 0x0 DUP1 PUSH1 0x0 PUSH2 0x3C78 DUP6 DUP6 PUSH2 0x38A0 JUMP JUMPDEST POP SWAP1 POP PUSH1 0x0 DUP1 PUSH2 0x3C89 DUP9 DUP9 DUP9 PUSH2 0x2E35 JUMP JUMPDEST PUSH1 0x1 PUSH1 0x1 PUSH1 0xA0 SHL SUB AND PUSH4 0x902F1AC PUSH1 0x40 MLOAD DUP2 PUSH4 0xFFFFFFFF AND PUSH1 0xE0 SHL DUP2 MSTORE PUSH1 0x4 ADD PUSH1 0x60 PUSH1 0x40 MLOAD DUP1 DUP4 SUB DUP2 DUP7 DUP1 EXTCODESIZE ISZERO DUP1 ISZERO PUSH2 0x3CC1 JUMPI PUSH1 0x0 DUP1 REVERT JUMPDEST POP GAS STATICCALL ISZERO DUP1 ISZERO PUSH2 0x3CD5 JUMPI RETURNDATASIZE PUSH1 0x0 DUP1 RETURNDATACOPY RETURNDATASIZE PUSH1 0x0 REVERT JUMPDEST POP POP POP POP PUSH1 0x40 MLOAD RETURNDATASIZE PUSH1 0x1F NOT PUSH1 0x1F DUP3 ADD AND DUP3 ADD DUP1 PUSH1 0x40 MSTORE POP DUP2 ADD SWAP1 PUSH2 0x3CF9 SWAP2 SWAP1 PUSH2 0x40A2 JUMP JUMPDEST POP PUSH1 0x1 PUSH1 0x1 PUSH1 0x70 SHL SUB AND SWAP2 POP PUSH1 0x1 PUSH1 0x1 PUSH1 0x70 SHL SUB AND SWAP2 POP DUP3 PUSH1 0x1 PUSH1 0x1 PUSH1 0xA0 SHL SUB AND DUP8 PUSH1 0x1 PUSH1 0x1 PUSH1 0xA0 SHL SUB AND EQ PUSH2 0x3D30 JUMPI DUP1 DUP3 PUSH2 0x3D33 JUMP JUMPDEST DUP2 DUP2 JUMPDEST SWAP1 SWAP10 SWAP1 SWAP9 POP SWAP7 POP POP POP POP POP POP POP JUMP JUMPDEST DUP1 CALLDATALOAD PUSH2 0x3D4D DUP2 PUSH2 0x452D JUMP JUMPDEST SWAP2 SWAP1 POP JUMP JUMPDEST PUSH1 0x0 DUP1 DUP4 PUSH1 0x1F DUP5 ADD SLT PUSH2 0x3D64 JUMPI PUSH1 0x0 DUP1 REVERT JUMPDEST POP DUP2 CALLDATALOAD PUSH8 0xFFFFFFFFFFFFFFFF DUP2 GT ISZERO PUSH2 0x3D7C JUMPI PUSH1 0x0 DUP1 REVERT JUMPDEST PUSH1 0x20 DUP4 ADD SWAP2 POP DUP4 PUSH1 0x20 DUP3 PUSH1 0x5 SHL DUP6 ADD ADD GT ISZERO PUSH2 0x398F JUMPI PUSH1 0x0 DUP1 REVERT JUMPDEST DUP1 MLOAD PUSH1 0x1 PUSH1 0x1 PUSH1 0x70 SHL SUB DUP2 AND DUP2 EQ PUSH2 0x3D4D JUMPI PUSH1 0x0 DUP1 REVERT JUMPDEST DUP1 CALLDATALOAD PUSH1 0xFF DUP2 AND DUP2 EQ PUSH2 0x3D4D JUMPI PUSH1 0x0 DUP1 REVERT JUMPDEST PUSH1 0x0 PUSH1 0x20 DUP3 DUP5 SUB SLT ISZERO PUSH2 0x3DD1 JUMPI PUSH1 0x0 DUP1 REVERT JUMPDEST DUP2 CALLDATALOAD PUSH2 0xA04 DUP2 PUSH2 0x452D JUMP JUMPDEST PUSH1 0x0 PUSH1 0x20 DUP3 DUP5 SUB SLT ISZERO PUSH2 0x3DEE JUMPI PUSH1 0x0 DUP1 REVERT JUMPDEST DUP2 MLOAD PUSH2 0xA04 DUP2 PUSH2 0x452D JUMP JUMPDEST PUSH1 0x0 DUP1 PUSH1 0x0 DUP1 PUSH1 0x0 DUP1 PUSH1 0x0 PUSH1 0xE0 DUP9 DUP11 SUB SLT ISZERO PUSH2 0x3E14 JUMPI PUSH1 0x0 DUP1 REVERT JUMPDEST DUP8 CALLDATALOAD PUSH2 0x3E1F DUP2 PUSH2 0x452D JUMP JUMPDEST SWAP7 POP PUSH1 0x20 DUP9 ADD CALLDATALOAD PUSH2 0x3E2F DUP2 PUSH2 0x452D JUMP JUMPDEST SWAP6 POP PUSH1 0x40 DUP9 ADD CALLDATALOAD SWAP5 POP PUSH1 0x60 DUP9 ADD CALLDATALOAD SWAP4 POP PUSH1 0x80 DUP9 ADD CALLDATALOAD SWAP3 POP PUSH1 0xA0 DUP9 ADD CALLDATALOAD PUSH2 0x3E54 DUP2 PUSH2 0x452D JUMP JUMPDEST DUP1 SWAP3 POP POP PUSH1 0xC0 DUP9 ADD CALLDATALOAD SWAP1 POP SWAP3 SWAP6 SWAP9 SWAP2 SWAP5 SWAP8 POP SWAP3 SWAP6 POP JUMP JUMPDEST PUSH1 0x0 DUP1 PUSH1 0x0 DUP1 PUSH1 0x0 DUP1 PUSH1 0x0 DUP1 PUSH1 0x0 DUP1 PUSH1 0x0 PUSH2 0x160 DUP13 DUP15 SUB SLT ISZERO PUSH2 0x3E8D JUMPI PUSH1 0x0 DUP1 REVERT JUMPDEST DUP12 CALLDATALOAD PUSH2 0x3E98 DUP2 PUSH2 0x452D JUMP JUMPDEST SWAP11 POP PUSH1 0x20 DUP13 ADD CALLDATALOAD PUSH2 0x3EA8 DUP2 PUSH2 0x452D JUMP JUMPDEST SWAP10 POP PUSH1 0x40 DUP13 ADD CALLDATALOAD SWAP9 POP PUSH1 0x60 DUP13 ADD CALLDATALOAD SWAP8 POP PUSH1 0x80 DUP13 ADD CALLDATALOAD SWAP7 POP PUSH1 0xA0 DUP13 ADD CALLDATALOAD PUSH2 0x3ECD DUP2 PUSH2 0x452D JUMP JUMPDEST SWAP6 POP PUSH1 0xC0 DUP13 ADD CALLDATALOAD SWAP5 POP PUSH1 0xE0 DUP13 ADD CALLDATALOAD PUSH2 0x3EE4 DUP2 PUSH2 0x4545 JUMP JUMPDEST SWAP4 POP PUSH2 0x3EF3 PUSH2 0x100 DUP14 ADD PUSH2 0x3DAE JUMP JUMPDEST SWAP3 POP PUSH2 0x120 DUP13 ADD CALLDATALOAD SWAP2 POP PUSH2 0x140 DUP13 ADD CALLDATALOAD SWAP1 POP SWAP3 SWAP6 SWAP9 SWAP12 POP SWAP3 SWAP6 SWAP9 SWAP12 SWAP1 SWAP4 SWAP7 SWAP10 POP JUMP JUMPDEST PUSH1 0x0 DUP1 PUSH1 0x0 DUP1 PUSH1 0x0 DUP1 PUSH1 0x0 DUP1 PUSH2 0x100 DUP10 DUP12 SUB SLT ISZERO PUSH2 0x3F32 JUMPI PUSH1 0x0 DUP1 REVERT JUMPDEST DUP9 CALLDATALOAD PUSH2 0x3F3D DUP2 PUSH2 0x452D JUMP JUMPDEST SWAP8 POP PUSH1 0x20 DUP10 ADD CALLDATALOAD PUSH2 0x3F4D DUP2 PUSH2 0x452D JUMP JUMPDEST SWAP7 POP PUSH1 0x40 DUP10 ADD CALLDATALOAD SWAP6 POP PUSH1 0x60 DUP10 ADD CALLDATALOAD SWAP5 POP PUSH1 0x80 DUP10 ADD CALLDATALOAD SWAP4 POP PUSH1 0xA0 DUP10 ADD CALLDATALOAD SWAP3 POP PUSH1 0xC0 DUP10 ADD CALLDATALOAD PUSH2 0x3F79 DUP2 PUSH2 0x452D JUMP JUMPDEST DUP1 SWAP3 POP POP PUSH1 0xE0 DUP10 ADD CALLDATALOAD SWAP1 POP SWAP3 SWAP6 SWAP9 POP SWAP3 SWAP6 SWAP9 SWAP1 SWAP4 SWAP7 POP JUMP JUMPDEST PUSH1 0x0 DUP1 PUSH1 0x0 DUP1 PUSH1 0x0 DUP1 PUSH1 0xC0 DUP8 DUP10 SUB SLT ISZERO PUSH2 0x3FAA JUMPI PUSH1 0x0 DUP1 REVERT JUMPDEST DUP7 CALLDATALOAD PUSH2 0x3FB5 DUP2 PUSH2 0x452D JUMP JUMPDEST SWAP6 POP PUSH1 0x20 DUP8 ADD CALLDATALOAD SWAP5 POP PUSH1 0x40 DUP8 ADD CALLDATALOAD SWAP4 POP PUSH1 0x60 DUP8 ADD CALLDATALOAD SWAP3 POP PUSH1 0x80 DUP8 ADD CALLDATALOAD PUSH2 0x3FDA DUP2 PUSH2 0x452D JUMP JUMPDEST DUP1 SWAP3 POP POP PUSH1 0xA0 DUP8 ADD CALLDATALOAD SWAP1 POP SWAP3 SWAP6 POP SWAP3 SWAP6 POP SWAP3 SWAP6 JUMP JUMPDEST PUSH1 0x0 DUP1 PUSH1 0x0 DUP1 PUSH1 0x0 DUP1 PUSH1 0x0 DUP1 PUSH1 0x0 DUP1 PUSH2 0x140 DUP12 DUP14 SUB SLT ISZERO PUSH2 0x400F JUMPI PUSH1 0x0 DUP1 REVERT JUMPDEST DUP11 CALLDATALOAD PUSH2 0x401A DUP2 PUSH2 0x452D JUMP JUMPDEST SWAP10 POP PUSH1 0x20 DUP12 ADD CALLDATALOAD SWAP9 POP PUSH1 0x40 DUP12 ADD CALLDATALOAD SWAP8 POP PUSH1 0x60 DUP12 ADD CALLDATALOAD SWAP7 POP PUSH1 0x80 DUP12 ADD CALLDATALOAD PUSH2 0x403F DUP2 PUSH2 0x452D JUMP JUMPDEST SWAP6 POP PUSH1 0xA0 DUP12 ADD CALLDATALOAD SWAP5 POP PUSH1 0xC0 DUP12 ADD CALLDATALOAD PUSH2 0x4056 DUP2 PUSH2 0x4545 JUMP JUMPDEST SWAP4 POP PUSH2 0x4064 PUSH1 0xE0 DUP13 ADD PUSH2 0x3DAE JUMP JUMPDEST SWAP3 POP PUSH2 0x100 DUP12 ADD CALLDATALOAD SWAP2 POP PUSH2 0x120 DUP12 ADD CALLDATALOAD SWAP1 POP SWAP3 SWAP6 SWAP9 SWAP12 SWAP2 SWAP5 SWAP8 SWAP11 POP SWAP3 SWAP6 SWAP9 POP JUMP JUMPDEST PUSH1 0x0 PUSH1 0x20 DUP3 DUP5 SUB SLT ISZERO PUSH2 0x4097 JUMPI PUSH1 0x0 DUP1 REVERT JUMPDEST DUP2 MLOAD PUSH2 0xA04 DUP2 PUSH2 0x4545 JUMP JUMPDEST PUSH1 0x0 DUP1 PUSH1 0x0 PUSH1 0x60 DUP5 DUP7 SUB SLT ISZERO PUSH2 0x40B7 JUMPI PUSH1 0x0 DUP1 REVERT JUMPDEST PUSH2 0x40C0 DUP5 PUSH2 0x3D97 JUMP JUMPDEST SWAP3 POP PUSH2 0x40CE PUSH1 0x20 DUP6 ADD PUSH2 0x3D97 JUMP JUMPDEST SWAP2 POP PUSH1 0x40 DUP5 ADD MLOAD PUSH4 0xFFFFFFFF DUP2 AND DUP2 EQ PUSH2 0x40E7 JUMPI PUSH1 0x0 DUP1 REVERT JUMPDEST DUP1 SWAP2 POP POP SWAP3 POP SWAP3 POP SWAP3 JUMP JUMPDEST PUSH1 0x0 PUSH1 0x20 DUP3 DUP5 SUB SLT ISZERO PUSH2 0x4104 JUMPI PUSH1 0x0 DUP1 REVERT JUMPDEST POP MLOAD SWAP2 SWAP1 POP JUMP JUMPDEST PUSH1 0x0 DUP1 PUSH1 0x0 DUP1 PUSH1 0x0 PUSH1 0x80 DUP7 DUP9 SUB SLT ISZERO PUSH2 0x4123 JUMPI PUSH1 0x0 DUP1 REVERT JUMPDEST DUP6 CALLDATALOAD SWAP5 POP PUSH1 0x20 DUP7 ADD CALLDATALOAD PUSH8 0xFFFFFFFFFFFFFFFF DUP2 GT ISZERO PUSH2 0x4141 JUMPI PUSH1 0x0 DUP1 REVERT JUMPDEST PUSH2 0x414D DUP9 DUP3 DUP10 ADD PUSH2 0x3D52 JUMP JUMPDEST SWAP1 SWAP6 POP SWAP4 POP POP PUSH1 0x40 DUP7 ADD CALLDATALOAD PUSH2 0x4161 DUP2 PUSH2 0x452D JUMP JUMPDEST SWAP5 SWAP8 SWAP4 SWAP7 POP SWAP2 SWAP5 PUSH1 0x60 ADD CALLDATALOAD SWAP3 SWAP2 POP POP JUMP JUMPDEST PUSH1 0x0 DUP1 PUSH1 0x40 DUP4 DUP6 SUB SLT ISZERO PUSH2 0x4185 JUMPI PUSH1 0x0 DUP1 REVERT JUMPDEST DUP3 CALLDATALOAD SWAP2 POP PUSH1 0x20 DUP1 DUP5 ADD CALLDATALOAD PUSH8 0xFFFFFFFFFFFFFFFF DUP1 DUP3 GT ISZERO PUSH2 0x41A5 JUMPI PUSH1 0x0 DUP1 REVERT JUMPDEST DUP2 DUP7 ADD SWAP2 POP DUP7 PUSH1 0x1F DUP4 ADD SLT PUSH2 0x41B9 JUMPI PUSH1 0x0 DUP1 REVERT JUMPDEST DUP2 CALLDATALOAD DUP2 DUP2 GT ISZERO PUSH2 0x41CB JUMPI PUSH2 0x41CB PUSH2 0x4517 JUMP JUMPDEST DUP1 PUSH1 0x5 SHL PUSH1 0x40 MLOAD PUSH1 0x1F NOT PUSH1 0x3F DUP4 ADD AND DUP2 ADD DUP2 DUP2 LT DUP6 DUP3 GT OR ISZERO PUSH2 0x41F0 JUMPI PUSH2 0x41F0 PUSH2 0x4517 JUMP JUMPDEST PUSH1 0x40 MSTORE DUP3 DUP2 MSTORE DUP6 DUP2 ADD SWAP4 POP DUP5 DUP7 ADD DUP3 DUP7 ADD DUP8 ADD DUP12 LT ISZERO PUSH2 0x420F JUMPI PUSH1 0x0 DUP1 REVERT JUMPDEST PUSH1 0x0 SWAP6 POP JUMPDEST DUP4 DUP7 LT ISZERO PUSH2 0x4239 JUMPI PUSH2 0x4225 DUP2 PUSH2 0x3D42 JUMP JUMPDEST DUP6 MSTORE PUSH1 0x1 SWAP6 SWAP1 SWAP6 ADD SWAP5 SWAP4 DUP7 ADD SWAP4 DUP7 ADD PUSH2 0x4214 JUMP JUMPDEST POP DUP1 SWAP7 POP POP POP POP POP POP POP SWAP3 POP SWAP3 SWAP1 POP JUMP JUMPDEST PUSH1 0x0 DUP1 PUSH1 0x40 DUP4 DUP6 SUB SLT ISZERO PUSH2 0x425D JUMPI PUSH1 0x0 DUP1 REVERT JUMPDEST POP POP DUP1 MLOAD PUSH1 0x20 SWAP1 SWAP2 ADD MLOAD SWAP1 SWAP3 SWAP1 SWAP2 POP JUMP JUMPDEST PUSH1 0x0 DUP1 PUSH1 0x0 DUP1 PUSH1 0x0 DUP1 PUSH1 0xA0 DUP8 DUP10 SUB SLT ISZERO PUSH2 0x4287 JUMPI PUSH1 0x0 DUP1 REVERT JUMPDEST DUP7 CALLDATALOAD SWAP6 POP PUSH1 0x20 DUP8 ADD CALLDATALOAD SWAP5 POP PUSH1 0x40 DUP8 ADD CALLDATALOAD PUSH8 0xFFFFFFFFFFFFFFFF DUP2 GT ISZERO PUSH2 0x42AC JUMPI PUSH1 0x0 DUP1 REVERT JUMPDEST PUSH2 0x42B8 DUP10 DUP3 DUP11 ADD PUSH2 0x3D52 JUMP JUMPDEST SWAP1 SWAP6 POP SWAP4 POP POP PUSH1 0x60 DUP8 ADD CALLDATALOAD PUSH2 0x42CC DUP2 PUSH2 0x452D JUMP JUMPDEST DUP1 SWAP3 POP POP PUSH1 0x80 DUP8 ADD CALLDATALOAD SWAP1 POP SWAP3 SWAP6 POP SWAP3 SWAP6 POP SWAP3 SWAP6 JUMP JUMPDEST PUSH1 0x0 DUP1 PUSH1 0x0 PUSH1 0x60 DUP5 DUP7 SUB SLT ISZERO PUSH2 0x42F6 JUMPI PUSH1 0x0 DUP1 REVERT JUMPDEST POP POP DUP2 CALLDATALOAD SWAP4 PUSH1 0x20 DUP4 ADD CALLDATALOAD SWAP4 POP PUSH1 0x40 SWAP1 SWAP3 ADD CALLDATALOAD SWAP2 SWAP1 POP JUMP JUMPDEST PUSH1 0x0 DUP3 MLOAD PUSH2 0x431F DUP2 DUP5 PUSH1 0x20 DUP8 ADD PUSH2 0x4477 JUMP JUMPDEST SWAP2 SWAP1 SWAP2 ADD SWAP3 SWAP2 POP POP JUMP JUMPDEST PUSH1 0x20 DUP1 DUP3 MSTORE DUP3 MLOAD DUP3 DUP3 ADD DUP2 SWAP1 MSTORE PUSH1 0x0 SWAP2 SWAP1 DUP5 DUP3 ADD SWAP1 PUSH1 0x40 DUP6 ADD SWAP1 DUP5 JUMPDEST DUP2 DUP2 LT ISZERO PUSH2 0x4361 JUMPI DUP4 MLOAD DUP4 MSTORE SWAP3 DUP5 ADD SWAP3 SWAP2 DUP5 ADD SWAP2 PUSH1 0x1 ADD PUSH2 0x4345 JUMP JUMPDEST POP SWAP1 SWAP7 SWAP6 POP POP POP POP POP POP JUMP JUMPDEST PUSH1 0x20 DUP1 DUP3 MSTORE PUSH1 0x29 SWAP1 DUP3 ADD MSTORE PUSH32 0x466F6F73776170526F757465723A20494E53554646494349454E545F4F555450 PUSH1 0x40 DUP3 ADD MSTORE PUSH9 0x155517D05353D55395 PUSH1 0xBA SHL PUSH1 0x60 DUP3 ADD MSTORE PUSH1 0x80 ADD SWAP1 JUMP JUMPDEST DUP5 DUP2 MSTORE DUP4 PUSH1 0x20 DUP3 ADD MSTORE PUSH1 0x1 PUSH1 0x1 PUSH1 0xA0 SHL SUB DUP4 AND PUSH1 0x40 DUP3 ADD MSTORE PUSH1 0x80 PUSH1 0x60 DUP3 ADD MSTORE PUSH1 0x0 DUP3 MLOAD DUP1 PUSH1 0x80 DUP5 ADD MSTORE PUSH2 0x43F0 DUP2 PUSH1 0xA0 DUP6 ADD PUSH1 0x20 DUP8 ADD PUSH2 0x4477 JUMP JUMPDEST PUSH1 0x1F ADD PUSH1 0x1F NOT AND SWAP2 SWAP1 SWAP2 ADD PUSH1 0xA0 ADD SWAP6 SWAP5 POP POP POP POP POP JUMP JUMPDEST PUSH1 0x0 DUP3 NOT DUP3 GT ISZERO PUSH2 0x441A JUMPI PUSH2 0x441A PUSH2 0x44EB JUMP JUMPDEST POP ADD SWAP1 JUMP JUMPDEST PUSH1 0x0 DUP3 PUSH2 0x443C JUMPI PUSH4 0x4E487B71 PUSH1 0xE0 SHL PUSH1 0x0 MSTORE PUSH1 0x12 PUSH1 0x4 MSTORE PUSH1 0x24 PUSH1 0x0 REVERT JUMPDEST POP DIV SWAP1 JUMP JUMPDEST PUSH1 0x0 DUP2 PUSH1 0x0 NOT DIV DUP4 GT DUP3 ISZERO ISZERO AND ISZERO PUSH2 0x445B JUMPI PUSH2 0x445B PUSH2 0x44EB JUMP JUMPDEST POP MUL SWAP1 JUMP JUMPDEST PUSH1 0x0 DUP3 DUP3 LT ISZERO PUSH2 0x4472 JUMPI PUSH2 0x4472 PUSH2 0x44EB JUMP JUMPDEST POP SUB SWAP1 JUMP JUMPDEST PUSH1 0x0 JUMPDEST DUP4 DUP2 LT ISZERO PUSH2 0x4492 JUMPI DUP2 DUP2 ADD MLOAD DUP4 DUP3 ADD MSTORE PUSH1 0x20 ADD PUSH2 0x447A JUMP JUMPDEST DUP4 DUP2 GT ISZERO PUSH2 0x3272 JUMPI POP POP PUSH1 0x0 SWAP2 ADD MSTORE JUMP JUMPDEST PUSH1 0x0 DUP2 PUSH2 0x44B2 JUMPI PUSH2 0x44B2 PUSH2 0x44EB JUMP JUMPDEST POP PUSH1 0x0 NOT ADD SWAP1 JUMP JUMPDEST PUSH1 0x0 PUSH1 0x0 NOT DUP3 EQ ISZERO PUSH2 0x44CE JUMPI PUSH2 0x44CE PUSH2 0x44EB JUMP JUMPDEST POP PUSH1 0x1 ADD SWAP1 JUMP JUMPDEST PUSH4 0x4E487B71 PUSH1 0xE0 SHL PUSH1 0x0 MSTORE PUSH1 0x1 PUSH1 0x4 MSTORE PUSH1 0x24 PUSH1 0x0 REVERT JUMPDEST PUSH4 0x4E487B71 PUSH1 0xE0 SHL PUSH1 0x0 MSTORE PUSH1 0x11 PUSH1 0x4 MSTORE PUSH1 0x24 PUSH1 0x0 REVERT JUMPDEST PUSH4 0x4E487B71 PUSH1 0xE0 SHL PUSH1 0x0 MSTORE PUSH1 0x32 PUSH1 0x4 MSTORE PUSH1 0x24 PUSH1 0x0 REVERT JUMPDEST PUSH4 0x4E487B71 PUSH1 0xE0 SHL PUSH1 0x0 MSTORE PUSH1 0x41 PUSH1 0x4 MSTORE PUSH1 0x24 PUSH1 0x0 REVERT JUMPDEST PUSH1 0x1 PUSH1 0x1 PUSH1 0xA0 SHL SUB DUP2 AND DUP2 EQ PUSH2 0x4542 JUMPI PUSH1 0x0 DUP1 REVERT JUMPDEST POP JUMP JUMPDEST DUP1 ISZERO ISZERO DUP2 EQ PUSH2 0x4542 JUMPI PUSH1 0x0 DUP1 REVERT INVALID CHAINID PUSH16 0x6F73776170526F757465723A20455850 0x49 MSTORE GASLIMIT DIFFICULTY STOP STOP STOP STOP STOP STOP STOP STOP STOP STOP LOG2 PUSH5 0x6970667358 0x22 SLT KECCAK256 PUSH6 0xD12B4EF7EE0B 0xD0 SAR DUP15 PUSH12 0x1909531966F049BB4BA2B750 MUL CREATE2 DUP11 SWAP8 PUSH31 0xD0480AC864736F6C6343000807003300000000000000000000000000000000 "
		},
		"gasEstimates": {
			"creation": {
				"codeDepositCost": "3566600",
				"executionCost": "infinite",
				"totalCost": "infinite"
			},
			"external": {
				"WETH()": "infinite",
				"addLiquidity(address,address,uint256,uint256,uint256,uint256,address,uint256)": "infinite",
				"addLiquidityETH(address,uint256,uint256,uint256,address,uint256)": "infinite",
				"factory()": "infinite",
				"getAmountIn(uint256,uint256,uint256)": "infinite",
				"getAmountOut(uint256,uint256,uint256)": "infinite",
				"getAmountsIn(uint256,address[])": "infinite",
				"getAmountsOut(uint256,address[])": "infinite",
				"quote(uint256,uint256,uint256)": "infinite",
				"removeLiquidity(address,address,uint256,uint256,uint256,address,uint256)": "infinite",
				"removeLiquidityETH(address,uint256,uint256,uint256,address,uint256)": "infinite",
				"removeLiquidityETHSupportingFeeOnTransferTokens(address,uint256,uint256,uint256,address,uint256)": "infinite",
				"removeLiquidityETHWithPermit(address,uint256,uint256,uint256,address,uint256,bool,uint8,bytes32,bytes32)": "infinite",
				"removeLiquidityETHWithPermitSupportingFeeOnTransferTokens(address,uint256,uint256,uint256,address,uint256,bool,uint8,bytes32,bytes32)": "infinite",
				"removeLiquidityWithPermit(address,address,uint256,uint256,uint256,address,uint256,bool,uint8,bytes32,bytes32)": "infinite",
				"swapETHForExactTokens(uint256,address[],address,uint256)": "infinite",
				"swapExactETHForTokens(uint256,address[],address,uint256)": "infinite",
				"swapExactETHForTokensSupportingFeeOnTransferTokens(uint256,address[],address,uint256)": "infinite",
				"swapExactTokensForETH(uint256,uint256,address[],address,uint256)": "infinite",
				"swapExactTokensForETHSupportingFeeOnTransferTokens(uint256,uint256,address[],address,uint256)": "infinite",
				"swapExactTokensForTokens(uint256,uint256,address[],address,uint256)": "infinite",
				"swapExactTokensForTokensSupportingFeeOnTransferTokens(uint256,uint256,address[],address,uint256)": "infinite",
				"swapTokensForExactETH(uint256,uint256,address[],address,uint256)": "infinite",
				"swapTokensForExactTokens(uint256,uint256,address[],address,uint256)": "infinite"
			},
			"internal": {
				"_addLiquidity(address,address,uint256,uint256,uint256,uint256)": "infinite",
				"_swap(uint256[] memory,address[] memory,address)": "infinite",
				"_swapSupportingFeeOnTransferTokens(address[] memory,address)": "infinite"
			}
		},
		"methodIdentifiers": {
			"WETH()": "ad5c4648",
			"addLiquidity(address,address,uint256,uint256,uint256,uint256,address,uint256)": "e8e33700",
			"addLiquidityETH(address,uint256,uint256,uint256,address,uint256)": "f305d719",
			"factory()": "c45a0155",
			"getAmountIn(uint256,uint256,uint256)": "85f8c259",
			"getAmountOut(uint256,uint256,uint256)": "054d50d4",
			"getAmountsIn(uint256,address[])": "1f00ca74",
			"getAmountsOut(uint256,address[])": "d06ca61f",
			"quote(uint256,uint256,uint256)": "ad615dec",
			"removeLiquidity(address,address,uint256,uint256,uint256,address,uint256)": "baa2abde",
			"removeLiquidityETH(address,uint256,uint256,uint256,address,uint256)": "02751cec",
			"removeLiquidityETHSupportingFeeOnTransferTokens(address,uint256,uint256,uint256,address,uint256)": "af2979eb",
			"removeLiquidityETHWithPermit(address,uint256,uint256,uint256,address,uint256,bool,uint8,bytes32,bytes32)": "ded9382a",
			"removeLiquidityETHWithPermitSupportingFeeOnTransferTokens(address,uint256,uint256,uint256,address,uint256,bool,uint8,bytes32,bytes32)": "5b0d5984",
			"removeLiquidityWithPermit(address,address,uint256,uint256,uint256,address,uint256,bool,uint8,bytes32,bytes32)": "2195995c",
			"swapETHForExactTokens(uint256,address[],address,uint256)": "fb3bdb41",
			"swapExactETHForTokens(uint256,address[],address,uint256)": "7ff36ab5",
			"swapExactETHForTokensSupportingFeeOnTransferTokens(uint256,address[],address,uint256)": "b6f9de95",
			"swapExactTokensForETH(uint256,uint256,address[],address,uint256)": "18cbafe5",
			"swapExactTokensForETHSupportingFeeOnTransferTokens(uint256,uint256,address[],address,uint256)": "791ac947",
			"swapExactTokensForTokens(uint256,uint256,address[],address,uint256)": "38ed1739",
			"swapExactTokensForTokensSupportingFeeOnTransferTokens(uint256,uint256,address[],address,uint256)": "5c11d795",
			"swapTokensForExactETH(uint256,uint256,address[],address,uint256)": "4a25d94a",
			"swapTokensForExactTokens(uint256,uint256,address[],address,uint256)": "8803dbee"
		}
	},
	"abi": [
		{
			"inputs": [
				{
					"internalType": "address",
					"name": "_factory",
					"type": "address"
				},
				{
					"internalType": "address",
					"name": "_WETH",
					"type": "address"
				}
			],
			"stateMutability": "nonpayable",
			"type": "constructor"
		},
		{
			"inputs": [],
			"name": "WETH",
			"outputs": [
				{
					"internalType": "address",
					"name": "",
					"type": "address"
				}
			],
			"stateMutability": "view",
			"type": "function"
		},
		{
			"inputs": [
				{
					"internalType": "address",
					"name": "tokenA",
					"type": "address"
				},
				{
					"internalType": "address",
					"name": "tokenB",
					"type": "address"
				},
				{
					"internalType": "uint256",
					"name": "amountADesired",
					"type": "uint256"
				},
				{
					"internalType": "uint256",
					"name": "amountBDesired",
					"type": "uint256"
				},
				{
					"internalType": "uint256",
					"name": "amountAMin",
					"type": "uint256"
				},
				{
					"internalType": "uint256",
					"name": "amountBMin",
					"type": "uint256"
				},
				{
					"internalType": "address",
					"name": "to",
					"type": "address"
				},
				{
					"internalType": "uint256",
					"name": "deadline",
					"type": "uint256"
				}
			],
			"name": "addLiquidity",
			"outputs": [
				{
					"internalType": "uint256",
					"name": "amountA",
					"type": "uint256"
				},
				{
					"internalType": "uint256",
					"name": "amountB",
					"type": "uint256"
				},
				{
					"internalType": "uint256",
					"name": "liquidity",
					"type": "uint256"
				}
			],
			"stateMutability": "nonpayable",
			"type": "function"
		},
		{
			"inputs": [
				{
					"internalType": "address",
					"name": "token",
					"type": "address"
				},
				{
					"internalType": "uint256",
					"name": "amountTokenDesired",
					"type": "uint256"
				},
				{
					"internalType": "uint256",
					"name": "amountTokenMin",
					"type": "uint256"
				},
				{
					"internalType": "uint256",
					"name": "amountETHMin",
					"type": "uint256"
				},
				{
					"internalType": "address",
					"name": "to",
					"type": "address"
				},
				{
					"internalType": "uint256",
					"name": "deadline",
					"type": "uint256"
				}
			],
			"name": "addLiquidityETH",
			"outputs": [
				{
					"internalType": "uint256",
					"name": "amountToken",
					"type": "uint256"
				},
				{
					"internalType": "uint256",
					"name": "amountETH",
					"type": "uint256"
				},
				{
					"internalType": "uint256",
					"name": "liquidity",
					"type": "uint256"
				}
			],
			"stateMutability": "payable",
			"type": "function"
		},
		{
			"inputs": [],
			"name": "factory",
			"outputs": [
				{
					"internalType": "address",
					"name": "",
					"type": "address"
				}
			],
			"stateMutability": "view",
			"type": "function"
		},
		{
			"inputs": [
				{
					"internalType": "uint256",
					"name": "amountOut",
					"type": "uint256"
				},
				{
					"internalType": "uint256",
					"name": "reserveIn",
					"type": "uint256"
				},
				{
					"internalType": "uint256",
					"name": "reserveOut",
					"type": "uint256"
				}
			],
			"name": "getAmountIn",
			"outputs": [
				{
					"internalType": "uint256",
					"name": "amountIn",
					"type": "uint256"
				}
			],
			"stateMutability": "pure",
			"type": "function"
		},
		{
			"inputs": [
				{
					"internalType": "uint256",
					"name": "amountIn",
					"type": "uint256"
				},
				{
					"internalType": "uint256",
					"name": "reserveIn",
					"type": "uint256"
				},
				{
					"internalType": "uint256",
					"name": "reserveOut",
					"type": "uint256"
				}
			],
			"name": "getAmountOut",
			"outputs": [
				{
					"internalType": "uint256",
					"name": "amountOut",
					"type": "uint256"
				}
			],
			"stateMutability": "pure",
			"type": "function"
		},
		{
			"inputs": [
				{
					"internalType": "uint256",
					"name": "amountOut",
					"type": "uint256"
				},
				{
					"internalType": "address[]",
					"name": "path",
					"type": "address[]"
				}
			],
			"name": "getAmountsIn",
			"outputs": [
				{
					"internalType": "uint256[]",
					"name": "amounts",
					"type": "uint256[]"
				}
			],
			"stateMutability": "view",
			"type": "function"
		},
		{
			"inputs": [
				{
					"internalType": "uint256",
					"name": "amountIn",
					"type": "uint256"
				},
				{
					"internalType": "address[]",
					"name": "path",
					"type": "address[]"
				}
			],
			"name": "getAmountsOut",
			"outputs": [
				{
					"internalType": "uint256[]",
					"name": "amounts",
					"type": "uint256[]"
				}
			],
			"stateMutability": "view",
			"type": "function"
		},
		{
			"inputs": [
				{
					"internalType": "uint256",
					"name": "amountA",
					"type": "uint256"
				},
				{
					"internalType": "uint256",
					"name": "reserveA",
					"type": "uint256"
				},
				{
					"internalType": "uint256",
					"name": "reserveB",
					"type": "uint256"
				}
			],
			"name": "quote",
			"outputs": [
				{
					"internalType": "uint256",
					"name": "amountB",
					"type": "uint256"
				}
			],
			"stateMutability": "pure",
			"type": "function"
		},
		{
			"inputs": [
				{
					"internalType": "address",
					"name": "tokenA",
					"type": "address"
				},
				{
					"internalType": "address",
					"name": "tokenB",
					"type": "address"
				},
				{
					"internalType": "uint256",
					"name": "liquidity",
					"type": "uint256"
				},
				{
					"internalType": "uint256",
					"name": "amountAMin",
					"type": "uint256"
				},
				{
					"internalType": "uint256",
					"name": "amountBMin",
					"type": "uint256"
				},
				{
					"internalType": "address",
					"name": "to",
					"type": "address"
				},
				{
					"internalType": "uint256",
					"name": "deadline",
					"type": "uint256"
				}
			],
			"name": "removeLiquidity",
			"outputs": [
				{
					"internalType": "uint256",
					"name": "amountA",
					"type": "uint256"
				},
				{
					"internalType": "uint256",
					"name": "amountB",
					"type": "uint256"
				}
			],
			"stateMutability": "nonpayable",
			"type": "function"
		},
		{
			"inputs": [
				{
					"internalType": "address",
					"name": "token",
					"type": "address"
				},
				{
					"internalType": "uint256",
					"name": "liquidity",
					"type": "uint256"
				},
				{
					"internalType": "uint256",
					"name": "amountTokenMin",
					"type": "uint256"
				},
				{
					"internalType": "uint256",
					"name": "amountETHMin",
					"type": "uint256"
				},
				{
					"internalType": "address",
					"name": "to",
					"type": "address"
				},
				{
					"internalType": "uint256",
					"name": "deadline",
					"type": "uint256"
				}
			],
			"name": "removeLiquidityETH",
			"outputs": [
				{
					"internalType": "uint256",
					"name": "amountToken",
					"type": "uint256"
				},
				{
					"internalType": "uint256",
					"name": "amountETH",
					"type": "uint256"
				}
			],
			"stateMutability": "nonpayable",
			"type": "function"
		},
		{
			"inputs": [
				{
					"internalType": "address",
					"name": "token",
					"type": "address"
				},
				{
					"internalType": "uint256",
					"name": "liquidity",
					"type": "uint256"
				},
				{
					"internalType": "uint256",
					"name": "amountTokenMin",
					"type": "uint256"
				},
				{
					"internalType": "uint256",
					"name": "amountETHMin",
					"type": "uint256"
				},
				{
					"internalType": "address",
					"name": "to",
					"type": "address"
				},
				{
					"internalType": "uint256",
					"name": "deadline",
					"type": "uint256"
				}
			],
			"name": "removeLiquidityETHSupportingFeeOnTransferTokens",
			"outputs": [
				{
					"internalType": "uint256",
					"name": "amountETH",
					"type": "uint256"
				}
			],
			"stateMutability": "nonpayable",
			"type": "function"
		},
		{
			"inputs": [
				{
					"internalType": "address",
					"name": "token",
					"type": "address"
				},
				{
					"internalType": "uint256",
					"name": "liquidity",
					"type": "uint256"
				},
				{
					"internalType": "uint256",
					"name": "amountTokenMin",
					"type": "uint256"
				},
				{
					"internalType": "uint256",
					"name": "amountETHMin",
					"type": "uint256"
				},
				{
					"internalType": "address",
					"name": "to",
					"type": "address"
				},
				{
					"internalType": "uint256",
					"name": "deadline",
					"type": "uint256"
				},
				{
					"internalType": "bool",
					"name": "approveMax",
					"type": "bool"
				},
				{
					"internalType": "uint8",
					"name": "v",
					"type": "uint8"
				},
				{
					"internalType": "bytes32",
					"name": "r",
					"type": "bytes32"
				},
				{
					"internalType": "bytes32",
					"name": "s",
					"type": "bytes32"
				}
			],
			"name": "removeLiquidityETHWithPermit",
			"outputs": [
				{
					"internalType": "uint256",
					"name": "amountToken",
					"type": "uint256"
				},
				{
					"internalType": "uint256",
					"name": "amountETH",
					"type": "uint256"
				}
			],
			"stateMutability": "nonpayable",
			"type": "function"
		},
		{
			"inputs": [
				{
					"internalType": "address",
					"name": "token",
					"type": "address"
				},
				{
					"internalType": "uint256",
					"name": "liquidity",
					"type": "uint256"
				},
				{
					"internalType": "uint256",
					"name": "amountTokenMin",
					"type": "uint256"
				},
				{
					"internalType": "uint256",
					"name": "amountETHMin",
					"type": "uint256"
				},
				{
					"internalType": "address",
					"name": "to",
					"type": "address"
				},
				{
					"internalType": "uint256",
					"name": "deadline",
					"type": "uint256"
				},
				{
					"internalType": "bool",
					"name": "approveMax",
					"type": "bool"
				},
				{
					"internalType": "uint8",
					"name": "v",
					"type": "uint8"
				},
				{
					"internalType": "bytes32",
					"name": "r",
					"type": "bytes32"
				},
				{
					"internalType": "bytes32",
					"name": "s",
					"type": "bytes32"
				}
			],
			"name": "removeLiquidityETHWithPermitSupportingFeeOnTransferTokens",
			"outputs": [
				{
					"internalType": "uint256",
					"name": "amountETH",
					"type": "uint256"
				}
			],
			"stateMutability": "nonpayable",
			"type": "function"
		},
		{
			"inputs": [
				{
					"internalType": "address",
					"name": "tokenA",
					"type": "address"
				},
				{
					"internalType": "address",
					"name": "tokenB",
					"type": "address"
				},
				{
					"internalType": "uint256",
					"name": "liquidity",
					"type": "uint256"
				},
				{
					"internalType": "uint256",
					"name": "amountAMin",
					"type": "uint256"
				},
				{
					"internalType": "uint256",
					"name": "amountBMin",
					"type": "uint256"
				},
				{
					"internalType": "address",
					"name": "to",
					"type": "address"
				},
				{
					"internalType": "uint256",
					"name": "deadline",
					"type": "uint256"
				},
				{
					"internalType": "bool",
					"name": "approveMax",
					"type": "bool"
				},
				{
					"internalType": "uint8",
					"name": "v",
					"type": "uint8"
				},
				{
					"internalType": "bytes32",
					"name": "r",
					"type": "bytes32"
				},
				{
					"internalType": "bytes32",
					"name": "s",
					"type": "bytes32"
				}
			],
			"name": "removeLiquidityWithPermit",
			"outputs": [
				{
					"internalType": "uint256",
					"name": "amountA",
					"type": "uint256"
				},
				{
					"internalType": "uint256",
					"name": "amountB",
					"type": "uint256"
				}
			],
			"stateMutability": "nonpayable",
			"type": "function"
		},
		{
			"inputs": [
				{
					"internalType": "uint256",
					"name": "amountOut",
					"type": "uint256"
				},
				{
					"internalType": "address[]",
					"name": "path",
					"type": "address[]"
				},
				{
					"internalType": "address",
					"name": "to",
					"type": "address"
				},
				{
					"internalType": "uint256",
					"name": "deadline",
					"type": "uint256"
				}
			],
			"name": "swapETHForExactTokens",
			"outputs": [
				{
					"internalType": "uint256[]",
					"name": "amounts",
					"type": "uint256[]"
				}
			],
			"stateMutability": "payable",
			"type": "function"
		},
		{
			"inputs": [
				{
					"internalType": "uint256",
					"name": "amountOutMin",
					"type": "uint256"
				},
				{
					"internalType": "address[]",
					"name": "path",
					"type": "address[]"
				},
				{
					"internalType": "address",
					"name": "to",
					"type": "address"
				},
				{
					"internalType": "uint256",
					"name": "deadline",
					"type": "uint256"
				}
			],
			"name": "swapExactETHForTokens",
			"outputs": [
				{
					"internalType": "uint256[]",
					"name": "amounts",
					"type": "uint256[]"
				}
			],
			"stateMutability": "payable",
			"type": "function"
		},
		{
			"inputs": [
				{
					"internalType": "uint256",
					"name": "amountOutMin",
					"type": "uint256"
				},
				{
					"internalType": "address[]",
					"name": "path",
					"type": "address[]"
				},
				{
					"internalType": "address",
					"name": "to",
					"type": "address"
				},
				{
					"internalType": "uint256",
					"name": "deadline",
					"type": "uint256"
				}
			],
			"name": "swapExactETHForTokensSupportingFeeOnTransferTokens",
			"outputs": [],
			"stateMutability": "payable",
			"type": "function"
		},
		{
			"inputs": [
				{
					"internalType": "uint256",
					"name": "amountIn",
					"type": "uint256"
				},
				{
					"internalType": "uint256",
					"name": "amountOutMin",
					"type": "uint256"
				},
				{
					"internalType": "address[]",
					"name": "path",
					"type": "address[]"
				},
				{
					"internalType": "address",
					"name": "to",
					"type": "address"
				},
				{
					"internalType": "uint256",
					"name": "deadline",
					"type": "uint256"
				}
			],
			"name": "swapExactTokensForETH",
			"outputs": [
				{
					"internalType": "uint256[]",
					"name": "amounts",
					"type": "uint256[]"
				}
			],
			"stateMutability": "nonpayable",
			"type": "function"
		},
		{
			"inputs": [
				{
					"internalType": "uint256",
					"name": "amountIn",
					"type": "uint256"
				},
				{
					"internalType": "uint256",
					"name": "amountOutMin",
					"type": "uint256"
				},
				{
					"internalType": "address[]",
					"name": "path",
					"type": "address[]"
				},
				{
					"internalType": "address",
					"name": "to",
					"type": "address"
				},
				{
					"internalType": "uint256",
					"name": "deadline",
					"type": "uint256"
				}
			],
			"name": "swapExactTokensForETHSupportingFeeOnTransferTokens",
			"outputs": [],
			"stateMutability": "nonpayable",
			"type": "function"
		},
		{
			"inputs": [
				{
					"internalType": "uint256",
					"name": "amountIn",
					"type": "uint256"
				},
				{
					"internalType": "uint256",
					"name": "amountOutMin",
					"type": "uint256"
				},
				{
					"internalType": "address[]",
					"name": "path",
					"type": "address[]"
				},
				{
					"internalType": "address",
					"name": "to",
					"type": "address"
				},
				{
					"internalType": "uint256",
					"name": "deadline",
					"type": "uint256"
				}
			],
			"name": "swapExactTokensForTokens",
			"outputs": [
				{
					"internalType": "uint256[]",
					"name": "amounts",
					"type": "uint256[]"
				}
			],
			"stateMutability": "nonpayable",
			"type": "function"
		},
		{
			"inputs": [
				{
					"internalType": "uint256",
					"name": "amountIn",
					"type": "uint256"
				},
				{
					"internalType": "uint256",
					"name": "amountOutMin",
					"type": "uint256"
				},
				{
					"internalType": "address[]",
					"name": "path",
					"type": "address[]"
				},
				{
					"internalType": "address",
					"name": "to",
					"type": "address"
				},
				{
					"internalType": "uint256",
					"name": "deadline",
					"type": "uint256"
				}
			],
			"name": "swapExactTokensForTokensSupportingFeeOnTransferTokens",
			"outputs": [],
			"stateMutability": "nonpayable",
			"type": "function"
		},
		{
			"inputs": [
				{
					"internalType": "uint256",
					"name": "amountOut",
					"type": "uint256"
				},
				{
					"internalType": "uint256",
					"name": "amountInMax",
					"type": "uint256"
				},
				{
					"internalType": "address[]",
					"name": "path",
					"type": "address[]"
				},
				{
					"internalType": "address",
					"name": "to",
					"type": "address"
				},
				{
					"internalType": "uint256",
					"name": "deadline",
					"type": "uint256"
				}
			],
			"name": "swapTokensForExactETH",
			"outputs": [
				{
					"internalType": "uint256[]",
					"name": "amounts",
					"type": "uint256[]"
				}
			],
			"stateMutability": "nonpayable",
			"type": "function"
		},
		{
			"inputs": [
				{
					"internalType": "uint256",
					"name": "amountOut",
					"type": "uint256"
				},
				{
					"internalType": "uint256",
					"name": "amountInMax",
					"type": "uint256"
				},
				{
					"internalType": "address[]",
					"name": "path",
					"type": "address[]"
				},
				{
					"internalType": "address",
					"name": "to",
					"type": "address"
				},
				{
					"internalType": "uint256",
					"name": "deadline",
					"type": "uint256"
				}
			],
			"name": "swapTokensForExactTokens",
			"outputs": [
				{
					"internalType": "uint256[]",
					"name": "amounts",
					"type": "uint256[]"
				}
			],
			"stateMutability": "nonpayable",
			"type": "function"
		},
		{
			"stateMutability": "payable",
			"type": "receive"
		}
	]
}