{
  "_format": "hh-sol-artifact-1",
  "contractName": "CallHash",
  "sourceName": "contracts/GetInitHash.sol",
  "abi": [
    {
      "inputs": [],
      "name": "getInitHash",
      "outputs": [
        {
          "internalType": "bytes32",
          "name": "",
          "type": "bytes32"
        }
      ],
      "stateMutability": "pure",
      "type": "function"
    }
  ],
  "bytecode": "0x608060405234801561001057600080fd5b50613ce1806100206000396000f3fe608060405234801561001057600080fd5b506004361061002b5760003560e01c80633c9de1b814610030575b600080fd5b61003861004a565b60405190815260200160405180910390f35b6000806040518060200161005d906100a0565b6020820181038252601f19601f8201166040525090508060405160200161008491906100ad565b6040516020818303038152906040528051906020012091505090565b613bc5806100e783390190565b60008251815b818110156100cd57602081860181015185830152016100b3565b818111156100db5782828501525b50919091019291505056fe6101406040526001600e553480156200001757600080fd5b50604051806040016040528060078152602001660466f6f537761760cc1b81525080604051806040016040528060018152602001603160f81b815250604051806040016040528060078152602001660466f6f737761760cc1b81525060405180604001604052806003815260200162464f4f60e81b8152508160039080519060200190620000a79291906200016e565b508051620000bd9060049060208401906200016e565b5050825160208085019190912083518483012060e08290526101008190524660a0818152604080517f8b73c3c69bb8fe3d512ecc4cf759cc79239f7b179b0ffacaa9a75d522b39400f81880181905281830187905260608201869052608082019490945230818401528151808203909301835260c0019052805194019390932091935091906080523060601b60c052610120525050600780546001600160a01b031916331790555062000251915050565b8280546200017c9062000214565b90600052602060002090601f016020900481019282620001a05760008555620001eb565b82601f10620001bb57805160ff1916838001178555620001eb565b82800160010185558215620001eb579182015b82811115620001eb578251825591602001919060010190620001ce565b50620001f9929150620001fd565b5090565b5b80821115620001f95760008155600101620001fe565b600181811c908216806200022957607f821691505b602082108114156200024b57634e487b7160e01b600052602260045260246000fd5b50919050565b60805160a05160c05160601c60e0516101005161012051613921620002a460003960006127c401526000612813015260006127ee01526000612747015260006127710152600061279b01526139216000f3fe608060405234801561001057600080fd5b50600436106101c45760003560e01c806370a08231116100f9578063ba9a7a5611610097578063d21220a711610071578063d21220a714610435578063d505accf14610455578063dd62ed3e14610468578063fff6cae9146104ae57600080fd5b8063ba9a7a56146103f9578063bc25cf7714610402578063c45a01551461041557600080fd5b806389afcb44116100d357806389afcb44146103a357806395d89b41146103cb578063a457c2d7146103d3578063a9059cbb146103e657600080fd5b806370a08231146103515780637464fc3d146103875780637ecebe001461039057600080fd5b8063313ce56711610166578063485cc95511610140578063485cc955146103195780635909c0d51461032c5780635a3d5493146103355780636a6278421461033e57600080fd5b8063313ce567146102ef5780633644e515146102fe578063395093511461030657600080fd5b8063095ea7b3116101a2578063095ea7b3146102625780630dfe16811461028557806318160ddd146102ca57806323b872dd146102dc57600080fd5b8063022c0d9f146101c957806306fdde03146101de5780630902f1ac146101fc575b600080fd5b6101dc6101d7366004613543565b6104b6565b005b6101e6610c0b565b6040516101f39190613668565b60405180910390f35b600a54604080516dffffffffffffffffffffffffffff80841682526e01000000000000000000000000000084041660208201527c010000000000000000000000000000000000000000000000000000000090920463ffffffff16908201526060016101f3565b6102756102703660046134e0565b610c9d565b60405190151581526020016101f3565b6008546102a59073ffffffffffffffffffffffffffffffffffffffff1681565b60405173ffffffffffffffffffffffffffffffffffffffff90911681526020016101f3565b6002545b6040519081526020016101f3565b6102756102ea36600461342b565b610cb5565b604051601281526020016101f3565b6102ce610cd9565b6102756103143660046134e0565b610ce8565b6101dc6103273660046133f3565b610d34565b6102ce600b5481565b6102ce600c5481565b6102ce61034c3660046133bb565b610e08565b6102ce61035f3660046133bb565b73ffffffffffffffffffffffffffffffffffffffff1660009081526020819052604090205490565b6102ce600d5481565b6102ce61039e3660046133bb565b611205565b6103b66103b13660046133bb565b611232565b604080519283526020830191909152016101f3565b6101e661172f565b6102756103e13660046134e0565b61173e565b6102756103f43660046134e0565b61180f565b6102ce6103e881565b6101dc6104103660046133bb565b61181d565b6007546102a59073ffffffffffffffffffffffffffffffffffffffff1681565b6009546102a59073ffffffffffffffffffffffffffffffffffffffff1681565b6101dc61046336600461346b565b6119ef565b6102ce6104763660046133f3565b73ffffffffffffffffffffffffffffffffffffffff918216600090815260016020908152604080832093909416825291909152205490565b6101dc611bae565b600e54600114610527576040517f08c379a000000000000000000000000000000000000000000000000000000000815260206004820152600f60248201527f466f6f737761703a204c4f434b4544000000000000000000000000000000000060448201526064015b60405180910390fd5b6000600e558415158061053a5750600084115b6105c6576040517f08c379a000000000000000000000000000000000000000000000000000000000815260206004820152602360248201527f466f6f737761703a20494e53554646494349454e545f4f55545055545f414d4f60448201527f554e540000000000000000000000000000000000000000000000000000000000606482015260840161051e565b600080610622600a546dffffffffffffffffffffffffffff808216926e01000000000000000000000000000083049091169163ffffffff7c01000000000000000000000000000000000000000000000000000000009091041690565b5091509150816dffffffffffffffffffffffffffff16871080156106555750806dffffffffffffffffffffffffffff1686105b6106bb576040517f08c379a000000000000000000000000000000000000000000000000000000000815260206004820152601f60248201527f466f6f737761703a20494e53554646494349454e545f4c495155494449545900604482015260640161051e565b600854600954600091829173ffffffffffffffffffffffffffffffffffffffff91821691908116908916821480159061072057508073ffffffffffffffffffffffffffffffffffffffff168973ffffffffffffffffffffffffffffffffffffffff1614155b610786576040517f08c379a000000000000000000000000000000000000000000000000000000000815260206004820152601360248201527f466f6f737761703a20494e56414c49445f544f00000000000000000000000000604482015260640161051e565b8a1561079757610797828a8d611d98565b89156107a8576107a8818a8c611d98565b861561083b576040517f71ecd69100000000000000000000000000000000000000000000000000000000815273ffffffffffffffffffffffffffffffffffffffff8a16906371ecd691906108089033908f908f908e908e906004016135f0565b600060405180830381600087803b15801561082257600080fd5b505af1158015610836573d6000803e3d6000fd5b505050505b6040517f70a0823100000000000000000000000000000000000000000000000000000000815230600482015273ffffffffffffffffffffffffffffffffffffffff8316906370a082319060240160206040518083038186803b1580156108a057600080fd5b505afa1580156108b4573d6000803e3d6000fd5b505050506040513d601f19601f820116820180604052508101906108d8919061352b565b6040517f70a0823100000000000000000000000000000000000000000000000000000000815230600482015290945073ffffffffffffffffffffffffffffffffffffffff8216906370a082319060240160206040518083038186803b15801561094057600080fd5b505afa158015610954573d6000803e3d6000fd5b505050506040513d601f19601f82011682018060405250810190610978919061352b565b92505050600089856dffffffffffffffffffffffffffff1661099a91906137a1565b83116109a75760006109cb565b6109c18a6dffffffffffffffffffffffffffff87166137a1565b6109cb90846137a1565b905060006109e98a6dffffffffffffffffffffffffffff87166137a1565b83116109f6576000610a1a565b610a108a6dffffffffffffffffffffffffffff87166137a1565b610a1a90846137a1565b90506000821180610a2b5750600081115b610ab7576040517f08c379a000000000000000000000000000000000000000000000000000000000815260206004820152602260248201527f466f6f737761703a20494e53554646494349454e545f494e5055545f414d4f5560448201527f4e54000000000000000000000000000000000000000000000000000000000000606482015260840161051e565b6000610ad9610ac7846002611f38565b610ad3876103e8611f38565b90611f4b565b90506000610aeb610ac7846002611f38565b9050610b17620f4240610b116dffffffffffffffffffffffffffff8b8116908b16611f38565b90611f38565b610b218383611f38565b1015610b89576040517f08c379a000000000000000000000000000000000000000000000000000000000815260206004820152600a60248201527f466f6f737761703a204b00000000000000000000000000000000000000000000604482015260640161051e565b5050610b9784848888611f57565b60408051838152602081018390529081018c9052606081018b905273ffffffffffffffffffffffffffffffffffffffff8a169033907fd78ad95fa46c994b6551d0da85fc275fe613ce37657fb8d5e3d130840159d8229060800160405180910390a350506001600e55505050505050505050565b606060038054610c1a90613809565b80601f0160208091040260200160405190810160405280929190818152602001828054610c4690613809565b8015610c935780601f10610c6857610100808354040283529160200191610c93565b820191906000526020600020905b815481529060010190602001808311610c7657829003601f168201915b5050505050905090565b600033610cab818585612233565b5060019392505050565b600033610cc38582856123e7565b610cce8585856124be565b506001949350505050565b6000610ce361272d565b905090565b33600081815260016020908152604080832073ffffffffffffffffffffffffffffffffffffffff87168452909152812054909190610cab9082908690610d2f9087906136b9565b612233565b60075473ffffffffffffffffffffffffffffffffffffffff163314610db5576040517f08c379a000000000000000000000000000000000000000000000000000000000815260206004820152601260248201527f466f6f737761703a20464f5242494444454e0000000000000000000000000000604482015260640161051e565b6008805473ffffffffffffffffffffffffffffffffffffffff9384167fffffffffffffffffffffffff00000000000000000000000000000000000000009182161790915560098054929093169116179055565b6000600e54600114610e76576040517f08c379a000000000000000000000000000000000000000000000000000000000815260206004820152600f60248201527f466f6f737761703a204c4f434b45440000000000000000000000000000000000604482015260640161051e565b6000600e819055600a54600854604080517f70a0823100000000000000000000000000000000000000000000000000000000815230600482015290516dffffffffffffffffffffffffffff808516956e01000000000000000000000000000090950416939273ffffffffffffffffffffffffffffffffffffffff16916370a08231916024808301926020929190829003018186803b158015610f1757600080fd5b505afa158015610f2b573d6000803e3d6000fd5b505050506040513d601f19601f82011682018060405250810190610f4f919061352b565b6009546040517f70a0823100000000000000000000000000000000000000000000000000000000815230600482015291925060009173ffffffffffffffffffffffffffffffffffffffff909116906370a082319060240160206040518083038186803b158015610fbe57600080fd5b505afa158015610fd2573d6000803e3d6000fd5b505050506040513d601f19601f82011682018060405250810190610ff6919061352b565b90506000611014836dffffffffffffffffffffffffffff8716611f4b565b90506000611032836dffffffffffffffffffffffffffff8716611f4b565b905060006110408787612861565b9050600061104d60025490565b9050806110805761106c6103e8610ad36110678787611f38565b6129e7565b985061107b60006103e8612c04565b6110d5565b6110d26dffffffffffffffffffffffffffff891661109e8684611f38565b6110a8919061370c565b6dffffffffffffffffffffffffffff89166110c38685611f38565b6110cd919061370c565b612cf7565b98505b60008911611165576040517f08c379a000000000000000000000000000000000000000000000000000000000815260206004820152602660248201527f466f6f737761703a20494e53554646494349454e545f4c49515549444954595f60448201527f4d494e5445440000000000000000000000000000000000000000000000000000606482015260840161051e565b61116f8a8a612c04565b61117b86868a8a611f57565b81156111b757600a546111b3906dffffffffffffffffffffffffffff808216916e010000000000000000000000000000900416611f38565b600d555b604080518581526020810185905233917f4c209b5fc8ad50758f13e2e1088ba56a560dff690a1c6fef26394f4c03821c4f910160405180910390a250506001600e5550949695505050505050565b73ffffffffffffffffffffffffffffffffffffffff81166000908152600560205260408120545b92915050565b600080600e546001146112a1576040517f08c379a000000000000000000000000000000000000000000000000000000000815260206004820152600f60248201527f466f6f737761703a204c4f434b45440000000000000000000000000000000000604482015260640161051e565b6000600e819055600a54600854600954604080517f70a0823100000000000000000000000000000000000000000000000000000000815230600482015290516dffffffffffffffffffffffffffff808616966e010000000000000000000000000000909604169473ffffffffffffffffffffffffffffffffffffffff94851694909316929184916370a0823191602480820192602092909190829003018186803b15801561134e57600080fd5b505afa158015611362573d6000803e3d6000fd5b505050506040513d601f19601f82011682018060405250810190611386919061352b565b6040517f70a0823100000000000000000000000000000000000000000000000000000000815230600482015290915060009073ffffffffffffffffffffffffffffffffffffffff8416906370a082319060240160206040518083038186803b1580156113f157600080fd5b505afa158015611405573d6000803e3d6000fd5b505050506040513d601f19601f82011682018060405250810190611429919061352b565b306000908152602081905260408120549192506114468888612861565b9050600061145360025490565b9050806114608487611f38565b61146a919061370c565b9a50806114778486611f38565b611481919061370c565b995060008b118015611493575060008a115b61151f576040517f08c379a000000000000000000000000000000000000000000000000000000000815260206004820152602660248201527f466f6f737761703a20494e53554646494349454e545f4c49515549444954595f60448201527f4255524e45440000000000000000000000000000000000000000000000000000606482015260840161051e565b6115293084612d0d565b611534878d8d611d98565b61153f868d8c611d98565b6040517f70a0823100000000000000000000000000000000000000000000000000000000815230600482015273ffffffffffffffffffffffffffffffffffffffff8816906370a082319060240160206040518083038186803b1580156115a457600080fd5b505afa1580156115b8573d6000803e3d6000fd5b505050506040513d601f19601f820116820180604052508101906115dc919061352b565b6040517f70a0823100000000000000000000000000000000000000000000000000000000815230600482015290955073ffffffffffffffffffffffffffffffffffffffff8716906370a082319060240160206040518083038186803b15801561164457600080fd5b505afa158015611658573d6000803e3d6000fd5b505050506040513d601f19601f8201168201806040525081019061167c919061352b565b935061168a85858b8b611f57565b81156116c657600a546116c2906dffffffffffffffffffffffffffff808216916e010000000000000000000000000000900416611f38565b600d555b604080518c8152602081018c905273ffffffffffffffffffffffffffffffffffffffff8e169133917fdccd412f0b1252819cb1fd330b93224ca42612892bb3f4f789976e6d81936496910160405180910390a35050505050505050506001600e81905550915091565b606060048054610c1a90613809565b33600081815260016020908152604080832073ffffffffffffffffffffffffffffffffffffffff8716845290915281205490919083811015611802576040517f08c379a000000000000000000000000000000000000000000000000000000000815260206004820152602560248201527f45524332303a2064656372656173656420616c6c6f77616e63652062656c6f7760448201527f207a65726f000000000000000000000000000000000000000000000000000000606482015260840161051e565b610cce8286868403612233565b600033610cab8185856124be565b600e54600114611889576040517f08c379a000000000000000000000000000000000000000000000000000000000815260206004820152600f60248201527f466f6f737761703a204c4f434b45440000000000000000000000000000000000604482015260640161051e565b6000600e55600854600954600a546040517f70a0823100000000000000000000000000000000000000000000000000000000815230600482015273ffffffffffffffffffffffffffffffffffffffff9384169390921691611960918491869161195b916dffffffffffffffffffffffffffff9091169084906370a08231906024015b60206040518083038186803b15801561192357600080fd5b505afa158015611937573d6000803e3d6000fd5b505050506040513d601f19601f82011682018060405250810190610ad3919061352b565b611d98565b600a546040517f70a082310000000000000000000000000000000000000000000000000000000081523060048201526119e5918391869161195b916e0100000000000000000000000000009091046dffffffffffffffffffffffffffff169073ffffffffffffffffffffffffffffffffffffffff8516906370a082319060240161190b565b50506001600e5550565b83421115611a59576040517f08c379a000000000000000000000000000000000000000000000000000000000815260206004820152601d60248201527f45524332305065726d69743a206578706972656420646561646c696e65000000604482015260640161051e565b60007f6e71edae12b1b97f4d1f60370fef10105fa2faae0126114a169c64845d6126c9888888611a888c612ec9565b60408051602081019690965273ffffffffffffffffffffffffffffffffffffffff94851690860152929091166060840152608083015260a082015260c0810186905260e0016040516020818303038152906040528051906020012090506000611af082612efe565b90506000611b0082878787612f67565b90508973ffffffffffffffffffffffffffffffffffffffff168173ffffffffffffffffffffffffffffffffffffffff1614611b97576040517f08c379a000000000000000000000000000000000000000000000000000000000815260206004820152601e60248201527f45524332305065726d69743a20696e76616c6964207369676e61747572650000604482015260640161051e565b611ba28a8a8a612233565b50505050505050505050565b600e54600114611c1a576040517f08c379a000000000000000000000000000000000000000000000000000000000815260206004820152600f60248201527f466f6f737761703a204c4f434b45440000000000000000000000000000000000604482015260640161051e565b6000600e556008546040517f70a08231000000000000000000000000000000000000000000000000000000008152306004820152611d919173ffffffffffffffffffffffffffffffffffffffff16906370a082319060240160206040518083038186803b158015611c8a57600080fd5b505afa158015611c9e573d6000803e3d6000fd5b505050506040513d601f19601f82011682018060405250810190611cc2919061352b565b6009546040517f70a0823100000000000000000000000000000000000000000000000000000000815230600482015273ffffffffffffffffffffffffffffffffffffffff909116906370a082319060240160206040518083038186803b158015611d2b57600080fd5b505afa158015611d3f573d6000803e3d6000fd5b505050506040513d601f19601f82011682018060405250810190611d63919061352b565b600a546dffffffffffffffffffffffffffff808216916e010000000000000000000000000000900416611f57565b6001600e55565b604080518082018252601981527f7472616e7366657228616464726573732c75696e743235362900000000000000602091820152815173ffffffffffffffffffffffffffffffffffffffff85811660248301526044808301869052845180840390910181526064909201845291810180517bffffffffffffffffffffffffffffffffffffffffffffffffffffffff167fa9059cbb0000000000000000000000000000000000000000000000000000000017905291516000928392871691611e5f91906135d4565b6000604051808303816000865af19150503d8060008114611e9c576040519150601f19603f3d011682016040523d82523d6000602084013e611ea1565b606091505b5091509150818015611ecb575080511580611ecb575080806020019051810190611ecb919061350b565b611f31576040517f08c379a000000000000000000000000000000000000000000000000000000000815260206004820152601860248201527f466f6f737761703a205452414e534645525f4641494c45440000000000000000604482015260640161051e565b5050505050565b6000611f448284613764565b9392505050565b6000611f4482846137a1565b6dffffffffffffffffffffffffffff8411801590611f8357506dffffffffffffffffffffffffffff8311155b611fe9576040517f08c379a000000000000000000000000000000000000000000000000000000000815260206004820152601160248201527f466f6f737761703a204f564552464c4f57000000000000000000000000000000604482015260640161051e565b6000611ffa64010000000042613857565b600a54909150600090612033907c0100000000000000000000000000000000000000000000000000000000900463ffffffff16836137b8565b905060008163ffffffff1611801561205a57506dffffffffffffffffffffffffffff841615155b801561207557506dffffffffffffffffffffffffffff831615155b15612143578063ffffffff166120b28561208e86612f8f565b7bffffffffffffffffffffffffffffffffffffffffffffffffffffffff1690612fba565b7bffffffffffffffffffffffffffffffffffffffffffffffffffffffff166120da9190613764565b600b60008282546120eb91906136b9565b909155505063ffffffff81166121048461208e87612f8f565b7bffffffffffffffffffffffffffffffffffffffffffffffffffffffff1661212c9190613764565b600c600082825461213d91906136b9565b90915550505b600a805463ffffffff84167c0100000000000000000000000000000000000000000000000000000000027bffffffffffffffffffffffffffffffffffffffffffffffffffffffff6dffffffffffffffffffffffffffff8981166e0100000000000000000000000000009081027fffffffff000000000000000000000000000000000000000000000000000000009095168c83161794909417918216831794859055604080519382169282169290921783529290930490911660208201527f1c411e9a96e071241c2f21f7726b17ae89e3cab4c78be50e062b03a9fffbbad1910160405180910390a1505050505050565b73ffffffffffffffffffffffffffffffffffffffff83166122d5576040517f08c379a0000000000000000000000000000000000000000000000000000000008152602060048201526024808201527f45524332303a20617070726f76652066726f6d20746865207a65726f2061646460448201527f7265737300000000000000000000000000000000000000000000000000000000606482015260840161051e565b73ffffffffffffffffffffffffffffffffffffffff8216612378576040517f08c379a000000000000000000000000000000000000000000000000000000000815260206004820152602260248201527f45524332303a20617070726f766520746f20746865207a65726f20616464726560448201527f7373000000000000000000000000000000000000000000000000000000000000606482015260840161051e565b73ffffffffffffffffffffffffffffffffffffffff83811660008181526001602090815260408083209487168084529482529182902085905590518481527f8c5be1e5ebec7d5bd14f71427d1e84f3dd0314c0f7b2291e5b200ac8c7c3b92591015b60405180910390a3505050565b73ffffffffffffffffffffffffffffffffffffffff8381166000908152600160209081526040808320938616835292905220547fffffffffffffffffffffffffffffffffffffffffffffffffffffffffffffffff81146124b857818110156124ab576040517f08c379a000000000000000000000000000000000000000000000000000000000815260206004820152601d60248201527f45524332303a20696e73756666696369656e7420616c6c6f77616e6365000000604482015260640161051e565b6124b88484848403612233565b50505050565b73ffffffffffffffffffffffffffffffffffffffff8316612561576040517f08c379a000000000000000000000000000000000000000000000000000000000815260206004820152602560248201527f45524332303a207472616e736665722066726f6d20746865207a65726f20616460448201527f6472657373000000000000000000000000000000000000000000000000000000606482015260840161051e565b73ffffffffffffffffffffffffffffffffffffffff8216612604576040517f08c379a000000000000000000000000000000000000000000000000000000000815260206004820152602360248201527f45524332303a207472616e7366657220746f20746865207a65726f206164647260448201527f6573730000000000000000000000000000000000000000000000000000000000606482015260840161051e565b73ffffffffffffffffffffffffffffffffffffffff8316600090815260208190526040902054818110156126ba576040517f08c379a000000000000000000000000000000000000000000000000000000000815260206004820152602660248201527f45524332303a207472616e7366657220616d6f756e742065786365656473206260448201527f616c616e63650000000000000000000000000000000000000000000000000000606482015260840161051e565b73ffffffffffffffffffffffffffffffffffffffff848116600081815260208181526040808320878703905593871680835291849020805487019055925185815290927fddf252ad1be2c89b69c2b068fc378daa952ba7f163c4a11628f55a4df523b3ef910160405180910390a36124b8565b60003073ffffffffffffffffffffffffffffffffffffffff7f00000000000000000000000000000000000000000000000000000000000000001614801561279357507f000000000000000000000000000000000000000000000000000000000000000046145b156127bd57507f000000000000000000000000000000000000000000000000000000000000000090565b50604080517f00000000000000000000000000000000000000000000000000000000000000006020808301919091527f0000000000000000000000000000000000000000000000000000000000000000828401527f000000000000000000000000000000000000000000000000000000000000000060608301524660808301523060a0808401919091528351808403909101815260c0909201909252805191012090565b600080600760009054906101000a900473ffffffffffffffffffffffffffffffffffffffff1673ffffffffffffffffffffffffffffffffffffffff1663017e7e586040518163ffffffff1660e01b815260040160206040518083038186803b1580156128cc57600080fd5b505afa1580156128e0573d6000803e3d6000fd5b505050506040513d601f19601f8201168201806040525081019061290491906133d7565b600d5473ffffffffffffffffffffffffffffffffffffffff821615159350909150600061293060025490565b905083156129d25781156129cd5760006129606110676dffffffffffffffffffffffffffff898116908916611f38565b9050600061296d846129e7565b9050808211156129ca57600061298d6129868484611f4b565b8590611f38565b905060006129a6836129a0866005611f38565b90612fd6565b905060006129b4828461370c565b905080156129c6576129c68882612c04565b5050505b50505b6129de565b81156129de576000600d555b50505092915050565b6000816129f657506000919050565b60006001612a0384612fe2565b901c6001901b90506001818481612a43577f4e487b7100000000000000000000000000000000000000000000000000000000600052601260045260246000fd5b048201901c90506001818481612a82577f4e487b7100000000000000000000000000000000000000000000000000000000600052601260045260246000fd5b048201901c90506001818481612ac1577f4e487b7100000000000000000000000000000000000000000000000000000000600052601260045260246000fd5b048201901c90506001818481612b00577f4e487b7100000000000000000000000000000000000000000000000000000000600052601260045260246000fd5b048201901c90506001818481612b3f577f4e487b7100000000000000000000000000000000000000000000000000000000600052601260045260246000fd5b048201901c90506001818481612b7e577f4e487b7100000000000000000000000000000000000000000000000000000000600052601260045260246000fd5b048201901c90506001818481612bbd577f4e487b7100000000000000000000000000000000000000000000000000000000600052601260045260246000fd5b048201901c9050611f4481828581612bfe577f4e487b7100000000000000000000000000000000000000000000000000000000600052601260045260246000fd5b04612cf7565b73ffffffffffffffffffffffffffffffffffffffff8216612c81576040517f08c379a000000000000000000000000000000000000000000000000000000000815260206004820152601f60248201527f45524332303a206d696e7420746f20746865207a65726f206164647265737300604482015260640161051e565b8060026000828254612c9391906136b9565b909155505073ffffffffffffffffffffffffffffffffffffffff8216600081815260208181526040808320805486019055518481527fddf252ad1be2c89b69c2b068fc378daa952ba7f163c4a11628f55a4df523b3ef910160405180910390a35050565b6000818310612d065781611f44565b5090919050565b73ffffffffffffffffffffffffffffffffffffffff8216612db0576040517f08c379a000000000000000000000000000000000000000000000000000000000815260206004820152602160248201527f45524332303a206275726e2066726f6d20746865207a65726f2061646472657360448201527f7300000000000000000000000000000000000000000000000000000000000000606482015260840161051e565b73ffffffffffffffffffffffffffffffffffffffff821660009081526020819052604090205481811015612e66576040517f08c379a000000000000000000000000000000000000000000000000000000000815260206004820152602260248201527f45524332303a206275726e20616d6f756e7420657863656564732062616c616e60448201527f6365000000000000000000000000000000000000000000000000000000000000606482015260840161051e565b73ffffffffffffffffffffffffffffffffffffffff83166000818152602081815260408083208686039055600280548790039055518581529192917fddf252ad1be2c89b69c2b068fc378daa952ba7f163c4a11628f55a4df523b3ef91016123da565b73ffffffffffffffffffffffffffffffffffffffff811660009081526005602052604090208054600181018255905b50919050565b600061122c612f0b61272d565b836040517f19010000000000000000000000000000000000000000000000000000000000006020820152602281018390526042810182905260009060620160405160208183030381529060405280519060200120905092915050565b6000806000612f7887878787613076565b91509150612f8581613165565b5095945050505050565b600061122c6e0100000000000000000000000000006dffffffffffffffffffffffffffff8416613720565b6000611f446dffffffffffffffffffffffffffff8316846136d1565b6000611f4482846136b9565b600080608083901c15612ff757608092831c92015b604083901c1561300957604092831c92015b602083901c1561301b57602092831c92015b601083901c1561302d57601092831c92015b600883901c1561303f57600892831c92015b600483901c1561305157600492831c92015b600283901c1561306357600292831c92015b600183901c1561122c5760010192915050565b6000807f7fffffffffffffffffffffffffffffff5d576e7357a4501ddfe92f46681b20a08311156130ad575060009050600361315c565b6040805160008082526020820180845289905260ff881692820192909252606081018690526080810185905260019060a0016020604051602081039080840390855afa158015613101573d6000803e3d6000fd5b50506040517fffffffffffffffffffffffffffffffffffffffffffffffffffffffffffffffe0015191505073ffffffffffffffffffffffffffffffffffffffff81166131555760006001925092505061315c565b9150600090505b94509492505050565b60008160048111156131a0577f4e487b7100000000000000000000000000000000000000000000000000000000600052602160045260246000fd5b14156131a95750565b60018160048111156131e4577f4e487b7100000000000000000000000000000000000000000000000000000000600052602160045260246000fd5b141561324c576040517f08c379a000000000000000000000000000000000000000000000000000000000815260206004820152601860248201527f45434453413a20696e76616c6964207369676e61747572650000000000000000604482015260640161051e565b6002816004811115613287577f4e487b7100000000000000000000000000000000000000000000000000000000600052602160045260246000fd5b14156132ef576040517f08c379a000000000000000000000000000000000000000000000000000000000815260206004820152601f60248201527f45434453413a20696e76616c6964207369676e6174757265206c656e67746800604482015260640161051e565b600381600481111561332a577f4e487b7100000000000000000000000000000000000000000000000000000000600052602160045260246000fd5b14156133b8576040517f08c379a000000000000000000000000000000000000000000000000000000000815260206004820152602260248201527f45434453413a20696e76616c6964207369676e6174757265202773272076616c60448201527f7565000000000000000000000000000000000000000000000000000000000000606482015260840161051e565b50565b6000602082840312156133cc578081fd5b8135611f44816138c9565b6000602082840312156133e8578081fd5b8151611f44816138c9565b60008060408385031215613405578081fd5b8235613410816138c9565b91506020830135613420816138c9565b809150509250929050565b60008060006060848603121561343f578081fd5b833561344a816138c9565b9250602084013561345a816138c9565b929592945050506040919091013590565b600080600080600080600060e0888a031215613485578283fd5b8735613490816138c9565b965060208801356134a0816138c9565b95506040880135945060608801359350608088013560ff811681146134c3578384fd5b9699959850939692959460a0840135945060c09093013592915050565b600080604083850312156134f2578182fd5b82356134fd816138c9565b946020939093013593505050565b60006020828403121561351c578081fd5b81518015158114611f44578182fd5b60006020828403121561353c578081fd5b5051919050565b60008060008060006080868803121561355a578081fd5b85359450602086013593506040860135613573816138c9565b9250606086013567ffffffffffffffff8082111561358f578283fd5b818801915088601f8301126135a2578283fd5b8135818111156135b0578384fd5b8960208285010111156135c1578384fd5b9699959850939650602001949392505050565b600082516135e68184602087016137dd565b9190910192915050565b73ffffffffffffffffffffffffffffffffffffffff8616815284602082015283604082015260806060820152816080820152818360a0830137600081830160a090810191909152601f9092017fffffffffffffffffffffffffffffffffffffffffffffffffffffffffffffffe0160101949350505050565b60208152600082518060208401526136878160408501602087016137dd565b601f017fffffffffffffffffffffffffffffffffffffffffffffffffffffffffffffffe0169190910160400192915050565b600082198211156136cc576136cc61386b565b500190565b60007bffffffffffffffffffffffffffffffffffffffffffffffffffffffff808416806137005761370061389a565b92169190910492915050565b60008261371b5761371b61389a565b500490565b60007bffffffffffffffffffffffffffffffffffffffffffffffffffffffff8083168185168183048111821515161561375b5761375b61386b565b02949350505050565b6000817fffffffffffffffffffffffffffffffffffffffffffffffffffffffffffffffff048311821515161561379c5761379c61386b565b500290565b6000828210156137b3576137b361386b565b500390565b600063ffffffff838116908316818110156137d5576137d561386b565b039392505050565b60005b838110156137f85781810151838201526020016137e0565b838111156124b85750506000910152565b600181811c9082168061381d57607f821691505b60208210811415612ef8577f4e487b7100000000000000000000000000000000000000000000000000000000600052602260045260246000fd5b6000826138665761386661389a565b500690565b7f4e487b7100000000000000000000000000000000000000000000000000000000600052601160045260246000fd5b7f4e487b7100000000000000000000000000000000000000000000000000000000600052601260045260246000fd5b73ffffffffffffffffffffffffffffffffffffffff811681146133b857600080fdfea26469706673582212206f66207cc230f3e6a6e05699f96354f8502549ddd0d662e136125320bebd7f2764736f6c63430008040033a2646970667358221220dfde0e4b4eaaa70d379181e208e9040071693307f3751e468d577de709adbe7d64736f6c63430008040033",
  "linkReferences": {},
  "deployedLinkReferences": {}
}